:08000000803102288731E52F51
:10076800013008000530080020009111080024001D
:1007780095120800210091110800240016140800A1
:100788002400961408002400161508002400961565
:100798000800240011080800200091150800240012
:1007A800961616160800240096121616080016301B
:1007B8002100970008000034403414345434F00009
:1007C80070082400910008002000BC10BB010E3006
:1007D80008008331C4238331013008008331C423E6
:1007E8008331023008008331C4238331013008008B
:1007F8008331C7238331003008008331D723843104
:10080800053008008331D32384310A30080083314E
:10081800D3238431093008002000BC10BB010E30FE
:10082800080000308531AD25843108002400160EFB
:10083800890C890C013908002000911D242C252CD5
:10084800202C0800640080010131890B272C00341A
:1008580020003C108331CA238431043008007830EA
:1008680021009900980122009601080020003C14FC
:1008780036358331E32384310330080020003C14EB
:100888000314360D8331E323843105300800240036
:1008980094010830950096012730920095120800BF
:1008A8007508F1007408F0007608F2000030853110
:1008B800C925843108007508F1007408F00076082D
:1008C800F20002308531C92584310800712C843149
:1008D800202484318631152684312000BC18752CDB
:1008E800762C6B2C08002400951A7B2C7C2C832CEE
:1008F800940108309500960127309200951608005B
:1009080084314B24843185319225843184313324D8
:1009180084318331DB2384310800F2002000BC1DC0
:10092800962C972C9E2C7208B7007108B900700895
:10093800B800BC1108000230F0000030F100770860
:100948008431912484310030F400F500F6018431BB
:1009580054248431043008000130F0000030F100E4
:1009680077088431912484310030F400F500F601D1
:10097800843154248431023008000230F000003001
:10098800F10077088431912484310030F400F500B7
:10099800F601843154248431023008000130F0001B
:1009A8000030F10077088431912484310030F4005C
:1009B800F500F60184315424843104300800200005
:1009C800C800C401480885311B2584310B3020003C
:1009D800C7006230890BEE2CC70BEE2C0000080014
:1009E8002000C800C401C40A480885311B25843189
:1009F8000B302000C7006230890B002DC70B002D7B
:100A0800000008002000CE005208CD005108CC009C
:100A18005008CB004F08CA0049084A3E86008701A3
:100A280001084E0780388431E3248531080020000E
:100A3800C6004408C0004608C5000430C536890B06
:100A4800222D450886316A26853120004408C000D9
:100A580046080F3986316A26853108008431842496
:100A680085318731422785312000C9010030853121
:100A78000625853120302000C9008830CA0085311C
:100A880079258531462D80310228F001F00A2000B1
:100A9800BC184F2D502D5F2D3C11FF30B60083310F
:100AA800B82385318331BE2385318331BB2385311A
:100AB80020003B08F00070080800770886008701CE
:100AC800403FF000413FF1007708023E8600870171
:100AD80001088431912485310030F400F500F601D5
:100AE80084315424853102300800872D4908840058
:100AF8004A08850000088431F4248531013020003B
:100B0800C9070030CA3D2000490884004A0885000A
:100B18001200031D902D912D7A2D080022009001BE
:100B28008C018D018E01083021009000FF308C006F
:100B3800FF308D00FF308E003F3023008D003F30A6
:100B48008C00240090018D012100951722009D0141
:100B58000800FC00FD01FD0A2000BC18B42DB52DCD
:100B6800C72DBC14FD017C080319BB2DBC2DBF2D5E
:100B7800BA01BA0AC12D0230BA008331C1238531C6
:100B880084316A2485317D080800F30070087104F7
:100B98000319CF2DD02DDF2D7335203E8600870118
:100BA8007008C03F7108C13F73082C3E860087015A
:100BB80072088100EC2D7335203E86008701B43021
:100BC800C03F0330C13F73082C3E86008701810176
:100BD800080020003C100230BB00FA2D8331F723B7
:100BE8008531142E8331FC238531142E2E08F7000D
:100BF8000430203E86008701413F8A00403F0A00BA
:100C08008631F800F9017908003A03190C2EF62DFF
:100C18007808023A0319F22D013A0319F22DF62D3C
:100C280008008331B823863120003C1C1C2E1D2E61
:100C3800282E84311A248631003A0319242E252EB1
:100C4800282E0F302000BA0020003A08FA00FB01D5
:100C5800FA35FB0D00307A07840008307B3D803878
:100C68008500013F8A00003F0A0086312000BA0053
:100C780008002000BC154D2E8331F7238631692EDC
:100C88008331D02386310330692E8331FC238631AA
:100C9800692E2C08F70021088A0020080A008631EE
:100CA800F800F9017908003A03195B2E492E7808F3
:100CB800013A0319492E033A0319402E013A031940
:100CC800402E073A0319442E492E08002000C2007E
:100CD8004208C1000330C135FF3E031D6F2E413568
:100CE8000838C300400803197A2E7B2E7C2E431443
:100CF800BD0143080438BE00273086319726863167
:100D080006302000C1003030890B882EC10B882E98
:100D180000002000BD014308FB39BE0027308631A2
:100D28009726863108002000BF0020003F08863142
:100D3800C9268631003A0319A22EA32E992ED23045
:100D4800F4000430F5003E30F60084315424863136
:100D58000130F0000030F1003D30843191248631BB
:100D68000030F400F5000030F600F70084315F240D
:100D78008631843115248631853149258631013AF9
:100D88000319C72EC82EC02E0800F000F101F10A81
:100D980020003C19D02ED12EFD2E7008B600BC10B4
:100DA8003C153C100E30BA00F430B4000130B500E8
:100DB800BC15B430A0000330A100AC01B430A200CF
:100DC8000330A300AD01B430A4000330A500AE0188
:100DD800B430A6000330A700AF01B630A800033036
:100DE800A900B0018331B823863184317724863154
:100DF800F101710808002000370886008701833157
:100E0800CD23863181000130F80078082000B7072B
:100E18000130B8020030B93B380839040319152FDE
:100E2800162F1B2F8331D72386310530412FBC1550
:100E3800252F84310B248631412F843106248631B5
:100E4800412F2C08F70021088A0020080A00873162
:100E5800F800F9017908003A0319332F212F78088F
:100E6800013A0319212F033A03191D2F013A0319D7
:100E78001D2F073A0319212F212F080002302000C7
:100E8800CA000430C900BA30890B482FC90B482F53
:100E9800CA0B482F00002000CB01C0010330863167
:100EA8006A2687311A302000C900F830890B5A2F7A
:100EB800C90B5A2F000001302000C9004908CB0790
:100EC80003304B02031C692F6A2F512FC0010230D7
:100ED80086316A26873106302000C9003030890BF8
:100EE800732FC90B732F000028308431E324873116
:100EF8000C308431E324873106308431E324873190
:100F080001308431E32487310B302000C90062307E
:100F1800890B8C2FC90B8C2F0000080084311A24F0
:100F28008731003A0319992F9A2FC82FA72F833199
:100F3800ED238731E42F8331F2238731E42F833186
:100F4800FC238731E42F20002F08F7000630203ECD
:100F580086008701413F8A00403F0A008731F80038
:100F6800F9017908003A0319BA2FA32F7808013A32
:100F78000319A32F033A03199B2F013A03199F2F33
:100F8800073A0319A32FA32F20003C101730203E47
:100F980086008701403F84008501810A000883316B
:100FA800E323873101302000B8020030B93B38080C
:100FB8003904031DE02FE12FE32F0630E42F03301F
:100FC80008008331DF238731CF008331E023873165
:100FD800D0008331E1238731D1008331E223873187
:100FE800D20020308400003085001D308431262452
:100FF800873120008531322DE834033442340434FB
:101008003A34043492340734FF3406342C3404342C
:101018003D340634ED340334F2340334F734033406
:10102800FC34033401340434063404340B340434FB
:1010380010340434ED340534483465346C346C347D
:101048006F342134203477346F3472346C34643420
:02105800003462
:020000040001F9
:08000000FF3FFF3FFF3FFF3F00
:04000E00E43FFF1EAE
:00000001FF
