:020000040000FA
:1000000080312628013400347E1480318B1E09286B
:100010000A2812280B1D0D280E28122897317D273B
:10002000803124280B1F1528162824282100111C94
:100030001A281B2824282000111C1F2820282428C7
:1000400088310020803124287E1009008031282842
:10005000803102208031EE00803103208031EF00BA
:10006000243084009630850021001200E800120040
:10007000E9001200EA001200EB001200EC0012008E
:10008000ED00FA01FB012000EC01ED01A03084003D
:1000900000308500483096311E26803120308400A3
:1000A00001308500323096311E268031A030840028
:1000B000013085004C3096311E2680317E102000A4
:1000C000803162289631FD2680311030F2001730E1
:1000D000F3009631122680313F30F2000E30F300EB
:1000E0009631182680318B170B179631A726803151
:1000F0009731962780318D31202580318D31DD2556
:1001000080312000AF0100308831172080317F30EE
:100110002000BB009830BC00413088313420803151
:1001200041309731AF2780312000AF01AF0A003056
:1001300088311720803190302000BB009830BC00FF
:10014000413088313420803141309731AF278031C0
:100150003D302100EF00E130EE003F30890BAE284A
:10016000EE0BAE28EF0BAE2800322000AF010030BE
:100170008831172080316E302000BB009830BC00E1
:10018000413088313420803141309731AF27803180
:100190002000AF01AF0A00308831172080315D3078
:1001A0002000BB009830BC004130883134208031C1
:1001B00041309731AF2780313D302100EF00E130F1
:1001C000EE003F30890BE228EE0BE228EF0BE2282D
:1001D000003221005F080319EE28EF281729DF01FC
:1001E000031020000D1C03140030031801302300FD
:1001F000CA00031020008D1C0314003003180130C6
:100200002300D500031020000D1D03140030031837
:1002100001302300E000031020008D1D0314003086
:10022000031801302300EB008431EB2480312100DE
:100230005E08031D1C291D2922295C080319212998
:100240002229F3295C080319262927292A298A311A
:100250004B2280312100DE01DC01DA29AF010030C0
:100260008831172080312000D601D60A21006D0880
:100270002000D80021006C082000D7004130D900B0
:100280006D0887311527803141309731AF27803194
:100290002000AF01AF0A00308831172080310230D2
:1002A0002000D6006F08D8006E08D7004130D90072
:1002B0006D0887311527803141309731AF27803164
:1002C0002000AF01AF0A0E308831172080312000A6
:1002D000AF010D30883117208031F329AF01003094
:1002E000883117208031A1302000BB009830BC003D
:1002F000413088313420803141309731AF2780310F
:100300002000AF01AF0A0030883117208031023061
:100310002000D6006F08D8006E08D7004130D90001
:100320006D0889314021803141309731AF278031CC
:100330002000AF01AF0A0D30883117208031F3293A
:10034000AF0100308831172080312000D601D60A55
:1003500021006D082000D80021006C082000D70083
:100360004130D9006D0886313026803141309731D7
:10037000AF2780312000AF01AF0A0030883117204D
:10038000803102302000D6006F08D8006E08D700F8
:100390004130D9006D0886313026803141309731A7
:1003A000AF2780312000AF0121005D088831172080
:1003B0008031F32920006C08003A03192E29013AF4
:1003C00003196E29033A0319A029E629F3298B3171
:1003D00023238031E9288F3188278031E928833130
:1003E0007E238031E92820006C08003A0319E729B0
:1003F000013A0319EB29033A0319EF29E92880315F
:1004000026282000AE00240886008701403FA60071
:10041000413FA70026088400270885001200253ADE
:10042000031D132A142A652B240886008701013036
:10043000810741310318810A2100B501B60103107B
:10044000003003180130D100FF30B700FF30B80092
:100450002000240886008701403FAB00413FAC00EC
:100460002B0884002C0885001200643A0319392AED
:100470003A2A442A2B0884002C0885001200693A85
:10048000031D432A442AD02A250886008701010833
:100490008400850102308107003FAF00013FB000BA
:1004A0002B08013EA60000302C3DA7002408860042
:1004B00087012608C03F2708C13F2030B300B01B8A
:1004C000622A642A0130652A0030AD000130B3028F
:1004D0003308A03E8600013087000A30F200003069
:1004E000F3003008F5002F08F4008C3177248231B6
:1004F00073082000A1007208A0009631D82682312E
:1005000020002008303E81000A30F2000030F30065
:100510003008F5002F08F4008D317D2582317308F5
:100520002000B0007208AF002F0830040319992A88
:100530009A2A9F2A3308031D9E2A9F2A662A330877
:100540000319A32AA42AC92A2D080319A82AA92A0B
:10055000C92A0130B3023308A03E8600013087006B
:100560002D308100C92A3308A03E86000130870063
:100570000108A600A7012608F2002708F3002E08AC
:10058000F4008C312624823101302000A600260898
:10059000B30720303306031DCE2ACF2AB32A7D2B82
:1005A000AD01240886008701403FA600413FA70017
:1005B00026088400270885001200733A031DE12AEB
:1005C000E22AED2A240886008701013081074131A3
:1005D0000318810AAD01AD0A2F2B2408860087017C
:1005E000403FA600413FA700260884002708850059
:1005F00012006C3A031DFD2AFE2A2F2B24088600C8
:100600008701403FA600413FA70001302607840034
:1006100027080318270A850012006C3A031D112BC6
:10062000122B2F2B240886008701403FA600413F54
:10063000A70002302607840027080318270A850030
:100640001200733A031D252B262B2F2B240886001E
:1006500087010330810741310318810AEA2A2D08F6
:100660000319332B342B5B2B250886008701403F71
:1006700084008501810A0008AA00522B2A088600FE
:1006800087010108A600A7012608F2002708F30049
:100690002E08F4008C312624823101302000A6007F
:1006A0002608AA072A08860087010108031D592B7E
:1006B0005A2B3E2B7D2B2000240886008701013019
:1006C000810741310318810A7D2B240886008701A8
:1006D000403FA600413FA700260884002708850068
:1006E0000008A800A9012808F2002908F3002E0834
:1006F000F4008C31262482315B2B0800E43020008A
:10070000B2000D2CE4302000B20003302100DD00E7
:10071000282CE5302000B20004302100DD00282C18
:10072000E6302000B2006D03031D972B982B9C2B05
:1007300005302100DD00282C02306D06031DA12BA1
:10074000A22BA32B982B03306D06031DA82BA92BDE
:10075000AD2B06302100DD00282C282CE7302000AE
:10076000B2006D03031DB52BB62BB72BA92B02309E
:100770006D06031DBC2BBD2BC12B07302100DD00F6
:10078000282C03306D06031DC62BC72B282CBD2B30
:10079000E0302000B20043302100DD00282CE130A1
:1007A0002000B20044302100DD00282CE23020007F
:1007B000B2006D03031DDD2BDE2BE22B4530210043
:1007C000DD00282C02306D06031DE72BE82BE92BFA
:1007D000DE2B03306D06031DEE2BEF2B282C46304D
:1007E0002100DD00282CE3302000B2006D03031D42
:1007F000FA2BFB2BFC2BEF2B02306D06031D012C7B
:10080000022C062C47302100DD00282C03306D0619
:10081000031D0B2C0C2C282C022C21005408013A0F
:100820000319822B033A0319892B013A0319902BE0
:10083000073A0319AE2B013A0319C82B033A0319DF
:10084000CF2B013A0319D62B0F3A0319F32B282C7F
:1008500023004908031D2D2C2E2C332C4808031986
:10086000322C332C592CC901C8012100DC01DC0ACF
:1008700001302000B100320886008701310881076D
:100880003208860087010A300102031C482C492CDB
:100890004D2C3208860087018101031022000E1CB6
:1008A00003140318542C572C22000E14592C220028
:1008B0000E102300540803195E2C5F2C7D2CD401EC
:1008C0002100DC01DC0A01302000B10031082100E8
:1008D000D40709305402031C6E2C6F2C712CD401E8
:1008E000D40A031022000E1C03140318782C7B2C4E
:1008F00022000E147D2C22000E1023005F08031D21
:10090000822C832C882C5E080319872C882CAD2C14
:10091000DF01DE012100DC01DC0A20003208860054
:1009200087010108031D952C962C9C2C320886000B
:10093000870109308100A12C32088600870101302F
:100940008102031022000E1C03140318A82CAB2CE8
:1009500022000E14AD2C22000E10230052080319A1
:10096000B22CB32CEA2CD2012100DC01DC0A0310EA
:1009700022000E1C03140318BE2CC12C22000E14DE
:10098000C32C22000E102000EC01E430F800EC3003
:100990008E31A3268331E030F8006E308E31A326ED
:1009A000833120006D08F2000030893194218331B9
:1009B00021006D08F7006C08F600023097314F27D0
:1009C000833120006F08F7006E08F600043097317D
:1009D0004F2783310800F8010B30F2007808973177
:1009E00025278431C03EF900082E7908033E860091
:1009F000013087000030C03FC13F790A86000130D6
:100A000087000030C03FC13F79080A3E86000130B0
:100A100087000103031D0D2D0E2D252E790886005C
:100A20000130870002308100252E79080A3E8600B9
:100A3000013087000103031D1E2D1F2D4F2D790A44
:100A40008600013087000A30810741310318810A8E
:100A5000790A860001308700403FF600413FF700E9
:100A6000013077022C3003197602031C382D392D02
:100A7000252E7908073E8600013087008101810A12
:100A80007908033E8600013087000030C03FC13F37
:100A9000790886000130870004308100252E79080E
:100AA000053E8600013087000030C03FC13F790815
:100AB00086000130870005308100252E79080A3E26
:100AC0008600013087000103031D672D682D942DDA
:100AD0007908033E8600013087000A3081074131E2
:100AE0000318810A7908033E860001308700403FE1
:100AF000F600413FF70000307702283003197602F4
:100B0000031C832D842D252E7908033E8600013099
:100B100087000030C03FC13F7908083E86000130A1
:100B200087008101810A252E790A8600013087001D
:100B30000030C03FC13F7908053E86000130870084
:100B40000030C03FC13F7908860001308700053082
:100B50008100252E7908053E8600013087000A3085
:100B6000810741310318810A7908053E860001306A
:100B70008700403FF600413FF700003077020A301F
:100B800003197602031CC52DC62D252E790A860071
:100B900001308700403FF600413FF7000030770208
:100BA000143003197602031CD62DD72DF62D790AA1
:100BB000860001308700403FF600413FF7000130DA
:100BC00077022C30031976020318E72DE82DF62D55
:100BD0007908093E8600013087008101810A790881
:100BE00086000130870003308100252E79088600B9
:100BF0000130870081017908073E860001308700B7
:100C00008101252E79088600013087008101252E7B
:100C100079088600013087000108F600F70177089F
:100C2000003A0319142E252E7608003A0319F52CE4
:100C3000023A0319152D013A0319022E073A031936
:100C40005E2D013A0319AA2D252E0130F6007608F3
:100C5000F80704307802031C2E2E2F2EEC2C0800EF
:100C60002000E4000030EB000030EA000030E90032
:100C70000030E8000030E5000030E6000030E7001A
:100C80005603031D442E452E622E6A30F200983022
:100C9000F3000330F4000030F50065308A31E822BB
:100CA0008631210064082000E8002100650820004A
:100CB000E900210066082000EA0021006708200002
:100CC000EB00092F6A30F2009830F3000330F40093
:100CD0000030F50065308A31E82286312100600855
:100CE0002000E800210061082000E90021006208DE
:100CF0002000EA00210063082000EB00092F2030CB
:100D0000BB009030BC005608DA00DB015A08BD0079
:100D10005B08BE006808DC00DD015C08BF005D0800
:100D2000C0006908DE00DF015E08C1005F08C20084
:100D30006A08E000E1016008C3006108C4006B08B4
:100D4000E200E3016208C5006308C6006530C70021
:100D50005908883134208631142F0030BB00983078
:100D6000BC005608DA00DB015A08BD005B08BE0073
:100D70006808DC00DD015C08BF005D08C000690890
:100D8000DE00DF015E08C1005F08C2006A08E00003
:100D9000E1016008C3006108C4006B08E200E301E0
:100DA0006208C5006308C6006530C700590888316D
:100DB00034208631142F1530BB009830BC00560803
:100DC000DA00DB015A08BD005B08BE006808DC00E1
:100DD000DD015C08BF005D08C0006908DE00DF01BE
:100DE0005E08C1005F08C2006A08E000E101600817
:100DF000C3006108C4006B08E200E3016208C5009B
:100E00006308C6006530C700590888313420863130
:100E1000142F6408013A03197F2E033A0319AD2EEB
:100E2000013A0319DB2E142F08002000E4000030E3
:100E3000EB000030EA000030E9000030E80000304C
:100E4000E5000030E6000030E7005808A100570830
:100E5000A0006830A2008F3111278731200056038F
:100E6000031D332F342F542F210053080319392F1A
:100E70003A2F472FB630F2009830F3000330F400D9
:100E80000030F50065308A31E8228731EB2FB2302F
:100E9000F2009830F3000330F4000030F5006530C4
:100EA0008A31E8228731EB2F6A30F2009830F30064
:100EB0000330F4000030F50065308A31E8228731D4
:100EC000EB2F2030BB009030BC005608DA00DB016D
:100ED0005A08BD005B08BE006808DC00DD015C0844
:100EE000BF005D08C0006908DE00DF015E08C100C8
:100EF0005F08C2006A08E000E1016008C300610801
:100F0000C4006B08E200E3016208C5006308C60084
:100F10006530C7005908883134208731F72F0030F9
:100F2000BB009830BC005608DA00DB015A08BD004F
:100F30005B08BE006808DC00DD015C08BF005D08DE
:100F4000C0006908DE00DF015E08C1005F08C20062
:100F50006A08E000E1016008C3006108C4006B0892
:100F6000E200E3016208C5006308C6006530C700FF
:100F70005908883134208731F72F1530BB0098305D
:100F8000BC005608DA00DB015A08BD005B08BE0051
:100F90006808DC00DD015C08BF005D08C00069086E
:100FA000DE00DF015E08C1005F08C2006A08E000E1
:100FB000E1016008C3006108C4006B08E200E301BE
:100FC0006208C5006308C6006530C700590888314B
:100FD00034208731F72F20006408013A0319612F6C
:100FE000033A03198F2F013A0319BD2FF72F080079
:100FF00022003C1436359531CF2587310330080067
:101000002000111021005008F1004F08F000963127
:10101000B626883121004D084E04031910281128E6
:1010200016284E088A004D080A0088310800200062
:10103000B40021006B082000B30021006A082000E2
:10104000B200210069082000B100210068082000DA
:10105000B0002F08303E8600870101083407803831
:1010600088315220883108002000D5003D30C90069
:101070005508CA00CC01CD01D301D4013C08B5000C
:101080003B08B4004930B6004A309731E427883134
:1010900020004C085507C80048088600013087002A
:1010A000810108002000AE00A9012E08AD00043027
:1010B000AD36890B58282D088931BE218831200092
:1010C000A9012E080F398931BE2188311530200041
:1010D000AD00C630890B6A28AD0B6A2800000800F5
:1010E000F601F701721C752876287A287408F6072D
:1010F0007508F73D0130F435F50D890B7B2801307B
:10110000F336F20C890B802872087304031D8928BA
:101110008A2872287708F3007608F2000800200079
:10112000A700270897313A2788312000A500270813
:10113000013E97313A2788312000A6002508A000FB
:10114000A1012608A200A3012208A300A2012008F1
:101150002204F60021082304F70008002000AE0056
:10116000A901A90A2E08AD000430AD36890BB528B7
:101170002D088931BE2188312000A901A90A2E0835
:101180000F398931BE21883115302000AD00C630BD
:10119000890BC828AD0BC828000008002000A40057
:1011A000A501A50A2200BC18D628D728EC28BC1413
:1011B0002000A50124080319DE28DF28E3282200E7
:1011C000BA01BA0AE62802302200BA009531B125E8
:1011D0008831963172268831200025080800F500F4
:1011E000720873040319F528F62807297535203E7F
:1011F0008600013087007208C03F7308C13F750840
:101200002C3E860001308700740881001629753550
:10121000203E860001308700A430C03F1530C13F1A
:1012200075082C3E86000130870081010800953149
:10123000A825893122003C1C1E291F292A29963104
:1012400006268931003A0319262927292A290F3031
:101250002200BA0022003A082000A200A301A23511
:10126000A30D0030220784001030233D8038850014
:10127000013F8A00003F0A0089312200BA000800BD
:101280002000DA005E292A30BB009830BC005908E3
:1012900088313420893169293B30BB009830BC004B
:1012A000590888313420893169294C30BB00983085
:1012B000BC00590888313420893169295A08013A1B
:1012C00003194329033A03194C29013A03195529F3
:1012D0006929080022003C100230BB0077299531B3
:1012E000E325893193299531E825893193292E0801
:1012F000F9000430203E860001308700413F8A001B
:10130000403F0A0089312000A000A1012108003AD5
:1013100003198B2973292008023A03196F29013A0E
:1013200003196F2973290800F500230095189929DE
:101330009A2995297508F300F4017308910074083F
:101340009200720893003F30F30073089505200067
:1013500003108B1FAC29AD29AE2903148B13230076
:10136000151555309600AA309600951415112000D9
:10137000031CBB29BC29BD298B1708002000AB002A
:101380002B08AA000330AA35FF3E031DC3292A35C6
:101390000838AC0029080319CE29CF29D0292C14EC
:1013A000A6012C080438A70027308A311922893178
:1013B0000B302000AA006230890BDC29AA0BDC2943
:1013C00000002000A6012C08FB39A70027308A3135
:1013D0001922893108002200BC15FB299531E3252B
:1013E0008931182A9531C02589310330182A953161
:1013F000E8258931182A2C08F90021088A002008DC
:101400000A008A312000A000A1012108003A031936
:101410000A2AF7292008013A0319F729033A031980
:10142000EE29013A0319EE29073A0319F229F7299F
:1014300008002000A800200028088A31B2228A3142
:10144000003A0319242A252A1B2AC730F600163031
:10145000F7002730F800963143268A310130F20038
:101460000030F3002630963199268A310030F6009C
:10147000F7000030F800F90096314E268A31963197
:1014800001268A31973165278A31013A0319492AA1
:101490004A2A422A08006E2A2100C301C401BD0164
:1014A000BE01D6017A2A2100C501C601BF01C001D3
:1014B000D7017A2A2100C101C201D8017A2A21006C
:1014C000C301C401BD01BE01D601C501C601BF01F2
:1014D000C001D701C101C201D8017A2A20006D08DC
:1014E000013A03194C2A033A0319532A013A031902
:1014F0005A2A5F2ABB01BC01D50108007208730497
:101500000319832A842AAD2AF701F70A902A0130A9
:10151000F235F30D890B882A0130F6007608F707BB
:10152000F31F932A942A872A73087502031D9A2AA7
:1015300072087402031C9D2A9E2AA22A7208F402D1
:101540007308F53B0130F336F20C890BA32A013006
:10155000F702031DAC2AAD2A942A7508F30074081B
:10156000F2000800F200F301F30A22003C19B92A44
:10157000BA2AE62A7208B600BC103C153C100E30A0
:10158000BA00F430B4000130B500BC15A430A0009E
:101590001530A100AC01A430A2001530A300AD01AC
:1015A000A430A4001530A500AE01A430A60015306B
:1015B000A700AF01A630A8001530A900B0019531F1
:1015C000A8258A3196317F268A31F30173080800F5
:1015D000F9007908F800072B0130F4020030F53BE0
:1015E000780886008701F80A7308F7007208F60089
:1015F000F20A0319F30A76088400770885000008C8
:10160000C03F8908031D052B062B072B162B7408DA
:101610007504031D0C2B0D2BEC2A162B7808860065
:10162000870181010130F6007608F8070130F402E5
:101630000030F53B740A031D212B750A031D212B75
:10164000222B0E2B0800230052080319282B292BCC
:101650003E2BD2012100DC01DC0A2000EC01EC0A67
:10166000FA0122000E1103100E1C03140318392B6B
:101670003C2B22000E143E2B22000E1023006A0881
:101680000319432B442B5D2BEA017A080319492BDC
:101690004B2B01304C2B0030FA002100DC01DC0A1E
:1016A0007A080319542B552B5B2B8A314B228B3133
:1016B00022000E155D2B22000E110800F801F90121
:1016C000720873040319652B662B952BF701F70A33
:1016D000722B0130F235F30D890B6A2B0130F600C5
:1016E0007608F707F31F752B762B692B0130F83539
:1016F000F90D890B772B73087502031D812B720876
:101700007402031C842B852B8A2B7208F402730845
:10171000F53B78140130F336F20C890B8B2B01303A
:10172000F702031D942B952B762B7908F30078088C
:10173000F200080022003708860087019531BD2598
:101740008B31810001302000A00020082200B70763
:101750000130B8020030B93B380839040319B12B05
:10176000B22BB72B9531C7258B310530DE2BBC153D
:10177000C12B9531F7258B31DE2B9531F2258B313D
:10178000DE2B2C08F90021088A0020080A008B3182
:101790002000A000A1012108003A0319D02BBD2B85
:1017A0002008013A0319BD2B033A0319B92B013A5A
:1017B0000319B92B073A0319BD2BBD2B08007A0872
:1017C000031DE32BE42BE72B22000E11252C210017
:1017D00055080319EC2BED2B252CD5015308031DBF
:1017E000F22BF32B0A2C6D083C02031DF92B6C081D
:1017F0003B02031CFC2BFD2B252CC101C201BF01A8
:10180000C001BD01BE0122000E112100D201D30191
:10181000D30A252C20006F0821003C02031D142C44
:1018200020006E0821003B02031C172C182C252CCD
:10183000C101C201BF01C001BD01BE0122000E15E0
:101840002100D201D20AD301252C08007408031903
:101850002A2C2B2C302C7408031D2F2C302C352CCB
:1018600072089531A3258C31762C7408093E8600C8
:1018700087011600010403193E2C3F2C5D2C7408CF
:10188000093E86008701403FF500413FF60074089D
:10189000023E86008701403FF700413FF80078088C
:1018A000803AF9007608803A7902031D592C7508B0
:1018B000770203185C2C5D2C762C74088600870157
:1018C0007408023E8400850100080107F5007508D0
:1018D000860001308700720881007408023E86008D
:1018E00087010130810741310318810A0800F8019E
:1018F000F51F7B2C7C2C832CF409F509F40A0319C1
:10190000F50AF801F80AF31F862C872C8C2CF209B3
:10191000F309F20A0319F30A720873040319912CEC
:10192000922CBB2CF701F70A9E2C0130F235F30DF7
:10193000890B962C0130F6007608F707F31FA12CCF
:10194000A22C952C73087502031DA82C7208740232
:10195000031CAB2CAC2CB02C7208F4027308F53BC2
:101960000130F336F20C890BB12C0130F702031D64
:10197000BA2CBB2CA22C78080319BF2CC02CC52C68
:10198000F409F509F40A0319F50A7508F300740857
:10199000F2000800963106268C31003A0319D12C4A
:1019A000D22C022DDF2C9531D9258C311F2D95316C
:1019B000DE258C311F2D9531E8258C311F2D22001D
:1019C0002F08F9000630203E860001308700413F95
:1019D0008A00403F0A008C312000A000A1012108AC
:1019E000003A0319F42CDB2C2008013A0319DB2CF4
:1019F000033A0319D32C013A0319D72C073A0319D8
:101A0000DB2CDB2C22003C101730203E86000130FE
:101A10008700403F84008501810A00089531CF2569
:101A20008C3101302200B8020030B93B380839044B
:101A3000031D1B2D1C2D1E2D06301F2D03300800ED
:101A4000F7010B30F2007708973125278D31C03E22
:101A500086000130870081010B30F2007708973152
:101A600025278D31C13E8600013087000030C03F00
:101A7000C13F0B30F2007708973125278D31C53EE5
:101A80008600013087000030C03FC13F0B30F200BC
:101A90007708973125278D31C73E860001308700B2
:101AA00081010B30F2007708973125278D31C83E30
:101AB00086000130870081010B30F20077089731F2
:101AC00025278D31C93E86000130870081010B300A
:101AD000F2007708973125278D31CA3E8600013004
:101AE000870081010130F6007608F707043077029D
:101AF000031C7B2D7C2D212D08002000A101F31F4C
:101B0000822D832D8A2DF209F309F20A0319F30AB3
:101B1000A101A10AF51F8D2D8E2D972DF409F50930
:101B2000F40A0319F50A0130F6007608A106A201AD
:101B3000A3017208730403199E2D9F2DCE2DA001C1
:101B4000A00AAB2D0130F235F30D890BA32D013026
:101B5000F6007608A007F31FAE2DAF2DA22D0130A1
:101B6000A235A30D890BB02D73087502031DBA2D84
:101B700072087402031CBD2DBE2DC32D7208F40221
:101B80007308F53B22140130F336F20C890BC42D97
:101B90000130A002031DCD2DCE2DAF2D210803193C
:101BA000D22DD32DD82DA209A309A20A0319A30A65
:101BB0002308F3002208F200080003302000B000E0
:101BC0000830AF007730890BE32DAF0BE32DB00B5E
:101BD000E32D2000A90103308931BE218D3134303D
:101BE0002000AF00F130890BF32DAF0BF32D003245
:101BF0002000A90103308931BE218D31343020000D
:101C0000AF00F130890B022EAF0B022E0032200004
:101C1000A90103308931BE218D3134302000AF005D
:101C2000F130890B112EAF0B112E00322000A901CB
:101C300002308931BE218D310B302000AF0062307F
:101C4000890B202EAF0B202E000028308831522027
:101C50008D310E30883152208D310630883152203E
:101C60008D310130883152208D3115302000AF0088
:101C7000C630890B392EAF0B392E00000800013019
:101C80002100C7070030C83D0130C5070030C63D00
:101C90000130C3070030C43D0130C1070030C23DF0
:101CA000D801D80A033020006D06031D582E592E86
:101CB000602E2100D501D50A4208BC004108BB00B6
:101CC0000030210046020A3003194502031C692E28
:101CD0006A2E802EC501C6010130BF070030C03D0D
:101CE000D701D70A023020006D06031D782E792E09
:101CF000802E2100D501D50A4008BC003F08BB005A
:101D0000003021004402643003194302031C892E71
:101D10008A2E9F2EC301C4010130BD070030BE3D95
:101D2000D601D60A20006D03031D972E982E9F2EF4
:101D30002100D501D50A3E08BC003D08BB008B310F
:101D4000DF238E3108002000B0007808860087016C
:101D50000108A000A1012008A8002108A900780A14
:101D6000860087010108A000A1012008AA0021081F
:101D7000AB007808023E860087010108A000A1019F
:101D80002008AC002108AD007808033E86008701DA
:101D90000108A000A1012008AE002108AF00290819
:101DA000F3002808F200E830F4000330F500883131
:101DB00070208E3172082000A0007308A1002B084B
:101DC000F3002A08F2006430F4000030F500883196
:101DD00070208E31720820002007A2007308213D78
:101DE000A3002D08F3002C08F2000A30F4000030A4
:101DF000F500883170208E31720820002207A4007F
:101E00007308233DA5002E082407A6002F08253DB2
:101E1000A7003008860087012608C03F2708C13F79
:101E20000800E830F2000330F30020002108F5003C
:101E30002008F4008B315E238F3173082000A4004A
:101E40007208A30022088600870123088100240865
:101E5000F3002308F2001830F400FC30F50088315C
:101E600070208F31200020087207A0002108733DE8
:101E7000A1006430F2000030F3002108F5002008D2
:101E8000F4008B315E238F3173082000A4007208A8
:101E9000A300220A86008701230881002408F3009A
:101EA0002308F2009C30F400FF30F50088317020E8
:101EB0008F31200020087207A0002108733DA10087
:101EC0000A30F2000030F3002108F5002008F40089
:101ED0008B315E238F3173082000A4007208A300A9
:101EE0002208023E86008701230881002208033E63
:101EF000860087010A30F2000030F3002108F50067
:101F00002008F4008A317E228F3172088100080097
:101F10002300490803198D2F8E2FAB2FC9012100F3
:101F2000DC01DC0A01302000A5002508ED070430A3
:101F30006D02031C9C2F9D2F9F2FED01ED0A0310B6
:101F400022000E1C03140318A62FA92F22000E1422
:101F5000AB2F22000E10230052080319B02FB12F0F
:101F6000DF2FD2012100DC01DC0A02302000EC006E
:101F70002100D401D40A0330DD006D082000A10047
:101F800021006C082000A000E430A2008F3111274E
:101F90008F3120006F08A1006E08A000E030A20081
:101FA0008F3111278F31031022000E1C03140318E8
:101FB000DA2FDD2F22000E14DF2F22000E10230057
:101FC0005F080319E42FE52FFF2FDF012100DC015B
:101FD000DC0A01302000ED026D08031DF02FF12F07
:101FE000F32F0330ED00031022000E1C031403181E
:101FF000FA2FFD2F22000E14FF2F22000E100800D2
:10200000D434153431341634F8340734CA340C342B
:102010009A340B342A341634EB340934D934153459
:10202000DE341534E3341534E8341534ED34153426
:10203000F2341534F7341534FC3415346A34093469
:102040005434253464343A342534643425346434C7
:1020500025346434253464342E34203453346534C8
:0A2060006334203425347334003457
:102B46000800013008000530080020009111080037
:102B56002400951208002100911108002400161483
:102B66000800240096140800240016150800240006
:102B76009615080024001108080020009115080089
:102B8600240096161616080024009612161608003B
:102B96001630210097000800F20072082400910008
:102BA60008002200BC10BB010E3008009531B42588
:102BB6009531013008009531B42595310230080071
:102BC6009531B4259531013008009531B7259531F9
:102BD600003008009531C72595310530080095313C
:102BE600C32595310A3008009531C3259531093042
:102BF60008002200BC10BB010E30080000308831EE
:102C0600CE20963108002400160E890C890C013955
:102C160008002000911D102E112E0C2E080073089E
:102C26002100CC007208CB00080073082100CE00FA
:102C36007208CD000800640080010131890B1F2E47
:102C46000034003440341434543401340034220047
:102C56003C109531BA2596310430080022003C1408
:102C66000314360D9531CF25963105300800240022
:102C760094010830950096014F3092009512080095
:102C86007708F3007608F2007808F40000308831FF
:102C9600EF20963108007708F3007608F2007808EE
:102CA600F40002308831EF209631080070302100A0
:102CB600990098012200960121001A1F632E642EA6
:102CC6005F2E080021004B084C0403196B2E6C2E56
:102CD600712E4C088A004B080A0096310800792E9E
:102CE60096310C2696318931172196312200BC186F
:102CF6007D2E7E2E732E08002400951A832E842E98
:102D06008B2E94010830950096014F30920095164F
:102D1600080021001508C0391738950064302000D6
:102D260095006430FB000B118B160800F40022009E
:102D3600BC1D9E2E9F2EA62E7408B7007308B900E0
:102D46007208B800BC11080022000E112100D20141
:102D5600D30103302000ED00EC012100D401D40A98
:102D6600DC01DC0A08002000181DBA2EBB2EC22E7C
:102D7600181071089700700896001814C62E71086E
:102D860097007008960008000130F2000030F3004A
:102D960079089631992696310030F600F700F80149
:102DA600963143269631043008002000A11BDC2E04
:102DB600DD2EDE2EE92E2009A2002109A300A20A9B
:102DC6000319A30A2208A0002308A1000800200076
:102DD600990163309700C030960011101708210042
:102DE600D000200016082100CF0011141130200059
:102DF6009800080096313A2696319731C9279631C0
:102E06009631592696319531CB2596319631EA265B
:102E1600963196318C26963108000130F000700804
:102E26002100DA07DF01DF0A0130F0007008D90758
:102E360064305902031C202F212F242FD901DE01D3
:102E4600DE0A0800F500F401751C2A2F2B2F2F2F00
:102E56007208F3007308F4070310F20D0310F50C63
:102E66007508031D372F382F272F74080800F50023
:102E7600640023009518402F412F3B2F7508F20060
:102E8600F30172089100730892003F30F400740851
:102E96009505151413080800F9007608F20079085C
:102EA6008931942197317708F2007908013E8931FA
:102EB600942197313430F800F230890B602FF80BEB
:102EC600602F0800F201F20A2200BC186B2F6C2F4B
:102ED6007B2F3C11FF30B6009531A82597319531EF
:102EE600AE2597319531AB25973122003B08F2008C
:102EF600720808000B117B082000950001302100A4
:102F0600C9070030CA3D00304A020230031949029F
:102F1600031C8E2F8F2F952F963165269731210012
:102F2600C901CA010800003097313A2797312000BD
:102F3600ED00023088318F20973177082100ED00AF
:102F46007608EC00043088318F209731770820000E
:102F5600EF007608EE0008002000B000BF2F300812
:102F660086000130870001088831AE209731013094
:102F76002000AF002F08B007300886000130870018
:102F86000108031DC72FC82FB22F08002200900189
:102F96008C018D018E01083021009000FF308C00DD
:102FA600FF308D00F8308E0023008D013F308C00FD
:102FB600240090013F308D002100951322009D01D1
:102FC60008002000B8003508BA003408B900F32F0D
:102FD6003930A4003608A50038088231012297311D
:102FE6002000390884003A0885001200031DFC2FD2
:102FF600FD2FEB2FB401B501080054342534643499
:103006003A342534643425346434253464342E3417
:103016002534643420345334653463342034253401
:10302600733400345434253464343A3425346434E7
:10303600253464342E342534643425346434203401
:1030460053346534633420342534733400345534B2
:103056006E34693474343A3431342E343034303486
:10306600203453346534633420342034203400341F
:1030760055346E34693474343A3430342E34313441
:1030860030342034533465346334203420342034CF
:10309600003455346E34693474343A3430342E3452
:1030A600303431342034533465346334203420349E
:1030B60020340034563465347234733469346F34D2
:1030C6006E343A34203430342E34363430342034AE
:1030D60020342034003445346434693474343A344A
:1030E600453445342034593469346D3469346E348A
:1030F6006734203420340034573465346C346334F8
:103106006F346D346534203474346F3420344C3469
:10311600463441342E34203400344C3461346D341A
:103126007034203474346534733474342034743415
:103136006F346F346C342E34203400344634753496
:103146006E346334743469346F346E345334653496
:10315600743420344D346F346434653400344F3461
:0E31660046344634003420344F344E340034A6
:020000040001F9
:04000E00E43FFF1FAD
:10E00000030000002300000023000000FF00FF00C9
:10E01000FF00FF00FF00FF00FF00FF00FF00FF0008
:00000001FF
