:020000040000FA
:1000000080312628013400347E1480318B1E09286B
:100010000A2812280B1D0D280E28122897310627B2
:10002000803124280B1F1528162824282100111C94
:100030001A281B2824282000111C1F2820282428C7
:100040009631D726803124287E1009008031282857
:10005000803102208031E900803103208031EA00C4
:10006000B03084009530850021001200E7001200B6
:10007000E8001200E9001200EA001200EB00120092
:10008000EC00FA01FB012000E601E701E801A030E5
:1000900084000030850047309531AA25803120301A
:1000A00084000130850032309531AA258031A0309E
:1000B0008400013085004C309531AA2580317E10B6
:1000C00020008431C72C2000AF002408860087015F
:1000D000403FA600413FA70026088400270885006E
:1000E0001200253A031D75287628CC29240886009D
:1000F00087010130810741310318810A2100B201D3
:10010000B3010310003003180130CE00FF30B400FB
:10011000FF30B5002000240886008701403FAC0076
:10012000413FAD002C0884002D0885001200643A80
:1001300003199B289C28A6282C0884002D088500DC
:100140001200693A031DA528A62832292508860031
:10015000870101088400850102308107003FB0005B
:10016000013FB1002C08013EA60000302D3DA70044
:100170002408860087012608C03F2708C13F203099
:10018000B400B11BC428C6280130C7280030AE0017
:100190000130B4023408A03E8600013087000A30E6
:1001A000F2000030F3003108F5003008F4008B3124
:1001B000EA23803173082000A1007208A000963164
:1001C0005D26803120002008303E81000A30F20098
:1001D0000030F3003108F5003008F4008C31F024D1
:1001E000803173082000B1007208B000300831047B
:1001F0000319FB28FC2801293408031D00290129C3
:10020000C82834080319052906292B292E080319A3
:100210000A290B292B290130B4023408A03E86009C
:10022000013087002D3081002B293408A03E860044
:10023000013087000108A600A7012608F200270860
:10024000F3002F08F4008B31992380310130200016
:10025000A6002608B40720303406031D30293129B2
:100260001529E429AE01240886008701403FA60035
:10027000413FA70026088400270885001200733A32
:10028000031D432944294F29240886008701013092
:10029000810741310318810AAE01AE0A9129240871
:1002A00086008701403FA600413FA7002608840042
:1002B0002708850012006C3A031D5F2960299129E7
:1002C000240886008701403FA600413FA700013077
:1002D0002607840027080318270A850012006C3AB5
:1002E000031D732974299129240886008701403F42
:1002F000A600413FA7000230260784002708031804
:10030000270A85001200733A031D8729882991293D
:100310002408860087010330810741310318810AD0
:100320004C292E08031995299629C22925088600EB
:10033000870101088400850102308107003FAA007F
:10034000013FAB00B8292A0886002B088700010866
:10035000A600A7012608F2002708F3002F08F400E2
:100360008B319923803101302000AA070030AB3D4A
:100370002A0886002B0887000108031DC029C1290F
:10038000A329E42920002408860087010130810781
:1003900041310318810AE429240886008701403F7F
:1003A000A600413FA7002608840027088500000812
:1003B000A800A9012808F2002908F3002F08F4007A
:1003C0008B3199238031C2290800F8010B30F200EB
:1003D0007808963197268131C03EF9003B2B790889
:1003E000053E8600013087000030C03FC13F7908DC
:1003F000033E8600013087000030C03FC13F790ACC
:100400008600013087000030C03FC13F79080A3EB6
:100410008600013087000103031D0F2A102A5B2B81
:1004200079088600013087008101810A5B2B7908F9
:100430000A3E8600013087000103031D202A212A7D
:10044000422A790A8600013087000A30810741314B
:100450000318810A790A860001308700403FF600C0
:10046000413FF700003077020A3003197602031C7F
:100470003A2A3B2A5B2B790886000130870002303C
:1004800081005B2B790886000130870081015B2B9E
:1004900079080A3E8600013087000103031D512AB6
:1004A000522A822A790A8600013087000A308107A1
:1004B00041310318810A790A860001308700403FE4
:1004C000F600413FF70001307702903003197602C1
:1004D000031C6B2A6C2A5B2B7908073E86000130CF
:1004E00087008101810A7908033E86000130870078
:1004F0000030C03FC13F79088600013087000430DA
:1005000081005B2B7908053E8600013087000030B2
:10051000C03FC13F79088600013087000530810067
:100520005B2B79080A3E8600013087000103031D1A
:100530009A2A9B2AC72A7908033E86000130870041
:100540000A30810741310318810A7908033E860089
:1005500001308700403FF600413FF700003077024E
:10056000283003197602031CB62AB72A5B2B7908B8
:10057000033E8600013087000030C03FC13F79084C
:10058000083E8600013087008101810A5B2B790AD1
:100590008600013087000030C03FC13F7908053E2A
:1005A0008600013087000030C03FC13F79088600D7
:1005B00001308700053081005B2B7908053E8600FD
:1005C000013087000A30810741310318810A790818
:1005D000053E860001308700403FF600413FF700AE
:1005E000003077020A3003197602031CF82AF92A30
:1005F0005B2B790A860001308700403FF600413FBF
:10060000F700003077020A3003197602031C092B29
:100610000A2B292B790A860001308700403FF6001B
:10062000413FF7000130770290300319760203183A
:100630001A2B1B2B292B7908093E860001308700D5
:100640008101810A7908860001308700033081002A
:100650005B2B790886000130870081017908073E0D
:1006600086000130870081015B2B7908860001300C
:10067000870081015B2B7908860001308700010823
:10068000F600F7017708003A0319472B5B2B760831
:10069000003A0319EF29013A0319172A033A0319FB
:1006A000482A013A0319352B073A0319912A013ACE
:1006B0000319DD2A5B2B0130F6007608F8070430B9
:1006C0007802031C642B652BE6290800E03020002B
:1006D000B200F52BE0302000B20003302100D90039
:1006E000102CE1302000B20004302100D900102C81
:1006F000E2302000B2006703031D7F2B802B842B88
:1007000005302100D900102C02306706031D892B0B
:100710008A2B8B2B802B03306706031D902B912B8C
:10072000952B06302100D900102C102CE33020002E
:10073000B2006703031D9D2B9E2B9F2B912B023034
:100740006706031DA42BA52BA92B07302100D90078
:10075000102C03306706031DAE2BAF2B102CA52BDE
:10076000DC302000B20043302100D900102CDD30F5
:100770002000B20044302100D900102CDE302000CF
:10078000B2006703031DC52BC62BCA2B45302100C1
:10079000D900102C02306706031DCF2BD02BD12B94
:1007A000C62B03306706031DD62BD72B102C4630E3
:1007B0002100D900102CDF302000B2006703031D98
:1007C000E22BE32BE42BD72B02306706031DE92B2A
:1007D000EA2BEE2B47302100D900102C033067069E
:1007E000031DF32BF42B102CEA2B21005108013AA6
:1007F00003196A2B033A0319712B013A0319782B59
:10080000073A0319962B013A0319B02B033A03193F
:10081000B72B013A0319BE2B0F3A0319DB2B102C0F
:10082000230049080319152C162C3B2CC901210063
:10083000D801D80A01302000B100320886008701B3
:10084000310881073208860087010A300102031C43
:100850002A2C2B2C2F2C32088600870181010310B3
:1008600022000E1C03140318362C392C22000E14FF
:100870003B2C22000E10230054080319402C412C5D
:100880005F2CD4012100D801D80A01302000B1002A
:1008900031082100D10709305102031C502C512C82
:1008A000532CD101D10A031022000E1C031403188B
:1008B0005A2C5D2C22000E145F2C22000E102300F7
:1008C0005F080319642C652C892CDF012100D801F5
:1008D000D80A20003208860087010108031D712C08
:1008E000722C782C320886008701093081007D2C1B
:1008F00032088600870101308102031022000E1C9D
:1009000003140318842C872C22000E14892C220037
:100910000E102300520803198E2C8F2CC62CD201E6
:100920002100D801D80A031022000E1C031403185A
:100930009A2C9D2C22000E149F2C22000E102000B9
:10094000E601E030F800EB3087318F278331DC306F
:10095000F800693087318F27833120006708F20063
:10096000003089313721833121006C08F7006B0892
:10097000F60002309631C126833120006A08F70064
:100980006908F60004309631C126833108008831A9
:10099000002084318230F2001630F30095319E251C
:1009A0008431B230F2000D30F3009531A42584314A
:1009B0008B170B179731E227843197311F2784312A
:1009C0008C31932484318D315025843121005B0892
:1009D0000319EB2CEC2C142DDB01031020000D1C53
:1009E00003140030031801302300CA000310200054
:1009F0008D1C03140030031801302300D5000310B0
:100A000020000D1D03140030031801302300E00006
:100A1000031020008D1D0314003003180130230043
:100A2000EB008131E521843121005A08031D192D85
:100A30001A2D1F2D580803191E2D1F2DE62DDA0122
:100A4000D801200068080319262D272D302D7A089B
:100A500003192B2D2D2D01302E2D0030FA00CE2D17
:100A6000FA01CE2DAF010030973189278431200063
:100A7000D801D80A21006C082000DA0021006B0898
:100A80002000D9004130DB0067088E31FA2684311E
:100A900041309731382784312000AF01AF0A003050
:100AA00097318927843102302000D8006A08DA00A3
:100AB0006908D9004130DB0067088E31FA2684319D
:100AC0004130973138278431E62DAF01003097311E
:100AD000892784315D302000BC009830BD00413052
:100AE0009731A6278431413097313827843120004F
:100AF000AF01AF0A003097318927843102302000DE
:100B0000D8006A08DA006908D9004130DB006708BC
:100B10008831E32084314130973138278431E62D04
:100B2000AF0100309731892784312000D801D80ADD
:100B300021006C082000DA0021006B082000D90099
:100B40004130DB0067088531F4258431413097312D
:100B5000382784312000AF01AF0A00309731892750
:100B6000843102302000D8006A08DA006908D90010
:100B70004130DB0067088531F425843141309731FD
:100B8000382784312000AF01210059089731892787
:100B900084310E309731C4278431E62D6608003A3F
:100BA0000319322D013A0319652D033A0319902DCB
:100BB000D92DE62D8E3116268431E62C8E318026F5
:100BC0008431E62C833166238431E62C20006608CC
:100BD000003A0319DA2D013A0319DE2D033A0319FD
:100BE000E22DE62C803126282200D2000030D900E8
:100BF0000030D8000030D7000030D6000030D300DD
:100C00000030D4000030D50020005803031D092E09
:100C10000A2E2A2E5330F2000130F3003730F40050
:100C20009830F5000330F6000030F7008A31C72213
:100C30008531210060082200D600210061082200D1
:100C4000D700210062082200D8002100630822009A
:100C5000D900F52E5330F2000130F3003730F400A4
:100C60009830F5000330F6000030F7008A31C722D3
:100C7000853121005C082200D60021005D08220099
:100C8000D70021005E082200D80021005F08220062
:100C9000D900F52E20302000BC009030BD0058084F
:100CA000DC00DD015C08BE005D08BF0022005608C4
:100CB0002000DE00DF015E08C0005F08C1002200E6
:100CC00057082000E000E1016008C2006108C3008D
:100CD000220058082000E200E3016208C400630813
:100CE000C500220059082000E400E5016408C600A0
:100CF0006508C7005330C8000130C9005B08973150
:100D0000A6278531002F00302000BC009830BD00A0
:100D10005808DC00DD015C08BE005D08BF00220051
:100D200056082000DE00DF015E08C0005F08C10039
:100D3000220057082000E000E1016008C2006108BD
:100D4000C300220058082000E200E3016208C4004A
:100D50006308C500220059082000E400E50164088A
:100D6000C6006508C7005330C8000130C9005B08E1
:100D70009731A6278531002F15302000BC00983010
:100D8000BD005808DC00DD015C08BE005D08BF0046
:100D9000220056082000DE00DF015E08C0005F0868
:100DA000C100220057082000E000E1016008C200F5
:100DB0006108C300220058082000E200E301620835
:100DC000C4006308C500220059082000E400E501C2
:100DD0006408C6006508C7005330C8000130C90068
:100DE0005B089731A6278531002F5208013A031975
:100DF0004A2E033A0319832E013A0319BC2E002F01
:100E00000800E830F2000330F30020002108F5006C
:100E10002008F4008A318B22873173082000A80053
:100E20007208A7002208860023088700270881008F
:100E30002808F3002708F2001830F400FC30F50011
:100E4000883113208731200020087207A000210874
:100E5000733DA1006430F2000030F3002108F5007A
:100E60002008F4008A318B22873173082000A80003
:100E70007208A7002208013EA4000030233DA5000F
:100E80002408860025088700270881002808F30029
:100E90002708F2009C30F400FF30F5008831132061
:100EA0008731200020087207A0002108733DA100AF
:100EB0000A30F2000030F3002108F5002008F400A9
:100EC0008A318B22873173082000A8007208A7009E
:100ED0002208023EA4000030233DA500240886001D
:100EE00025088700270881000A30F2000030F3004F
:100EF0002108F5002008F4008A3121228731720888
:100F00002000A4002208033EA5000030233DA600D7
:100F10002508860026088700240881000800200094
:100F2000B0007808860087010108A000A101200810
:100F3000A8002108A900780A860087010108A000FE
:100F4000A1012008AA002108AB007808023E860013
:100F500087010108A000A1012008AC002108AD0014
:100F60007808033E860087010108A000A10120083F
:100F7000AE002108AF002908F3002808F200E8308D
:100F8000F4000330F5008831132087317208200007
:100F9000A0007308A1002B08F3002A08F2006430B7
:100FA000F4000030F50088311320873172082000EA
:100FB0002007A2007308213DA3002D08F3002C0890
:100FC000F2000A30F4000030F50088311320873138
:100FD000720820002207A4007308233DA5002E08F4
:100FE0002407A6002F08253DA700300886008701AA
:100FF0002608C03F2708C13F0800200091150800BF
:101000009531CE2588319731522788319531ED259C
:10101000883195315725883196316F268831963140
:10102000202688310800F601F701721C18281928BB
:101030001D287408F6077508F73D0130F435F50DE5
:10104000890B1E280130F336F20C890B2328720815
:101050007304031D2C282D2815287708F300760823
:10106000F20008002000A70027089631AC2688313E
:101070002000A5002708013E9631AC2688312000CB
:10108000A6002508A000A1012608A200A3012208AD
:10109000A300A20120082204F60021082304F7007F
:1010A00008002000AE00A901A90A2E08AD000430F6
:1010B000AD36890B58282D088931612188312000EF
:1010C000A901A90A2E080F3989316121883115300B
:1010D0002000AD00C630890B6B28AD0B6B280000DB
:1010E00008002000A400A501A50A2200BC18792848
:1010F0007A288F28BC142000A50124080319812810
:10110000822886282200BA01BA0A892802302200E1
:10111000BA00953140258831963106268831200065
:1011200025080800F5007208730403199828992807
:10113000AA287535203E8600013087007208C03F1E
:101140007308C13F75082C3E860001308700740883
:101150008100B9287535203E860001308700333084
:10116000C03F1530C13F75082C3E86000130870016
:101170008101080095313725883122003C1CC128A7
:10118000C228CD28953192258831003A0319C92803
:10119000CA28CD280F302200BA0022003A082000C9
:1011A000A200A301A235A30D003022078400103055
:1011B000233D80388500013F8A00003F0A008831C6
:1011C0002200BA0008002000DC0001292A30BC00FF
:1011D0009830BD005B089731A62788310C293B3039
:1011E000BC009830BD005B089731A62788310C29D8
:1011F0004C30BC009830BD005B089731A627883181
:101200000C295C08013A0319E628033A0319EF2870
:10121000013A0319F8280C29080022003C1002307A
:10122000BB001A2995316F258931362995317425EE
:10123000893136292E08F9000430203E860001301D
:101240008700413F8A00403F0A0089312000A0000A
:10125000A1012108003A03192E2916292008023A73
:1012600003191229013A0319122916290800F50059
:10127000230095183C293D2938297508F300F4010D
:101280007308910074089200720893003F30F300D5
:1012900073089505200003108B1F4F2950295129F1
:1012A00003148B132300151555309600AA309600B1
:1012B000951415112000031C5E295F2960298B17E6
:1012C00008002000AB002B08AA000330AA35FF3E1F
:1012D000031D66292A350838AC002908031971292D
:1012E000722973292C14A6012C080438A700273072
:1012F0008931BC2189310B302000AA006230890B72
:101300007F29AA0B7F2900002000A6012C08FB39A9
:10131000A70027308931BC21893108002200BC1583
:101320009E2995316F258931BB298731FD27893168
:101330000330BB29953174258931BB292C08F9006C
:1013400021088A0020080A0089312000A000A1019C
:101350002108003A0319AD299A292008013A0319F6
:101360009A29033A03199129013A03199129073A55
:10137000031995299A2908002000A80020002808B0
:101380008A3155228931003A0319C729C829BE2953
:101390004C30F6001630F7002730F8009531D7258D
:1013A00089310130F2000030F300263096312D26CD
:1013B00089310030F600F7000030F800F90095316F
:1013C000E225893195318D2589319631EE26893195
:1013D000013A0319EC29ED29E5290800112A210019
:1013E000C001C101BA01BB01D3011D2A2100C20104
:1013F000C301BC01BD01D4011D2A2100BE01BF01F2
:10140000D5011D2A2100C001C101BA01BB01D301D0
:10141000C201C301BC01BD01D401BE01BF01D501A0
:101420001D2A20006708013A0319EF29033A03191E
:10143000F629013A0319FD29022AB801B901D2019E
:101440000800720873040319262A272A502AF70174
:10145000F70A332A0130F235F30D890B2B2A0130BC
:10146000F6007608F707F31F362A372A2A2A730868
:101470007502031D3D2A72087402031C402A412A8A
:10148000452A7208F4027308F53B0130F336F20C7A
:10149000890B462A0130F702031D4F2A502A372AAA
:1014A0007508F3007408F2000800F200F301F30A73
:1014B00022003C195C2A5D2A892A7208B600BC10F9
:1014C0003C153C100E30BA00F430B4000130B500C9
:1014D000BC153330A0001530A100AC013330A200A0
:1014E0001530A300AD013330A4001530A500AE01C6
:1014F0003330A6001530A700AF013530A8001530F5
:10150000A900B001953137258A31963113268A31E9
:10151000F30173080800F801F90172087304031954
:10152000922A932AC22AF701F70A9F2A0130F2353C
:10153000F30D890B972A0130F6007608F707F31FA1
:10154000A22AA32A962A0130F835F90D890BA42A7C
:1015500073087502031DAE2A72087402031CB12AB7
:10156000B22AB72A7208F4027308F53B78140130E6
:10157000F336F20C890BB82A0130F702031DC12A99
:10158000C22AA32A7908F3007808F2000800730839
:10159000F9007208F800EF2A0130F6020030F73B3C
:1015A00079082000A1007808A000F80A0319F90AB8
:1015B00020088600210887007508A3007408A2008F
:1015C000F40A0319F50A220884002308850000089C
:1015D000C03F8908031DED2AEE2AEF2AFF2A76086C
:1015E0007704031DF42AF52ACC2AFF2A78088600FE
:1015F0007908870081010130F8070030F93D01309A
:10160000F6020030F73B760A031D0A2B770A031D0A
:101610000A2B0B2BF62A08002200370886008701C8
:1016200095314C258B31810001302000A00020082D
:101630002200B7070130B8020030B93B380839043E
:101640000319232B242B292B953153258B3105305E
:10165000502BBC15332B953183258B31502B953175
:101660007E258B31502B2C08F90021088A00200898
:101670000A008B312000A000A1012108003A0319C3
:10168000422B2F2B2008013A03192F2B033A031961
:101690002B2B013A03192B2B073A03192F2B2F2B36
:1016A000080020006808031D562B572B5A2B2200D8
:1016B0000E11982B2100520803195F2B602B982BD9
:1016C000D2015008031D652B662B7D2B6C08390257
:1016D000031D6C2B6B083802031C6F2B702B982B8F
:1016E000BE01BF01BC01BD01BA01BB0122000E1148
:1016F0002100CF01D001D00A982B20006A082100D8
:101700003902031D872B2000690821003802031CC1
:101710008A2B8B2B982BBE01BF01BC01BD01BA01E6
:10172000BB0122000E152100CF01CF0AD001982B5A
:101730000800740803199D2B9E2BA32B7408031D0E
:10174000A22BA32BA82B7208953132258B31E92BC4
:101750007408093E86008701160001040319B12BA5
:10176000B22BD02B7408093E86008701403FF5005C
:10177000413FF6007408023E86008701403FF700B3
:10178000413FF8007808803AF9007608803A7902FB
:10179000031DCC2B750877020318CF2BD02BE92B18
:1017A0007408860087017408023E840085010008E1
:1017B0000107F50075088600013087007208810076
:1017C0007408023E86008701013081074131031809
:1017D000810A0800F801F51FEE2BEF2BF62BF40918
:1017E000F509F40A0319F50AF801F80AF31FF92BB1
:1017F000FA2BFF2BF209F309F20A0319F30A720814
:1018000073040319042C052C2E2CF701F70A112C54
:101810000130F235F30D890B092C0130F600760802
:10182000F707F31F142C152C082C73087502031DE1
:101830001B2C72087402031C1E2C1F2C232C7208F4
:10184000F4027308F53B0130F336F20C890B242CBB
:101850000130F702031D2D2C2E2C152C78080319AE
:10186000322C332C382CF409F509F40A0319F50A43
:101870007508F3007408F2000800953192258C3148
:10188000003A0319442C452C752C522C95316525B2
:101890008C31922C95316A258C31922C953174259E
:1018A0008C31922C22002F08F9000630203E860051
:1018B00001308700413F8A00403F0A008C31200000
:1018C000A000A1012108003A0319672C4E2C200822
:1018D000013A03194E2C033A0319462C013A031915
:1018E0004A2C073A03194E2C4E2C22003C1017307C
:1018F000203E860001308700403F84008501810A38
:10190000000895315B258C3101302200B80200308F
:10191000B93B38083904031D8E2C8F2C912C0630CE
:10192000922C03300800F7010B30F2007708963153
:1019300097268C31C03E86000130870081010B3034
:10194000F2007708963197268C31C13E860001302F
:1019500087000030C03FC13F0B30F200770896315E
:1019600097268C31C53E8600013087000030C03F8D
:10197000C13F0B30F2007708963197268C31C73E75
:1019800086000130870081010B30F2007708963124
:1019900097268C31C83E86000130870081010B30CC
:1019A000F2007708963197268C31C93E86000130C7
:1019B000870081010B30F2007708963197268C3131
:1019C000CA3E86000130870081010130F6007608AA
:1019D000F70704307702031CEE2CEF2C942C080040
:1019E0002000A101F31FF52CF62CFD2CF209F309C0
:1019F000F20A0319F30AA101A10AF51F002D012D16
:101A00000A2DF409F509F40A0319F50A0130F60064
:101A10007608A106A201A301720873040319112D0F
:101A2000122D412DA001A00A1E2D0130F235F30D1B
:101A3000890B162D0130F6007608A007F31F212D23
:101A4000222D152D0130A235A30D890B232D7308EE
:101A50007502031D2D2D72087402031C302D312DCB
:101A6000362D7208F4027308F53B22140130F33668
:101A7000F20C890B372D0130A002031D402D412DA2
:101A8000222D21080319452D462D4B2DA209A3090E
:101A9000A20A0319A30A2308F3002208F20008008F
:101AA00003302000B0000830AF007730890B562D8E
:101AB000AF0B562DB00B562D2000A90103308931F4
:101AC00061218D3134302000AF00F130890B662D5B
:101AD000AF0B662D00322000A9010330893161214E
:101AE0008D3134302000AF00F130890B752DAF0BF4
:101AF000752D00322000A9010330893161218D311B
:101B000034302000AF00F130890B842DAF0B842DD1
:101B100000322000A9010230893161218D310B3062
:101B20002000AF006230890B932DAF0B932D000086
:101B300028309731C4278D310E309731C4278D312D
:101B400006309731C4278D3101309731C4278D314C
:101B500015302000AF00C630890BAC2DAF0BAC2D7B
:101B60000000080001302100C4070030C53D0130ED
:101B7000C2070030C33D0130C0070030C13D013015
:101B8000BE070030BF3DD501D50A033020006706EF
:101B9000031DCB2DCC2DD32D2100D201D20A3F081D
:101BA000B9003E08B8000030210043020A30031992
:101BB0004202031CDC2DDD2DF32DC201C3010130D7
:101BC000BC070030BD3DD401D40A023020006706B6
:101BD000031DEB2DEC2DF32D2100D201D20A3D087F
:101BE000B9003C08B80000302100410264300319FC
:101BF0004002031CFC2DFD2D122EC001C10101303D
:101C0000BA070030BB3DD301D30A20006703031D90
:101C10000A2E0B2E122E2100D201D20A3B08B90047
:101C20003A08B8008B3151238D3108002300520847
:101C300003191B2E1C2E402ED2012100D801D80AD8
:101C40002000E601E60AE801E430F2000030F3008B
:101C50006E30F4009830F5000330F6000030F700E5
:101C60008A31C7228E3122000E1103100E1C03147C
:101C700003183B2E3E2E22000E14402E22000E1082
:101C800023006A080319452E462E7F2EEA01200004
:101C9000680803194C2E4E2E01304F2E0030E800FC
:101CA0002100D801D80A200068080319582E592E9F
:101CB0006E2E8931EE218E31E430F2000030F300D7
:101CC0007230F4009830F5000330F6000030F70071
:101CD0008A31C7228E3122000E157F2E22000E116E
:101CE000E430F2000030F3006E30F4009830F5007C
:101CF0000330F6000030F7008A31C7228E31080029
:101D0000230049080319852E862EA32EC901210020
:101D1000D801D80A01302000A9002908E7070430BB
:101D20006702031C942E952E972EE701E70A0310F5
:101D300022000E1C031403189E2EA12E22000E1446
:101D4000A32E22000E10230052080319A82EA92E3C
:101D5000D92ED2012100D801D80A02302000E60095
:101D60002100D101D10A6C082000A10021006B08DC
:101D70002000A000E030A2000030A300873101273E
:101D80008E3120006A08A1006908A000DC30A200A2
:101D90000030A300873101278E31031022000E1C72
:101DA00003140318D42ED72E22000E14D92E22008D
:101DB0000E1023005F080319DE2EDF2EF92EDF013F
:101DC0002100D801D80A01302000E7026708031D6E
:101DD000EA2EEB2EED2E0330E700031022000E1C3E
:101DE00003140318F42EF72E22000E14F92E2200ED
:101DF0000E1008002200D2000030D9000030D800B8
:101E00000030D7000030D6000030D3000030D400BE
:101E10000030D50020005A08A1005908A000563013
:101E2000A2000130A300873101278E312000580322
:101E3000031D1B2F1C2F2C2F5330F2000130F300F9
:101E4000E430F4000030F5000330F6000030F70015
:101E50008A31C7228E31F32F21004F080319312F09
:101E6000322F382F20302200D3002D30D4003D2FC8
:101E70005F302200D3002030D4007A080319412FAC
:101E8000422F452FFF30D500F32F2030D500F32F00
:101E900020302000BC009030BD005808DC00DD017F
:101EA0005C08BE005D08BF00220056082000DE006E
:101EB000DF015E08C0005F08C10022005708200053
:101EC000E000E1016008C2006108C3002200580878
:101ED0002000E200E3016208C4006308C50022009C
:101EE00059082000E400E5016408C6006508C70041
:101EF0005330C8000130C9005B089731A6278E31E6
:101F0000FF2F00302000BC009830BD005808DC00D6
:101F1000DD015C08BE005D08BF00220056082000FD
:101F2000DE00DF015E08C0005F08C1002200570824
:101F30002000E000E1016008C2006108C300220047
:101F400058082000E200E3016208C4006308C500ED
:101F5000220059082000E400E5016408C600650875
:101F6000C7005330C8000130C9005B089731A6276D
:101F70008E31FF2F15302000BC009830BD0058086E
:101F8000DC00DD015C08BE005D08BF0022005608D1
:101F90002000DE00DF015E08C0005F08C1002200F3
:101FA00057082000E000E1016008C2006108C3009A
:101FB000220058082000E200E3016208C400630820
:101FC000C500220059082000E400E5016408C600AD
:101FD0006508C7005330C8000130C9005B0897315D
:101FE000A6278E31FF2F22005208013A0319482FED
:101FF000033A0319812F013A0319BA2FFF2F080062
:1020000060341534C5341534BD3415343D340C34C6
:102010000C340B34B63415348E340934653415342D
:102020006A3415346F3415347434153479341534F6
:102030007E34153483341534883415340D34093422
:102040005434253464343A342534643425346434C7
:1020500025346434253464342E34203453346534C8
:0A2060006334203425347334003457
:102A6400080001300800053008002000911108001A
:102A74002400951208002100911108002400161466
:102A840008002400961408002400161508002400E9
:102A9400961508002400110808002400961616163E
:102AA400080024009612161608001630210097001C
:102AB4000800F20072082400910008002200BC10F3
:102AC400BB010E30080095314325953101300800D3
:102AD40095314325953102300800953143259531D0
:102AE40001300800953146259531003008009531B4
:102AF400532595310530080095314F2595310A301D
:102B0400080095314F259531093008002200BC108A
:102B1400BB010E3008000030883171209531080067
:102B24002400160E890C890C013908002000911D1F
:102B34009C2D9D2D982D080073082100C900720852
:102B4400C800080073082100CB007208CA000800FE
:102B5400640080010131890BAB2D00340034403412
:102B6400143454340134003422003C109531492586
:102B740095310430080022003C14363595315B252C
:102B840095310330080022003C140314360D9531AE
:102B94005B25953105300800240094010830950028
:102BA40096014F309200951208007708F3007608DA
:102BB400F2007808F4000030883192209531080042
:102BC4007708F3007608F2007808F40002308831C0
:102BD400922095310800703021009900980122005C
:102BE400960121001A1FF72DF82DF32D080021005E
:102BF400480849040319FF2D002E052E49088A00B0
:102C040048080A00963108000D2E95319825963112
:102C14008831BA2096312200BC18112E122E072EAC
:102C240008002400951A172E182E1F2E9401083020
:102C3400950096014F309200951608002100150862
:102C4400C039173895006430200095006430FB00CB
:102C54000B118B160800F4002200BC1D322E332EFB
:102C64003A2E7408B7007308B9007208B800BC1192
:102C740008002000181D3F2E402E472E1810710802
:102C840097007008960018144B2E7108970070086E
:102C9400960008000130F2000030F3007908963104
:102CA4002D2696310030F600F700F8019531D7252E
:102CB4009631043008002000A11B612E622E632E81
:102CC4006E2E2009A2002109A300A20A0319A30A57
:102CD4002208A0002308A100080020009901633005
:102CE4009700C0309600111017082100CD00200075
:102CF40016082100CC00111411302000980008009F
:102D04000130F00070082100D707DB01DB0A013035
:102D1400F0007008D60732305602031C922E932E10
:102D2400962ED601DA01DA0A0800F500F401751CC2
:102D34009C2E9D2EA12E7208F3007308F407031035
:102D4400F20D0310F50C7508031DA92EAA2E992E59
:102D540074080800F500640023009518B22EB32E01
:102D6400AD2E7508F200F301720891007308920009
:102D74003F30F40074089505151413080800F90091
:102D84007608F20079088931372196317708F20004
:102D94007908013E8931372196313430F800F23018
:102DA400890BD22EF80BD22E08002000111021001E
:102DB4004D08F1004C08F00096313B269631210075
:102DC4004A084B040319E72EE82EED2E4B088A001F
:102DD4004A080A0096310800F201F20A2200BC18DF
:102DE400F42EF52E042F3C11FF30B6009531372513
:102DF400963195313D25963195313A25963122000B
:102E04003B08F200720808000B117B0820009500B3
:102E140001302100C6070030C73D003047020230B0
:102E240003194602031C172F182F1E2F9531F9255D
:102E340097312100C601C701080000309631AC2645
:102E440097312000E700023088313220973177082B
:102E54002100EC007608EB000430883132209731F1
:102E640077082000EA007608E90008002000B00096
:102E7400482F30088600013087000108883151202E
:102E8400973101302000AF002F08B00730088600CA
:102E9400013087000108031D502F512F3B2F0800DC
:102EA400220090018C018D018E01083021009000D8
:102EB400FF308C00FF308D00F8308E0023008D0130
:102EC4003F308C00240090013F308D002100951389
:102ED40022009D0108002000B9003608BB00350817
:102EE400BA007C2F3A30A4003708A5003908803195
:102EF4006320973120003A0884003B0885001200C3
:102F0400031D852F862F742FB501B60108002000FC
:102F1400B40021006A082000B300210069082000E1
:102F2400B200210068082000B100210067082000D9
:102F3400B0002F08303E860087010108340780382E
:102F44009731C427973108002000D7003E30CB00CA
:102F54005708CC00CE01CF01D501D6013D08B600FB
:102F64003C08B5004B30B7004C3097316D27973192
:102F740020004E085707CA004A088600013087001F
:102F8400810108002000AE00A9012E08AD00043024
:102F9400AD36890BCA2F2D08893161219731200064
:102FA400A9012E080F39893161219731153020008C
:102FB400AD00C630890BDC2FAD0BDC2F0000080000
:102FC40022000E112100CF01D001E430F2000030C4
:102FD400F3006E30F4009830F5000330F600003052
:102FE400F7008A31C722973103302000E700E60159
:102FF4002100D101D10AD801D80A0800543425345B
:1030040064343A34253464342534643425346434E3
:103014002E342534643420345334653463342034FA
:103024002534733400345434253464343A34253428
:103034006434253464342E342534643425346434BF
:1030440020345334653463342034253473340034E9
:1030540055346E34693474343A3431342E34303463
:1030640030342034533465346334203420342034F1
:10307400003455346E34693474343A3430342E3474
:1030840031343034203453346534633420342034C0
:103094002034003455346E34693474343A34303462
:1030A4002E34303431342034533465346334203492
:1030B400203420340034463475346E34633474342C
:1030C40069346F346E3453346534743420344D347D
:1030D4006F346434653400344F3446344634003439
:0830E40020344F344E34003457
:020000040001F9
:04000E00E43FFF1FAD
:10E00000010000000100000023000000FF00FF00ED
:10E01000FF00FF00FF00FF00FF00FF00FF00FF0008
:00000001FF
