:020000040000FA
:1000000080312628013400347E1480318B1E09286B
:100010000A2812280B1D0D280E2812289731602758
:10002000803124280B1F1528162824282100111C94
:100030001A281B2824282000111C1F2820282428C7
:1000400097313127803124287E10090080312828FB
:10005000803102208031EE00803103208031EF00BA
:10006000053084009630850021001200E80012005F
:10007000E9001200EA001200EB001200EC0012008E
:10008000ED00FA01FB012000EC01ED01A03084003D
:100090000030850048309531FF25803120308400C4
:1000A0000130850032309531FF258031A030840049
:1000B000013085004C309531FF2580317E102000C5
:1000C000803162289631C9268031DC30F20016304A
:1000D000F3009531F32580313F30F2000E30F3000C
:1000E0009531F92580318B170B179731AC2780316B
:1000F0009731792780318C31C12480318D31DD25D4
:1001000080312000AF0100309731E32780317F300C
:100110002000BB009830BC00413088311020803175
:1001200041309731922780312000AF01AF0A003073
:100130009731E327803190302000BB009830BC001D
:100140004130883110208031413097319227803101
:100150003D302100EF00E130EE003F30890BAE284A
:10016000EE0BAE28EF0BAE2800322000AF010030BE
:100170009731E32780316E302000BB009830BC00FF
:1001800041308831102080314130973192278031C1
:100190002000AF01AF0A00309731E32780315D3096
:1001A0002000BB009830BC004130883110208031E5
:1001B00041309731922780313D302100EF00E1300E
:1001C000EE003F30890BE228EE0BE228EF0BE2282D
:1001D000003221005C080319EE28EF281729DC0102
:1001E000031020000D1C03140030031801302300FD
:1001F000CA00031020008D1C0314003003180130C6
:100200002300D500031020000D1D03140030031837
:1002100001302300E000031020008D1D0314003086
:10022000031801302300EB008431EB2480312100DE
:100230005B08031D1C291D2922295908031921299E
:100240002229F32959080319262927292A298A311D
:10025000272280312100DB01D901DA29AF010030EA
:100260009731E32780312000D601D60A21006D089E
:100270002000D80021006C082000D7004130D900B0
:100280006D088731152780314130973192278031B1
:100290002000AF01AF0A00309731E32780310230F0
:1002A0002000D6006F08D8006E08D7004130D90072
:1002B0006D08873115278031413097319227803181
:1002C0002000AF01AF0A0E309731E32780312000C4
:1002D000AF010D309731E3278031F329AF010030B2
:1002E0009731E3278031A1302000BB009830BC005B
:1002F0004130883110208031413097319227803150
:100300002000AF01AF0A00309731E327803102307F
:100310002000D6006F08D8006E08D7004130D90001
:100320006D0889311C21803141309731922780310D
:100330002000AF01AF0A0D309731E3278031F32958
:10034000AF0100309731E32780312000D601D60A73
:1003500021006D082000D80021006C082000D70083
:100360004130D9006D0886313026803141309731D7
:10037000922780312000AF01AF0A00309731E32788
:10038000803102302000D6006F08D8006E08D700F8
:100390004130D9006D0886313026803141309731A7
:1003A000922780312000AF0121005A089731E327BE
:1003B0008031F32920006C08003A03192E29013AF4
:1003C00003196E29033A0319A029E629F3298D316F
:1003D0001E258031E9288F3188278031E928833133
:1003E0007E238031E92820006C08003A0319E729B0
:1003F000013A0319EB29033A0319EF29E92880315F
:1004000026282000AE00240886008701403FA60071
:10041000413FA70026088400270885001200253ADE
:10042000031D132A142A652B240886008701013036
:10043000810741310318810A2100B201B301031081
:10044000003003180130CE00FF30B400FF30B5009B
:100450002000240886008701403FAB00413FAC00EC
:100460002B0884002C0885001200643A0319392AED
:100470003A2A442A2B0884002C0885001200693A85
:10048000031D432A442AD02A250886008701010833
:100490008400850102308107003FAF00013FB000BA
:1004A0002B08013EA60000302C3DA7002408860042
:1004B00087012608C03F2708C13F2030B300B01B8A
:1004C000622A642A0130652A0030AD000130B3028F
:1004D0003308A03E8600013087000A30F200003069
:1004E000F3003008F5002F08F4008C311824823115
:1004F00073082000A1007208A0009631A426823162
:1005000020002008303E81000A30F2000030F30065
:100510003008F5002F08F4008D317D2582317308F5
:100520002000B0007208AF002F0830040319992A88
:100530009A2A9F2A3308031D9E2A9F2A662A330877
:100540000319A32AA42AC92A2D080319A82AA92A0B
:10055000C92A0130B3023308A03E8600013087006B
:100560002D308100C92A3308A03E86000130870063
:100570000108A600A7012608F2002708F3002E08AC
:10058000F4008B31C723823101302000A6002608F9
:10059000B30720303306031DCE2ACF2AB32A7D2B82
:1005A000AD01240886008701403FA600413FA70017
:1005B00026088400270885001200733A031DE12AEB
:1005C000E22AED2A240886008701013081074131A3
:1005D0000318810AAD01AD0A2F2B2408860087017C
:1005E000403FA600413FA700260884002708850059
:1005F00012006C3A031DFD2AFE2A2F2B24088600C8
:100600008701403FA600413FA70001302607840034
:1006100027080318270A850012006C3A031D112BC6
:10062000122B2F2B240886008701403FA600413F54
:10063000A70002302607840027080318270A850030
:100640001200733A031D252B262B2F2B240886001E
:1006500087010330810741310318810AEA2A2D08F6
:100660000319332B342B5B2B250886008701403F71
:1006700084008501810A0008AA00522B2A088600FE
:1006800087010108A600A7012608F2002708F30049
:100690002E08F4008B31C723823101302000A600E0
:1006A0002608AA072A08860087010108031D592B7E
:1006B0005A2B3E2B7D2B2000240886008701013019
:1006C000810741310318810A7D2B240886008701A8
:1006D000403FA600413FA700260884002708850068
:1006E0000008A800A9012808F2002908F3002E0834
:1006F000F4008B31C72382315B2B0800E1302000EE
:10070000B2000D2CE1302000B20003302100DA00ED
:10071000282CE2302000B20004302100DA00282C1E
:10072000E3302000B2006D03031D972B982B9C2B08
:1007300005302100DA00282C02306D06031DA12BA4
:10074000A22BA32B982B03306D06031DA82BA92BDE
:10075000AD2B06302100DA00282C282CE4302000B4
:10076000B2006D03031DB52BB62BB72BA92B02309E
:100770006D06031DBC2BBD2BC12B07302100DA00F9
:10078000282C03306D06031DC62BC72B282CBD2B30
:10079000DD302000B20043302100DA00282CDE30AA
:1007A0002000B20044302100DA00282CDF30200085
:1007B000B2006D03031DDD2BDE2BE22B4530210043
:1007C000DA00282C02306D06031DE72BE82BE92BFD
:1007D000DE2B03306D06031DEE2BEF2B282C46304D
:1007E0002100DA00282CE0302000B2006D03031D48
:1007F000FA2BFB2BFC2BEF2B02306D06031D012C7B
:10080000022C062C47302100DA00282C03306D061C
:10081000031D0B2C0C2C282C022C21005108013A12
:100820000319822B033A0319892B013A0319902BE0
:10083000073A0319AE2B013A0319C82B033A0319DF
:10084000CF2B013A0319D62B0F3A0319F32B282C7F
:1008500023004908031D2D2C2E2C332C4808031986
:10086000322C332C592CC901C8012100D901D90AD5
:1008700001302000B100320886008701310881076D
:100880003208860087010A300102031C482C492CDB
:100890004D2C3208860087018101031022000E1CB6
:1008A00003140318542C572C22000E14592C220028
:1008B0000E102300540803195E2C5F2C7D2CD401EC
:1008C0002100D901D90A01302000B10031082100EE
:1008D000D10709305102031C6E2C6F2C712CD101F1
:1008E000D10A031022000E1C03140318782C7B2C51
:1008F00022000E147D2C22000E1023005F08031D21
:10090000822C832C882C5E080319872C882CAD2C14
:10091000DF01DE012100D901D90A2000320886005A
:1009200087010108031D952C962C9C2C320886000B
:10093000870109308100A12C32088600870101302F
:100940008102031022000E1C03140318A82CAB2CE8
:1009500022000E14AD2C22000E10230052080319A1
:10096000B22CB32CEA2CD2012100D901D90A0310F0
:1009700022000E1C03140318BE2CC12C22000E14DE
:10098000C32C22000E102000EC01E130F800EC3006
:100990008E31A3268331DD30F8006E308E31A326F0
:1009A000833120006D08F2000030893170218331DD
:1009B00021006D08F7006C08F600023097311B2704
:1009C000833120006F08F7006E08F600043097317D
:1009D0001B2783310800F8010B30F20078089631AC
:1009E000F1268431C03EF900082E7908033E8600C6
:1009F000013087000030C03FC13F790A86000130D6
:100A000087000030C03FC13F79080A3E86000130B0
:100A100087000103031D0D2D0E2D252E790886005C
:100A20000130870002308100252E79080A3E8600B9
:100A3000013087000103031D1E2D1F2D4F2D790A44
:100A40008600013087000A30810741310318810A8E
:100A5000790A860001308700403FF600413FF700E9
:100A6000013077022C3003197602031C382D392D02
:100A7000252E7908073E8600013087008101810A12
:100A80007908033E8600013087000030C03FC13F37
:100A9000790886000130870004308100252E79080E
:100AA000053E8600013087000030C03FC13F790815
:100AB00086000130870005308100252E79080A3E26
:100AC0008600013087000103031D672D682D942DDA
:100AD0007908033E8600013087000A3081074131E2
:100AE0000318810A7908033E860001308700403FE1
:100AF000F600413FF70000307702283003197602F4
:100B0000031C832D842D252E7908033E8600013099
:100B100087000030C03FC13F7908083E86000130A1
:100B200087008101810A252E790A8600013087001D
:100B30000030C03FC13F7908053E86000130870084
:100B40000030C03FC13F7908860001308700053082
:100B50008100252E7908053E8600013087000A3085
:100B6000810741310318810A7908053E860001306A
:100B70008700403FF600413FF700003077020A301F
:100B800003197602031CC52DC62D252E790A860071
:100B900001308700403FF600413FF7000030770208
:100BA000143003197602031CD62DD72DF62D790AA1
:100BB000860001308700403FF600413FF7000130DA
:100BC00077022C30031976020318E72DE82DF62D55
:100BD0007908093E8600013087008101810A790881
:100BE00086000130870003308100252E79088600B9
:100BF0000130870081017908073E860001308700B7
:100C00008101252E79088600013087008101252E7B
:100C100079088600013087000108F600F70177089F
:100C2000003A0319142E252E7608003A0319F52CE4
:100C3000023A0319152D013A0319022E073A031936
:100C40005E2D013A0319AA2D252E0130F6007608F3
:100C5000F80704307802031C2E2E2F2EEC2C0800EF
:100C60002000E4000030EB000030EA000030E90032
:100C70000030E8000030E5000030E6000030E7001A
:100C80005603031D442E452E622E6A30F200983022
:100C9000F3000330F4000030F50065308A31C422DF
:100CA0008631210061082000E80021006208200050
:100CB000E900210063082000EA0021006408200008
:100CC000EB00092F6A30F2009830F3000330F40093
:100CD0000030F50065308A31C422863121005D087C
:100CE0002000E80021005E082000E90021005F08E4
:100CF0002000EA00210060082000EB00092F2030CE
:100D0000BB009030BC005608DA00DB015A08BD0079
:100D10005B08BE006808DC00DD015C08BF005D0800
:100D2000C0006908DE00DF015E08C1005F08C20084
:100D30006A08E000E1016008C3006108C4006B08B4
:100D4000E200E3016208C5006308C6006530C70021
:100D50005908883110208631142F0030BB0098309C
:100D6000BC005608DA00DB015A08BD005B08BE0073
:100D70006808DC00DD015C08BF005D08C000690890
:100D8000DE00DF015E08C1005F08C2006A08E00003
:100D9000E1016008C3006108C4006B08E200E301E0
:100DA0006208C5006308C6006530C700590888316D
:100DB00010208631142F1530BB009830BC00560827
:100DC000DA00DB015A08BD005B08BE006808DC00E1
:100DD000DD015C08BF005D08C0006908DE00DF01BE
:100DE0005E08C1005F08C2006A08E000E101600817
:100DF000C3006108C4006B08E200E3016208C5009B
:100E00006308C6006530C700590888311020863154
:100E1000142F6408013A03197F2E033A0319AD2EEB
:100E2000013A0319DB2E142F08002000E4000030E3
:100E3000EB000030EA000030E9000030E80000304C
:100E4000E5000030E6000030E7005808A100570830
:100E5000A0006830A2008F3111278731200056038F
:100E6000031D332F342F412FE530F2000030F30003
:100E70000330F4000030F50065308A31C422873138
:100E8000D82F6A30F2009830F3000330F4000030BD
:100E9000F50065308A31C4228731D82F2030BB005D
:100EA0009030BC005608DA00DB015A08BD005B0830
:100EB000BE006808DC00DD015C08BF005D08C00002
:100EC0006908DE00DF015E08C1005F08C2006A0831
:100ED000E000E1016008C3006108C4006B08E200A3
:100EE000E3016208C5006308C6006530C700590801
:100EF000883110208731E42F0030BB009830BC00CF
:100F00005608DA00DB015A08BD005B08BE0068081D
:100F1000DC00DD015C08BF005D08C0006908DE0080
:100F2000DF015E08C1005F08C2006A08E000E1015D
:100F30006008C3006108C4006B08E200E3016208B6
:100F4000C5006308C6006530C70059088831102005
:100F50008731E42F1530BB009830BC005608DA000A
:100F6000DB015A08BD005B08BE006808DC00DD013B
:100F70005C08BF005D08C0006908DE00DF015E0894
:100F8000C1005F08C2006A08E000E1016008C30018
:100F90006108C4006B08E200E3016208C500630851
:100FA000C6006530C7005908883110208731E42F0A
:100FB00020006408013A03194E2F033A03197C2FCD
:100FC000013A0319AA2FE42F0800220090018C0196
:100FD0008D018E01083021009000FF308C00FF3021
:100FE0008D00F8308E0023008D013F308C002400EE
:100FF00090013F308D002100951322009D010800D3
:1010000005300800F4002200BC1D072808280F281E
:101010007408B7007308B9007208B800BC11080062
:101020002000D5003D30C9005508CA00CC01CD01D3
:10103000D301D4013C08B5003B08B4004930B600E8
:101040004A309731C727883120004C085507C8001F
:101050004808860001308700810108002000AE00AA
:10106000A9012E08AD000430AD36890B34282D08B7
:1010700089319A2188312000A9012E080F39893140
:101080009A21883115302000AD00C630890B4628E2
:10109000AD0B462800000800F601F701721C51282C
:1010A000522856287408F6077508F73D0130F435C4
:1010B000F50D890B57280130F336F20C890B5C28AB
:1010C00072087304031D652866284E287708F3000C
:1010D0007608F20008002000A700270897310627AD
:1010E00088312000A5002708013E97310627883166
:1010F0002000A6002508A000A1012608A200A30147
:101100002208A300A20120082204F60021082304DB
:10111000F70008002000AE00A901A90A2E08AD00C2
:101120000430AD36890B91282D0889319A218831F8
:101130002000A901A90A2E080F3989319A21883186
:1011400015302000AD00C630890BA428AD0BA428B3
:10115000000008002000A400A501A50A2200BC1878
:10116000B228B328C828BC142000A50124080319FC
:10117000BA28BB28BF282200BA01BA0AC228023006
:101180002200BA0095319225883196315B2688314C
:10119000200025080800F500720873040319D128FF
:1011A000D228E3287535203E86000130870072087A
:1011B000C03F7308C13F75082C3E86000130870090
:1011C00074088100F2287535203E860001308700C2
:1011D0008730C03F1530C13F75082C3E8600013076
:1011E00087008101080095318925883122003C1C47
:1011F000FA28FB2806299531E7258831003A03199A
:101200000229032906290F302200BA0022003A08D9
:101210002000A200A301A235A30D00302207840004
:101220001030233D80388500013F8A00003F0A00CE
:1012300089312200BA0008002000DA003A292A3059
:10124000BB009830BC0059088831102089314529ED
:101250003B30BB009830BC005908883110208931E0
:1012600045294C30BB009830BC005908883110200B
:10127000893145295A08013A03191F29033A0319EC
:101280002829013A031931294529080022003C1078
:101290000230BB0053299531C42589316F2995311E
:1012A000C92589316F292E08F9000430203E8600B7
:1012B00001308700413F8A00403F0A008931200009
:1012C000A000A1012108003A031967294F2920082D
:1012D000023A03194B29013A03194B294F290800F7
:1012E000F500230095187529762971297508F300F2
:1012F000F4017308910074089200720893003F3063
:10130000F30073089505200003108B1F8829892995
:101310008A2903148B132300151555309600AA3023
:101320009600951415112000031C972998299929D6
:101330008B1708002000AB002B08AA000330AA3549
:10134000FF3E031D9F292A350838AC0029080319E0
:10135000AA29AB29AC292C14A6012C080438A70013
:1013600027308931F52189310B302000AA00623005
:10137000890BB829AA0BB82900002000A6012C0867
:10138000FB39A70027308931F52189310800220077
:10139000BC15D7299531C4258931F4299531A1256A
:1013A00089310330F4299531C9258931F4292C0874
:1013B000F90021088A0020080A0089312000A000D5
:1013C000A1012108003A0319E629D3292008013A8E
:1013D0000319D329033A0319CA29013A0319CA295F
:1013E000073A0319CE29D32908002000A8002000BD
:1013F00028088A318E228931003A0319002A012AED
:10140000F7299330F6001630F7002730F8009631B0
:101410002C2689310130F2000030F300263088316B
:10142000022089310030F600F7000030F800F900A2
:101430009631372689319531E22589319731482710
:101440008931013A0319252A262A1E2A08004A2A28
:101450002100C001C101BA01BB01D301562A2100FC
:10146000C201C301BC01BD01D401562A2100BE0145
:10147000BF01D501562A2100C001C101BA01BB013B
:10148000D301C201C301BC01BD01D401BE01BF0132
:10149000D501562A20006D08013A0319282A033A7B
:1014A00003192F2A013A0319362A3B2AB801B90138
:1014B000D20108007208730403195F2A602A892A7E
:1014C000F701F70A6C2A0130F235F30D890B642A13
:1014D0000130F6007608F707F31F6F2A702A632A97
:1014E00073087502031D762A72087402031C792A98
:1014F0007A2A7E2A7208F4027308F53B0130F3362B
:10150000F20C890B7F2A0130F702031D882A892AF1
:10151000702A7508F3007408F2000800F200F30165
:10152000F30A22003C19952A962AC22A7208B600AC
:10153000BC103C153C100E30BA00F430B400013041
:10154000B500BC158730A0001530A100AC01873074
:10155000A2001530A300AD018730A4001530A5000E
:10156000AE018730A6001530A700AF010030A800FB
:101570000830A900B001953189258A319631682655
:101580008A31F30173080800F9007908F800E32AAA
:101590000130F4020030F53B780886008701F80A34
:1015A0007308F7007208F600F20A0319F30A7608C6
:1015B0008400770885000008C03F8908031DE12AE0
:1015C000E22AE32AF22A74087504031DE82AE92AAC
:1015D000C82AF22A78088600870181010130F600C6
:1015E0007608F8070130F4020030F53B740A031D59
:1015F000FD2A750A031DFD2AFE2AEA2A0800F801C1
:10160000F901720873040319062B072B362BF70117
:10161000F70A132B0130F235F30D890B0B2B013038
:10162000F6007608F707F31F162B172B0A2B01304D
:10163000F835F90D890B182B73087502031D222B41
:1016400072087402031C252B262B2B2B7208F40224
:101650007308F53B78140130F336F20C890B2C2B10
:101660000130F702031D352B362B172B7908F300B9
:101670007808F200080022003708860087019531BB
:101680009E258B31810001302000A000200822001F
:10169000B7070130B8020030B93B380839040319E4
:1016A000522B532B582B9531A8258B3105307F2B8E
:1016B000BC15622B9531D8258B317F2B9531D325E5
:1016C0008B317F2B2C08F90021088A0020080A00A2
:1016D0008B312000A000A1012108003A0319712BD1
:1016E0005E2B2008013A03195E2B033A03195A2B8B
:1016F000013A03195A2B073A03195E2B5E2B080097
:101700007A08031D842B852B882B22000E11C62BF3
:101710002100520803198D2B8E2BC62BD2015008A5
:10172000031D932B942BAB2B6D083902031D9A2BB1
:101730006C083802031C9D2B9E2BC62BBE01BF01DB
:10174000BC01BD01BA01BB0122000E112100CF0175
:10175000D001D00AC62B20006F0821003902031DDA
:10176000B52B20006E0821003802031CB82BB92BC2
:10177000C62BBE01BF01BC01BD01BA01BB012200E5
:101780000E152100CF01CF0AD001C62B0800740826
:101790000319CB2BCC2BD12B7408031DD02BD12BB1
:1017A000D62B7208953186258B31172C7408093E8B
:1017B00086008701160001040319DF2BE02BFE2BA6
:1017C0007408093E86008701403FF500413FF6005E
:1017D0007408023E86008701403FF700413FF80051
:1017E0007808803AF9007608803A7902031DFA2BCE
:1017F000750877020318FD2BFE2B172C7408860042
:1018000087017408023E8400850100080107F50085
:101810007508860001308700720881007408023E56
:10182000860087010130810741310318810A0800D1
:10183000F801F51F1C2C1D2C242CF409F509F40AC1
:101840000319F50AF801F80AF31F272C282C2D2C70
:10185000F209F309F20A0319F30A7208730403196F
:10186000322C332C5C2CF701F70A3F2C0130F23577
:10187000F30D890B372C0130F6007608F707F31FBC
:10188000422C432C362C73087502031D492C720818
:101890007402031C4C2C4D2C512C7208F40273085A
:1018A000F53B0130F336F20C890B522C0130F70274
:1018B000031D5B2C5C2C432C78080319602C612CD5
:1018C000662CF409F509F40A0319F50A7508F30002
:1018D0007408F20008009531E7258C31003A0319AD
:1018E000722C732CA32C802C9531BA258C31C02CF2
:1018F0009531BF258C31C02C9531C9258C31C02C38
:1019000022002F08F9000630203E860001308700B3
:10191000413F8A00403F0A008C312000A000A10115
:101920002108003A0319952C7C2C2008013A031950
:101930007C2C033A0319742C013A0319782C073ACA
:1019400003197C2C7C2C22003C101730203E860092
:1019500001308700403F84008501810A00089531ED
:10196000B0258C3101302200B8020030B93B380874
:101970003904031DBC2CBD2CBF2C0630C02C0330F9
:101980000800F7010B30F20077089631F1268C3110
:10199000C03E86000130870081010B30F2007708DD
:1019A0009631F1268C31C13E86000130870000302F
:1019B000C03FC13F0B30F20077089631F1268C31E1
:1019C000C53E8600013087000030C03FC13F0B306C
:1019D000F20077089631F1268C31C73E860001303F
:1019E000870081010B30F20077089631F1268C31A7
:1019F000C83E86000130870081010B30F200770875
:101A00009631F1268C31C93E860001308700810174
:101A10000B30F20077089631F1268C31CA3E8600F1
:101A20000130870081010130F6007608F7070430A5
:101A30007702031C1C2D1D2DC22C08002300520808
:101A40000319232D242D452DD2012100D901D90AB6
:101A50002000EC01EC0AFA01B230F2009830F300F9
:101A60000330F4000030F500E5308A31C4228D31B6
:101A700022000E1103100E1C03140318402D432DD9
:101A800022000E14452D22000E1023006A080319AF
:101A90004A2D4B2D7C2DEA017A080319502D522D29
:101AA0000130532D0030FA002100D901D90A7A08FB
:101AB00003195B2D5C2D6E2D8A3127228D31B630B6
:101AC000F2009830F3000330F4000030F500E53008
:101AD0008A31C4228D3122000E157C2D22000E1178
:101AE000B230F2009830F3000330F4000030F5001B
:101AF000E5308A31C4228D3108002000A101F31F96
:101B0000822D832D8A2DF209F309F20A0319F30AB3
:101B1000A101A10AF51F8D2D8E2D972DF409F50930
:101B2000F40A0319F50A0130F6007608A106A201AD
:101B3000A3017208730403199E2D9F2DCE2DA001C1
:101B4000A00AAB2D0130F235F30D890BA32D013026
:101B5000F6007608A007F31FAE2DAF2DA22D0130A1
:101B6000A235A30D890BB02D73087502031DBA2D84
:101B700072087402031CBD2DBE2DC32D7208F40221
:101B80007308F53B22140130F336F20C890BC42D97
:101B90000130A002031DCD2DCE2DAF2D210803193C
:101BA000D22DD32DD82DA209A309A20A0319A30A65
:101BB0002308F3002208F200080003302000B000E0
:101BC0000830AF007730890BE32DAF0BE32DB00B5E
:101BD000E32D2000A901033089319A218D31343061
:101BE0002000AF00F130890BF32DAF0BF32D003245
:101BF0002000A901033089319A218D313430200031
:101C0000AF00F130890B022EAF0B022E0032200004
:101C1000A901033089319A218D3134302000AF0081
:101C2000F130890B112EAF0B112E00322000A901CB
:101C3000023089319A218D310B302000AF006230A3
:101C4000890B202EAF0B202E0000283088312E204B
:101C50008D310E3088312E208D31063088312E2086
:101C60008D31013088312E208D3115302000AF00AC
:101C7000C630890B392EAF0B392E00000800013019
:101C80002100C4070030C53D0130C2070030C33D0C
:101C90000130C0070030C13D0130BE070030BF3DFC
:101CA000D501D50A033020006D06031D582E592E8C
:101CB000602E2100D201D20A3F08B9003E08B800C8
:101CC0000030210043020A3003194202031C692E2E
:101CD0006A2E802EC201C3010130BC070030BD3D19
:101CE000D401D40A023020006D06031D782E792E0F
:101CF000802E2100D201D20A3D08B9003C08B8006C
:101D0000003021004102643003194002031C892E77
:101D10008A2E9F2EC001C1010130BA070030BB3DA1
:101D2000D301D30A20006D03031D972E982E9F2EFA
:101D30002100D201D20A3B08B9003A08B8008B3121
:101D400080238E3108002000B000780886008701CB
:101D50000108A000A1012008A8002108A900780A14
:101D6000860087010108A000A1012008AA0021081F
:101D7000AB007808023E860087010108A000A1019F
:101D80002008AC002108AD007808033E86008701DA
:101D90000108A000A1012008AE002108AF00290819
:101DA000F3002808F200E830F4000330F500883131
:101DB0004C208E3172082000A0007308A1002B086F
:101DC000F3002A08F2006430F4000030F500883196
:101DD0004C208E31720820002007A2007308213D9C
:101DE000A3002D08F3002C08F2000A30F4000030A4
:101DF000F50088314C208E31720820002207A400A3
:101E00007308233DA5002E082407A6002F08253DB2
:101E1000A7003008860087012608C03F2708C13F79
:101E20000800E830F2000330F30020002108F5003C
:101E30002008F4008A31FF228F3173082000A400AB
:101E40007208A30022088600870123088100240865
:101E5000F3002308F2001830F400FC30F50088315C
:101E60004C208F31200020087207A0002108733D0C
:101E7000A1006430F2000030F3002108F5002008D2
:101E8000F4008A31FF228F3173082000A400720809
:101E9000A300220A86008701230881002408F3009A
:101EA0002308F2009C30F400FF30F50088314C200C
:101EB0008F31200020087207A0002108733DA10087
:101EC0000A30F2000030F3002108F5002008F40089
:101ED0008A31FF228F3173082000A4007208A3000A
:101EE0002208023E86008701230881002208033E63
:101EF000860087010A30F2000030F3002108F50067
:101F00002008F4008A315A228F31720881000800BB
:101F10002300490803198D2F8E2FAB2FC9012100F3
:101F2000D901D90A01302000A5002508ED070430A9
:101F30006D02031C9C2F9D2F9F2FED01ED0A0310B6
:101F400022000E1C03140318A62FA92F22000E1422
:101F5000AB2F22000E10230052080319B02FB12F0F
:101F6000DF2FD2012100D901D90A02302000EC0074
:101F70002100D101D10A0330DA006D082000A10050
:101F800021006C082000A000E130A2008F31112751
:101F90008F3120006F08A1006E08A000DD30A20084
:101FA0008F3111278F31031022000E1C03140318E8
:101FB000DA2FDD2F22000E14DF2F22000E10230057
:101FC0005F080319E42FE52FFF2FDF012100D9015E
:101FD000D90A01302000ED026D08031DF02FF12F0A
:101FE000F32F0330ED00031022000E1C031403181E
:101FF000FA2FFD2F22000E14FF2F22000E100800D2
:10200000B53415341A341634123416346B340C3497
:102010003B340B340B341634C7340934BA3415341A
:10202000BF341534C4341534C9341534CE341534A2
:10203000D3341534D8341534DD34153446340934EA
:102040005434253464343A342534643425346434C7
:1020500025346434253464342E34203453346534C8
:0A2060006334203425347334003457
:102B0C0008000130080020009111080024009512E3
:102B1C00080021009111080024001614080024005C
:102B2C0096140800240016150800240096150800B9
:102B3C0024001108080020009115080024009616A6
:102B4C0016160800240096121616080016302100DE
:102B5C0097000800F200720824009100080022007F
:102B6C00BC10BB010E300800953195259531013014
:102B7C000800953195259531023008009531952541
:102B8C0095310130080095319825953100300800B9
:102B9C009531A8259531053008009531A42595313E
:102BAC000A3008009531A42595310930080022001F
:102BBC00BC10BB010E30080000308831AA209531C2
:102BCC0008002400160E890C890C0139080020001D
:102BDC00911DF12DF22DED2D080073082100C90077
:102BEC007208C800080073082100CB007208CA00E4
:102BFC000800640080010131890B002E0034003480
:102C0C004034143454340134003422003C109531D7
:102C1C009B2596310430080022003C143635953142
:102C2C00B02596310330080022003C140314360DF5
:102C3C009531B025963105300800240094010830F8
:102C4C00950096014F309200951208007708F3001A
:102C5C007608F2007808F40000308831CB209631E9
:102C6C0008007708F3007608F2007808F4000230C8
:102C7C008831CB20963108007030210099009801E2
:102C8C002200960121001A1F4C2E4D2E482E0800B2
:102C9C002100480849040319542E552E5A2E490870
:102CAC008A0048080A0096310800622E9531ED25FD
:102CBC0096318831F32096312200BC18662E672E8F
:102CCC005C2E08002400951A6C2E6D2E742E940127
:102CDC000830950096014F3092009516080021009F
:102CEC001508C03917389500643020009500643001
:102CFC00FB000B118B1608002000181D862E872E4A
:102D0C008E2E181071089700700896001814922EC9
:102D1C00710897007008960008000130F20000302E
:102D2C00F30079088831022096310030F600F70064
:102D3C00F80196312C269631043008002000A11B96
:102D4C00A82EA92EAA2EB52E2009A2002109A30077
:102D5C00A20A0319A30A2208A0002308A100080054
:102D6C002000990163309700C030960011101708AD
:102D7C002100CD00200016082100CC0011141130C8
:102D8C002000980008009631232696318731E527DC
:102D9C0096319631422696319531AC259631963145
:102DAC00B626963196317526963108000130F00022
:102DBC0070082100D707DC01DC0A0130F000700834
:102DCC00D60764305602031CEC2EED2EF02ED601E5
:102DDC00DB01DB0A0800F500F401751CF62EF72E5A
:102DEC00FB2E7208F3007308F4070310F20D0310A6
:102DFC00F50C7508031D032F042FF32E740808001F
:102E0C00F5006400230095180C2F0D2F072F750863
:102E1C00F200F30172089100730892003F30F40045
:102E2C0074089505151413080800F9007608F200CB
:102E3C0079088931702197317708F2007908013EC1
:102E4C008931702197313430F800F230890B2C2FF6
:102E5C00F80B2C2F08002000111021004D08F10058
:102E6C004C08F00096318226973121004A084B0419
:102E7C000319412F422F472F4B088A004A080A009A
:102E8C0097310800F201F20A2200BC184E2F4F2F86
:102E9C005E2F3C11FF30B600953189259731953165
:102EAC008F25973195318C25973122003B08F20004
:102EBC00720808000B117B082000950001302100DE
:102ECC00C6070030C73D00304702023003194602E6
:102EDC00031C712F722F782F96314E2697312100BB
:102EEC00C601C70108000030973106279731200032
:102EFC00ED00023088316B20973177082100ED000E
:102F0C007608EC00043088316B209731770820006C
:102F1C00EF007608EE0008002000B000A22F300869
:102F2C00860001308700010888318A2097310130F2
:102F3C002000AF002F08B007300886000130870052
:102F4C000108031DAA2FAB2F952F080022000E118C
:102F5C002100CF01D001B230F2009830F3000330E1
:102F6C00F4000030F500E5308A31C422973103308B
:102F7C002000ED00EC012100D101D10AD901D90AC0
:102F8C0008002000B8003508BA003408B900D62F64
:102F9C003930A4003608A500380882310122973157
:102FAC002000390884003A0885001200031DDF2F29
:102FBC00E02FCE2FB401B50108002000B400210091
:102FCC006B082000B30021006A082000B200210029
:102FDC0069082000B100210068082000B0002F080B
:102FEC00303E8600870101083407803888312E2056
:102FFC00973108005434253464343A34253464341D
:10300C0025346434253464342E342534643420342B
:10301C0053346534633420342534733400345434DD
:10302C00253464343A3425346434253464342E34F1
:10303C002534643425346434203453346534633497
:10304C00203425347334003455346E34693474347C
:10305C003A3431342E3430343034203453346534F3
:10306C006334203420342034003455346E346934C5
:10307C0074343A3430342E343134303420345334C4
:10308C0065346334203420342034003455346E34A9
:10309C00693474343A3430342E343034313420348E
:1030AC0053346534633420342034203400345634A3
:1030BC0065347234733469346F346E343A3420347A
:1030CC0030342E3436343034203420342034003430
:1030DC0045346434693474343A34453445342034DA
:1030EC00593469346D3469346E3467342034203487
:1030FC000034573465346C3463346F346D34653458
:10310C00203474346F3420344C34463441342E34EF
:10311C00203400344C3461346D34703420347434C5
:10312C00653473347434203474346F346F346C34C9
:10313C002E3420340034463475346E346334743495
:10314C0069346F346E3453346534743420344D34F4
:10315C006F346434653400344F34463446340034B0
:08316C0020344F344E340034CE
:020000040001F9
:04000E00E43FFF1FAD
:10E00000030000002300000023000000FF00FF00C9
:10E01000FF00FF00FF00FF00FF00FF00FF00FF0008
:00000001FF
