:020000040000FA
:1000000080312628053008007E1480318B1E092897
:100010000A2812280B1D0D280E2812289731962722
:10002000803124280B1F1528162824282100111C94
:100030001A281B2824282000111C1F2820282428C7
:1000400097316727803124287E10090080312828C5
:10005000EA308400953085006630860000308700E5
:100060000430963143268031E63084009530850097
:10007000EB30860000308700043096314326803113
:10008000FA01FB01EA01A0308400003085004B300A
:1000900096313D26803120308400013085004E307D
:1000A00096313D268031A0308400013085002C300F
:1000B00096313D2680317E1020008431A22C200014
:1000C000AF00240886008701403FA600413FA700FB
:1000D00026088400270885001200253A031D712890
:1000E0007228C82924088600870101308107413120
:1000F0000318810A2100B601B7010310003003186C
:100100000130D200FF30B800FF30B90020002408D1
:1001100086008701403FAC00413FAD002C088400C1
:100120002D0885001200643A031997289828A22800
:100130002C0884002D0885001200693A031DA128AF
:10014000A2282E2925088600870101088400850140
:1001500002308107003FB000013FB1002C08013E92
:10016000A60000302D3DA700240886008701260840
:10017000C03F2708C13F2030B400B11BC028C228AF
:100180000130C3280030AE000130B4023408203EF4
:100190008600013087000A30F2000030F300310899
:1001A000F5003008F4008B31FB2380317308200008
:1001B000A1007208A0009631F026803120002008AE
:1001C000303E81000A30F2000030F3003108F500C3
:1001D0003008F4008D310125803173082000B10012
:1001E0007208B000300831040319F728F828FD28F8
:1001F0003408031DFC28FD28C428340803190129EC
:10020000022927292E080319062907292729013041
:10021000B4023408203E8600013087002D30810072
:1002200027293408203E8600013087000108A600F7
:10023000A7012608F2002708F3002F08F4008B31ED
:10024000AA23803101302000A6002608B407203000
:100250003406031D2C292D291129E029AE0124087B
:1002600086008701403FA600413FA7002608840082
:10027000270885001200733A031D3F2940294B29A6
:100280002408860087010130810741310318810A63
:10029000AE01AE0A8D29240886008701403FA600E2
:1002A000413FA700260884002708850012006C3A09
:1002B000031D5B295C298D29240886008701403FA6
:1002C000A600413FA7000130260784002708031835
:1002D000270A850012006C3A031D6F2970298D29A9
:1002E000240886008701403FA600413FA700023056
:1002F0002607840027080318270A85001200733A8E
:10030000031D832984298D29240886008701033051
:10031000810741310318810A48292E0803199129C0
:100320009229BE29250886008701010884008501DD
:1003300002308107003FAA00013FAB00B4292A0820
:1003400086002B0887000108A600A7012608F200F6
:100350002708F3002F08F4008B31AA2380310130E5
:100360002000AA070030AB3D2A0886002B08870032
:100370000108031DBC29BD299F29E029200024086C
:10038000860087010130810741310318810AE02985
:10039000240886008701403FA600413FA7002608A9
:1003A0008400270885000008A800A9012808F20099
:1003B0002908F3002F08F4008B31AA238031BE29CD
:1003C0000800F8010B30F200780897313D278131A1
:1003D000A03EF900372B7908053E860001308700E2
:1003E0000030C03FC13F7908033E860001308700DE
:1003F0000030C03FC13F790A8600013087000030DD
:10040000C03FC13F79080A3E8600013087000103E2
:10041000031D0B2A0C2A572B790886000130870010
:100420008101810A572B79080A3E86000130870036
:100430000103031D1C2A1D2A3E2A790A8600013069
:1004400087000A30810741310318810A790A860042
:1004500001308700403FF600413FF700003077024F
:100460000A3003197602031C362A372A572B7908DB
:1004700086000130870002308100572B7908860002
:10048000013087008101572B79080A3E8600013030
:1004900087000103031D4D2A4E2A7E2A790A860011
:1004A000013087000A30810741310318810A790A37
:1004B000860001308700403FF600413FF7000130E1
:1004C0007702903003197602031C672A682A572B9B
:1004D0007908073E8600013087008101810A79088A
:1004E000033E8600013087000030C03FC13F7908DD
:1004F00086000130870004308100572B7908053EC3
:100500008600013087000030C03FC13F7908860077
:100510000130870005308100572B79080A3E86009C
:10052000013087000103031D962A972AC32A790800
:10053000033E8600013087000A30810741310318ED
:10054000810A7908033E860001308700403FF600AB
:10055000413FF70000307702283003197602031C70
:10056000B22AB32A572B7908033E86000130870050
:100570000030C03FC13F7908083E86000130870047
:100580008101810A572B790A8600013087000030EB
:10059000C03FC13F7908053E86000130870000302A
:1005A000C03FC13F790886000130870005308100D7
:1005B000572B7908053E8600013087000A308107F5
:1005C00041310318810A7908053E86000130870011
:1005D000403FF600413FF700003077020A30031930
:1005E0007602031CF42AF52A572B790A860001307B
:1005F0008700403FF600413FF700003077020A30A5
:1006000003197602031C052B062B252B790A86007D
:1006100001308700403FF600413FF700013077028C
:100620009030031976020318162B172B252B790807
:10063000093E8600013087008101810A7908860021
:100640000130870003308100572B79088600013084
:10065000870081017908073E86000130870081010B
:10066000572B79088600013087008101572B7908C4
:100670008600013087000108F600F7017708003A8C
:100680000319432B572B7608003A0319EB29013A3B
:100690000319132A033A0319442A013A0319312B87
:1006A000073A03198D2A013A0319D92A572B013029
:1006B000F6007608F80704307802031C602B612BE3
:1006C000E2290800E4302000B100F12BE4302000E2
:1006D000B10003302100DD000C2CE5302000B1001A
:1006E00004302100DD000C2CE6302000B1006A034C
:1006F000031D7B2B7C2B802B05302100DD000C2C77
:1007000002306A06031D852B862B872B7C2B03303A
:100710006A06031D8C2B8D2B912B06302100DD00EA
:100720000C2C0C2CE7302000B1006A03031D992B20
:100730009A2B9B2B8D2B02306A06031DA02BA12B1D
:10074000A52B07302100DD000C2C03306A06031DA9
:10075000AA2BAB2B0C2CA12BE0302000B100433096
:100760002100DD000C2CE1302000B10044302100DC
:10077000DD000C2CE2302000B1006A03031DC12B08
:10078000C22BC62B45302100DD000C2C02306A063E
:10079000031DCB2BCC2BCD2BC22B03306A06031DA4
:1007A000D22BD32B0C2C46302100DD000C2CE33057
:1007B0002000B1006A03031DDE2BDF2BE02BD32BBF
:1007C00002306A06031DE52BE62BEA2B4730210099
:1007D000DD000C2C03306A06031DEF2BF02B0C2CD4
:1007E000E62B21005408013A0319662B033A03193A
:1007F0006D2B013A0319742B073A0319922B013A16
:100800000319AC2B033A0319B32B013A0319BA2B82
:100810000F3A0319D72B0C2C230029080319112C8C
:10082000122C342CA9012100DB01DB0A0130F90074
:100830002000310886008701790881070A306A02A2
:10084000031C232C242C282C3108860087018101CD
:10085000031022000E1C031403182F2C322C22002C
:100860000E14342C22000E10230034080319392CE6
:100870003A2C562CB4012100DB01DB0A0130F900CF
:100880007908D40709305402031C472C482C4A2C01
:10089000D401D40A031022000E1C03140318512C97
:1008A000542C22000E14562C22000E1023003F0858
:1008B00003195B2C5C2C7D2CBF012100DB01DB0AC2
:1008C00020006A08031D652C662C6C2C31088600FC
:1008D000870109308100712C3108860087010130C1
:1008E0008102031022000E1C03140318782C7B2CA9
:1008F00022000E147D2C22000E1023003208031952
:10090000822C832CA12CB2012100DB01DB0A031015
:1009100022000E1C031403188E2C912C22000E149E
:10092000932C22000E102100DC01E430F800683026
:100930008E318E268331E030F80066308E318E267F
:10094000833108008831012084312830F2001730CB
:10095000F300963131268431C330F2000D30F300BC
:100960009631372684318B170B178831312084312B
:100970009731022784318C31A42484318D31612553
:10098000843121005F080319C62CC72CEF2CDF012E
:10099000031020000D1C0314003003180130230045
:1009A000AA00031020008D1C03140030031801302E
:1009B0002300B500031020000D1D031400300318A0
:1009C00001302300C000031020008D1D03140030EF
:1009D000031801302300CB008131E1218431210053
:1009E0005E08031DF42CF52CFA2C5B080319F92C76
:1009F000FA2CAC2DDE01DB01942D2000AF0100307C
:100A00008831142084312000D801D80A6908DA001E
:100A10006808D9005D30DB006A088631C72684315A
:100A20005D309731AF2784312000AF01AF0A00302D
:100A300088311420843102302000D8006708DA00A1
:100A40006608D9005D30DB006A088631C72684312C
:100A50005D309731AF278431AC2D2000AF010030DD
:100A60008831142084312A302000BC009830BD0029
:100A70005D3088314E2084315D309731AF2784312D
:100A80002000AF01AF0A00308831142084310230D9
:100A90002000D8006708DA006608D9005D30DB0066
:100AA0006A0889315A2184315D309731AF2784310A
:100AB000AC2D2000AF01003088311420843120009B
:100AC000D801D80A6908DA006808D9005D30DB006F
:100AD0006A088531BA2584315D309731AF2784317A
:100AE0002000AF01AF0A0030883114208431023079
:100AF0002000D8006708DA006608D9005D30DB0006
:100B00006A088531BA2584315D309731AF27843149
:100B10002000AF0121005D088831142084310E309F
:100B200088316C208431AC2D5C08003A0319FD2C0F
:100B3000013A03192D2D033A0319592D9F2DAC2D80
:100B40008E3127268431C12C8E31FC268431C12C74
:100B5000833162238431C12C21005C08003A0319DF
:100B6000A02D013A0319A42D033A0319A82DC12C75
:100B7000803126282300CC000030D3000030D20082
:100B80000030D1000030D0000030CD000030CE0069
:100B90000030CF0020005803031DCF2DD02DF02DA5
:100BA000CD30F2000130F3005F30F4009830F500F2
:100BB0000330F6000030F7008A31D8228531210059
:100BC00064082300D000210065082300D100210023
:100BD00066082300D200210067082300D300BB2E43
:100BE000CD30F2000130F3005F30F4009830F500B2
:100BF0000330F6000030F7008A31D8228531210019
:100C000060082300D000210061082300D1002100EA
:100C100062082300D200210063082300D300BB2E0A
:100C200020302000BC009030BD005808DC00DD0101
:100C30005C08BE005D08BF00230050082000DE00F5
:100C4000DF015E08C0005F08C100230051082000DA
:100C5000E000E1016008C2006108C30023005208FF
:100C60002000E200E3016208C4006308C50023001D
:100C700053082000E400E5016408C6006508C700C9
:100C8000CD30C8000130C9005B0888314E20853165
:100C9000C62E00302000BC009830BD005808DC0093
:100CA000DD015C08BE005D08BF0023005008200085
:100CB000DE00DF015E08C0005F08C10023005108AC
:100CC0002000E000E1016008C2006108C3002300C9
:100CD00052082000E200E3016208C4006308C50076
:100CE000230053082000E400E5016408C6006508FD
:100CF000C700CD30C8000130C9005B0888314E20E4
:100D00008531C62E15302000BC009830BD00580833
:100D1000DC00DD015C08BE005D08BF002300500858
:100D20002000DE00DF015E08C0005F08C100230074
:100D300051082000E000E1016008C2006108C30022
:100D4000230052082000E200E3016208C4006308A7
:100D5000C500230053082000E400E5016408C60034
:100D60006508C700CD30C8000130C9005B08883174
:100D70004E208531C62E4C08013A0319102E033A35
:100D80000319492E013A0319822EC62E08002300AA
:100D9000CC000030D3000030D2000030D100003051
:100DA000D0000030CD000030CE000030CF00200059
:100DB0005A08A1005908A000D030A2000130A300B9
:100DC0008F317227863120005803031DE82EE92E4B
:100DD000F92ECD30F2000130F300E830F40000309D
:100DE000F5000330F6000030F7008A31D822863152
:100DF000B42FCD30F2000130F3005F30F4009830B2
:100E0000F5000330F6000030F7008A31D822863131
:100E1000B42F20302000BC009030BD005808DC000A
:100E2000DD015C08BE005D08BF0023005008200003
:100E3000DE00DF015E08C0005F08C100230051082A
:100E40002000E000E1016008C2006108C300230047
:100E500052082000E200E3016208C4006308C500F4
:100E6000230053082000E400E5016408C60065087B
:100E7000C700CD30C8000130C9005B0888314E2062
:100E80008631C02F00302000BC009830BD005808CB
:100E9000DC00DD015C08BE005D08BF0023005008D7
:100EA0002000DE00DF015E08C0005F08C1002300F3
:100EB00051082000E000E1016008C2006108C300A1
:100EC000230052082000E200E3016208C400630826
:100ED000C500230053082000E400E5016408C600B3
:100EE0006508C700CD30C8000130C9005B088831F3
:100EF0004E208631C02F15302000BC009830BD0038
:100F00005808DC00DD015C08BE005D08BF0023005E
:100F100050082000DE00DF015E08C0005F08C1004D
:100F2000230051082000E000E1016008C2006108D0
:100F3000C300230052082000E200E3016208C4005D
:100F40006308C500230053082000E400E50164089D
:100F5000C6006508C700CD30C8000130C9005B0875
:100F600088314E208631C02F23004C08013A0319E6
:100F7000092F033A0319422F013A03197B2FC02F7F
:100F80000800F801F901720873040319C82FC92F6A
:100F9000F82FF701F70AD52F0130F235F30D890B41
:100FA000CD2F0130F6007608F707F31FD82FD92F81
:100FB000CC2F0130F835F90D890BDA2F7308750243
:100FC000031DE42F72087402031CE72FE82FED2F96
:100FD0007208F4027308F53B78140130F336F20C12
:100FE000890BEE2F0130F702031DF72FF82FD92FB1
:100FF0007908F3007808F200080020009115080035
:1010000008009631612688319731C9278831963199
:10101000802688319531E22588319731152788312E
:101020009631B326883108002000B40021006E08F4
:101030002000B30021006D082000B20021006C08E0
:101040002000B10021006B082000B0002F08303EC6
:101050008600870101083407803888316C20883188
:10106000080022000E112100D301E830F200003008
:10107000F3006330F4009830F5000330F6000030E0
:10108000F7008A31D822883103302000EA0021009D
:10109000DC01D401D40ADB01DB0A08002000D70000
:1010A0003E30CB005708CC00CE01CF01D501D60190
:1010B0003D08B6003C08B5004B30B7004C309731C6
:1010C000E427883120004E085707CA004A088600E6
:1010D00001308700810108002000AE00A9012E0820
:1010E000AD000430AD36890B72282D088931AE2150
:1010F00088312000A9012E080F398931AE218831AD
:1011000015302000AD00C630890B8428AD0B842833
:1011100000000800F601F701721C8F28902894281F
:101120007408F6077508F73D0130F435F50D890BA5
:1011300095280130F336F20C890B9A287208730453
:10114000031DA328A4288C287708F3007608F20052
:1011500008002000A7002708973152278831200077
:10116000A5002708013E9731522788312000A600AC
:101170002508A000A1012608A200A3012208A300BF
:10118000A20120082204F60021082304F700080029
:101190002000AE00A901A90A2E08AD000430AD362A
:1011A000890BCF282D088931AE2188312000A90173
:1011B000A90A2E080F398931AE2188311530200057
:1011C000AD00C630890BE228AD0BE2280000080014
:1011D0002000A400A501A50A2200DC18F028F128AF
:1011E0000629DC142000A50124080319F828F92891
:1011F000FD282200DA01DA0A002902302200DA0092
:101200009531CB25883196319926883120002508E3
:101210000800F5007208730403190F291029212909
:101220007535403E8600013087007208C03F730864
:10123000C13F75084C3E860001308700740881006C
:1012400030297535403E860001308700C030C03FF0
:101250001530C13F75084C3E860001308700810182
:1012600008009531C225893122005C1C38293929B2
:101270004429963125268931003A0319402941290C
:1012800044290F302200DA0022005A082000A20070
:10129000A301A235A30D0030220784001030233DA6
:1012A00080388500013F8A00003F0A008931220012
:1012B000DA0008002000DC0078293B30BC009830C0
:1012C000BD005B0888314E20893183294730BC003E
:1012D0009830BD005B0888314E2089318329533016
:1012E000BC009830BD005B0888314E2089318329CD
:1012F0005C08013A03195D29033A03196629013A8A
:1013000003196F298329080022005C100230DB00DA
:101310009129963102268931AD29963107268931E6
:10132000AD294E08F9000430403E860001308700A8
:10133000413F8A00403F0A0089312000A000A101FE
:101340002108003A0319A5298D292008023A03191A
:101350008929013A031989298D2908002000AB0049
:101360002B08AA000330AA35FF3E031DB3292A35F6
:101370000838AC0029080319BE29BF29C0292C143C
:10138000A6012C080438A70027308A3109228931A8
:101390000B302000AA006230890BCC29AA0BCC2983
:1013A00000002000A6012C08FB39A70027308A3155
:1013B0000922893108002200DC15EB29963102262A
:1013C0008931082A8731FD2789310330082A96316F
:1013D00007268931082A4C08F90041088A0040088C
:1013E0000A0089312000A000A1012108003A031958
:1013F000FA29E7292008013A0319E729033A0319D2
:10140000DE29013A0319DE29073A0319E229E729FF
:1014100008002000A800200028088A31A2228A3172
:10142000003A0319142A152A0B2ADF30F600163069
:10143000F7002730F80096316A268A310130F20031
:101440000030F30026309631C0268A310030F60095
:10145000F7000030F800F900963175268A31963190
:1014600020268A3197317E278A31013A0319392A99
:101470003A2A322A08005E2A2100C401C501BE01B1
:10148000BF01D6016A2A2100C601C701C001C101FE
:10149000D7016A2A2100C201C301D8016A2A2100AA
:1014A000C401C501BE01BF01D601C601C701C0010B
:1014B000C101D701C201C301D8016A2A20006A080C
:1014C000013A03193C2A033A0319432A013A031942
:1014D0004A2A4F2ABC01BD01D501080072087304D5
:1014E0000319732A742A9D2AF701F70A802A01300A
:1014F000F235F30D890B782A0130F6007608F707EC
:10150000F31F832A842A772A73087502031D8A2A07
:1015100072087402031C8D2A8E2A922A7208F40221
:101520007308F53B0130F336F20C890B932A013036
:10153000F702031D9C2A9D2A842A7508F30074086B
:10154000F2000800F200F301F30A22005C19A92A54
:10155000AA2AD62A7208D600DC105C155C100E3060
:10156000DA00F430D4000130D500DC15C030C00002
:101570001530C100CC01C030C2001530C300CD0110
:10158000C030C4001530C500CE01C030C6001530D3
:10159000C700CF010230C8000030C900D00195312A
:1015A000C2258A319631A6268A31F30173080800D4
:1015B0007308F9007208F800002B0130F6020030C1
:1015C000F73B79082000A1007808A000F80A031969
:1015D000F90A20088600210887007508A30074080E
:1015E000A200F40A0319F50A2208840023088500E2
:1015F0000008C03F8908031DFE2AFF2A002B102B7C
:1016000076087704031D052B062BDD2A102B78089E
:1016100086007908870081010130F8070030F93D24
:101620000130F6020030F73B760A031D1B2B770AC8
:10163000031D1B2B1C2B072B0800220057088600BC
:1016400087019531D7258B31810001302000A00022
:1016500020082200D7070130D8020030D93B5808B3
:1016600059040319342B352B3A2B9531DE258B3158
:101670000530612BDC15442B963116268B31612BFE
:10168000963111268B31612B4C08F90041088A00F4
:1016900040080A008B312000A000A1012108003A77
:1016A0000319532B402B2008013A0319402B033A0E
:1016B00003193C2B013A03193C2B073A0319402B21
:1016C000402B08007A08031D662B672B6A2B22002B
:1016D0000E11A92B2100550803196F2B702BA92B74
:1016E000D5015308031D752B762B902B200069081C
:1016F00021003D02031D802B2000680821003C02D0
:10170000031C832B842BA92BC201C301C001C1017F
:10171000BE01BF0122000E112100D301D30AA92B63
:101720002000670821003D02031D9A2B2000660857
:1017300021003C02031C9D2B9E2BA92BC201C3013F
:10174000C001C101BE01BF0122000E152100D3015D
:10175000A92B080074080319AE2BAF2BB42B740807
:10176000031DB32BB42BB92B7208883100208B31A9
:10177000FA2B7408093E860087011600010403193C
:10178000C22BC32BE12B7408093E86008701403F22
:10179000F500413FF6007408023E86008701403F95
:1017A000F700413FF8007808803AF9007608803A5F
:1017B0007902031DDD2B750877020318E02BE12B5E
:1017C000FA2B7408860087017408023E84008501A4
:1017D00000080107F50075088600013087007208CF
:1017E00081007408023E8600870101308107413183
:1017F0000318810A0800F801F51FFF2B002C072CA5
:10180000F409F509F40A0319F50AF801F80AF31FB7
:101810000A2C0B2C102CF209F309F20A0319F30A13
:10182000720873040319152C162C3F2CF701F70AC4
:10183000222C0130F235F30D890B1A2C0130F60001
:101840007608F707F31F252C262C192C7308750230
:10185000031D2C2C72087402031C2F2C302C342CEA
:101860007208F4027308F53B0130F336F20C890B71
:10187000352C0130F702031D3E2C3F2C262C780816
:101880000319432C442C492CF409F509F40A0319D3
:10189000F50A7508F3007408F20008009631252651
:1018A0008C31003A0319552C562C862C632C95311B
:1018B000F8258C31A32C9531FD258C31A32C963144
:1018C00007268C31A32C22004F08F9000630403E39
:1018D000860001308700413F8A00403F0A008C317A
:1018E0002000A000A1012108003A0319782C5F2CE8
:1018F0002008013A03195F2C033A0319572C013AC7
:1019000003195B2C073A03195F2C5F2C22005C1033
:101910001730403E860001308700403F840085013B
:10192000810A00089531EE258C3101302200D80261
:101930000030D93B58085904031D9F2CA02CA22C21
:101940000630A32C03300800F7010B30F2007708B3
:1019500097313D278C31A03E860001308700810100
:101960000B30F200770897313D278C31A13E86007D
:10197000013087000030C03FC13F0B30F2007708D4
:1019800097313D278C31A53E86000130870000301D
:10199000C03FC13F0B30F200770897313D278C31B3
:1019A000A73E86000130870081010B30F2007708E6
:1019B00097313D278C31A83E860001308700810198
:1019C0000B30F200770897313D278C31A93E860015
:1019D0000130870081010B30F200770897313D27F5
:1019E0008C31AA3E86000130870081010130F6006B
:1019F0007608F70704307702031CFF2C002DA52C76
:101A000008002000A101F31F062D072D0E2DF2095D
:101A1000F309F20A0319F30AA101A10AF51F112D16
:101A2000122D1B2DF409F509F40A0319F50A0130EA
:101A3000F6007608A106A201A30172087304031937
:101A4000222D232D522DA001A00A2F2D0130F23579
:101A5000F30D890B272D0130F6007608A007F31F40
:101A6000322D332D262D0130A235A30D890B342DB7
:101A700073087502031D3E2D72087402031C412D6C
:101A8000422D472D7208F4027308F53B22140130F1
:101A9000F336F20C890B482D0130A002031D512DA5
:101AA000522D332D21080319562D572D5C2DA209D7
:101AB000A309A20A0319A30A2308F3002208F200CB
:101AC000080003302000B0000830AF007730890BE9
:101AD000672DAF0B672DB00B672D2000A9010330D8
:101AE0008931AE218D3134302000AF00F130890BC7
:101AF000772DAF0B772D00322000A90103308931FB
:101B0000AE218D3134302000AF00F130890B862DAD
:101B1000AF0B862D00322000A90103308931AE21A0
:101B20008D3134302000AF00F130890B952DAF0B93
:101B3000952D00322000A90102308931AE218D316E
:101B40000B302000AF006230890BA42DAF0BA42D09
:101B50000000283088316C208D310E3088316C20A7
:101B60008D31063088316C208D31013088316C2008
:101B70008D3115302000AF00C630890BBD2DAF0B65
:101B8000BD2D0000080001302100C8070030C93D0C
:101B90000130C6070030C73D0130C4070030C53DE5
:101BA0000130C2070030C33DD801D80A03302000FD
:101BB0006A06031DDC2DDD2DE42D2100D501D50A9B
:101BC0004308BD004208BC000030210047020A3033
:101BD00003194602031CED2DEE2D042EC601C7018C
:101BE0000130C0070030C13DD701D70A02302000C4
:101BF0006A06031DFC2DFD2D042E2100D501D50AFA
:101C00004108BD004008BC0000302100450264309E
:101C100003194402031C0D2E0E2E232EC401C501F0
:101C20000130BE070030BF3DD601D60A20006A034E
:101C3000031D1B2E1C2E232E2100D501D50A3F0883
:101C4000BD003E08BC008B3162238D3108002300AB
:101C5000320803192C2E2D2E502EB2012100DB014B
:101C6000DB0ADC01DC0AFA01E830F2000030F300A4
:101C70006330F4009830F5000330F6000030F700D0
:101C80008A31D8228E3122000E1103100E1C03144B
:101C900003184B2E4E2E22000E14502E22000E1032
:101CA00023004A080319552E562E8D2ECA017A0894
:101CB00003195B2E5D2E01305E2E0030FA002100EC
:101CC000DB01DB0A7A080319662E672E7C2E8A3127
:101CD0003B228E31E830F2000030F3006730F40030
:101CE0009830F5000330F6000030F7008A31D82232
:101CF0008E3122000E158D2E22000E11E830F200DA
:101D00000030F3006330F4009830F5000330F60043
:101D10000030F7008A31D8228E3108002000B00050
:101D20007808860087010108A000A1012008A8000A
:101D30002108A900780A860087010108A000A101F6
:101D40002008AA002108AB007808023E860087011F
:101D50000108A000A1012008AC002108AD0078080E
:101D6000033E860087010108A000A1012008AE0003
:101D70002108AF002908F3002808F200E830F40039
:101D80000330F50088318A208E3172082000A000CF
:101D90007308A1002B08F3002A08F2006430F40055
:101DA0000030F50088318A208E317208200020072B
:101DB000A2007308213DA3002D08F3002C08F200B7
:101DC0000A30F4000030F50088318A208E31720824
:101DD00020002207A4007308233DA5002E08240735
:101DE000A6002F08253DA700300886008701260899
:101DF000C03F2708C13F0800230029080319012F0D
:101E0000022F1F2FA9012100DB01DB0A0130200076
:101E1000A9002908EA0704306A02031C102F112FB9
:101E2000132FEA01EA0A031022000E1C0314031800
:101E30001A2F1D2F22000E141F2F22000E10230018
:101E400032080319242F252F512FB2012100DB0165
:101E5000DB0A0230DC00D401D40A20006908A100AA
:101E60006808A000E430A2000030A3008F31722780
:101E70008E3120006908A1006808A000E030A200AF
:101E80000030A3008F3172278E31031022000E1C08
:101E9000031403184C2F4F2F22000E14512F220031
:101EA0000E1023003F080319562F572F712FBF0123
:101EB0002100DB01DB0A01302000EA026A08031D71
:101EC000622F632F652F0330EA00031022000E1CDF
:101ED000031403186C2F6F2F22000E14712F220091
:101EE0000E100800E830F2000330F3002000210853
:101EF000F5002008F4008731C1278F3173082000D6
:101F0000A8007208A7002208860023088700270877
:101F100081002808F3002708F2001830F400FC3094
:101F2000F50088318A208F31200020087207A00038
:101F30002108733DA1006430F2000030F300210855
:101F4000F5002008F4008731C1278F317308200085
:101F5000A8007208A7002208013EA4000030233D1B
:101F6000A500240886002508870027088100280886
:101F7000F3002708F2009C30F400FF30F5008831B0
:101F80008A208F31200020087207A0002108733DAD
:101F9000A1000A30F2000030F3002108F50020080B
:101FA000F4008731C1278F3173082000A800720820
:101FB000A7002208023EA4000030233DA50024080B
:101FC000860025088700270881000A30F2000030CB
:101FD000F3002108F5002008F4008A316E228F31C9
:101FE00072082000A4002208033EA5000030233D13
:101FF000A60025088600260887002408810008001E
:10200000F334153458341634503416344E340C34FA
:102010001D340B3449341634DB340934F8341534A8
:10202000FD34153402341634073416340C341634A7
:1020300011341634163416341B34163484340934EF
:102040005434253464343A342534643425346434C7
:1020500025346434253464342E342034533420340D
:0A206000203420342534733400349A
:102B8000013008002000911108002400951208006F
:102B90002100911108002400161408002400961446
:102BA00008002400161508002400961508002400CB
:102BB0001108080024009616161608002400961224
:102BC0001616080016302100970008000034403423
:102BD000143454340134003401340034F2007208E7
:102BE0002400910008002200DC10DB010E300800F8
:102BF0009531CE259531013008009531CE2595319E
:102C0000023008009531CE2596310130080095310B
:102C1000D1259631003008009531DE2596310530FA
:102C200008009531DA2596310A3008009531DA2509
:102C30009631093008002200DC10DB010E3008005C
:102C400000308831E820963108002400160E890CE7
:102C5000890C013908002000911D2F2E302E2B2EBB
:102C6000080073082100CD007208CC00080073082A
:102C70002100CF007208CE000800640080010131FD
:102C8000890B3E2E0034FE0012001E00FE0B442E67
:102C9000003422005C109531D425963104300800B0
:102CA00022005C1456359531EE259631033008002C
:102CB00022005C140314560D9531EE259631053033
:102CC0000800240094010830950096014F309200CE
:102CD000951208007708F3007608F2007808F400EF
:102CE000003089310921963108007708F300760811
:102CF000F2007808F4000230893109219631080089
:102D000070302100990098012200960121001A1FBD
:102D10008A2E8B2E862E080021004C084D040319A4
:102D2000922E932E982E4D088A004C080A00963158
:102D30000800A02E96312B2696318931312196310B
:102D40002200DC18A42EA52E9A2E08002400951A25
:102D5000AA2EAB2EB22E94010830950096014F306A
:102D600092009516080021001508C0391738950003
:102D70006430200095006430FB000B118B160800B6
:102D8000F4002200DC1DC52EC62ECD2E7408D700FF
:102D90007308D9007208D800DC1108002000181D43
:102DA000D22ED32EDA2E18107108970070089600D4
:102DB0001814DE2E71089700700896000800013084
:102DC000F2000030F30079089631C02696310030C9
:102DD000F600F700F80196316A26963104300800B3
:102DE0002000A11BF42EF52EF62E012F2009A200A3
:102DF0002109A300A20A0319A30A2208A00023089C
:102E0000A100080000308831A92097317708200000
:102E1000E9007608E80008308831A9209731770862
:102E20002000E7007608E6000800200099016330E2
:102E30009700C0309600111017082100D100200023
:102E400016082100D000111411302000980008004D
:102E50000130F00070082100DA07DF01DF0A0130DD
:102E6000F0007008D90764305902031C382F392F3D
:102E70003C2FD901DE01DE0A0800F500F401751CC3
:102E8000422F432F472F7208F3007308F4070310F3
:102E9000F20D0310F50C7508031D4F2F502F3F2F17
:102EA00074080800F500640023009518582F592F66
:102EB000532F7508F200F301720891007308920015
:102EC0003F30F4007408950515141308080020001D
:102ED000111021005108F1005008F0009631CE2663
:102EE000973121004E084F040319772F782F7D2F3B
:102EF0004F088A004E080A0097310800F201F20AD2
:102F00002200DC18842F852F942F5C11FF30D6000F
:102F10009531C22597319531C82597319531C52511
:102F2000973122005B08F200720808000B117B0841
:102F30002000950001302100CA070030CB3D003051
:102F40004B02023003194A02031CA72FA82FAE2FF1
:102F500096318C2697312100CA01CB010800200050
:102F6000B000BF2F3008860001308700010888318B
:102F7000C820973101302000AF002F08B00730087B
:102F80008600013087000108031DC72FC82FB22F0C
:102F90000800220090018C018D018E010830210073
:102FA0009000FF308C00FF308D00F8308E00230041
:102FB0008D013F308C00240090013F308D002100B6
:102FC000951322009D0108002000B9003608BB00BF
:102FD0003508BA00F32F3A30A4003708A5003908A5
:102FE00080315F20973120003A0884003B0885003B
:102FF0001200031DFC2FFD2FEB2FB501B6010800B9
:103000005434253464343A342534643425346434F7
:10301000253464342E34253464342034533420343D
:10302000203420342534733400345434253464344B
:103030003A3425346434253464342E3425346434ED
:10304000253464342034533420342034203425345F
:1030500073340034463475346E34633474346934F4
:103060006F346E3453346534743420344D346F34DB
:1030700064346534003455346E34693474343A340D
:1030800031342E3430343034203453340034553419
:103090006E34693474343A3430342E34313430344C
:1030A00020345334003455346E34693474343A3433
:1030B00030342E343034313420345334003420341E
:1030C0002034203400344F34463446340034203425
:0630D0004F344E340034C1
:020000040001F9
:04000E00E43FFF1FAD
:10E0000023000000FF00FF00FF00FF00FF00FF00F3
:10E0100023000000FF00FF00FF00FF00FF00FF00E3
:00000001FF
