:0400000080312628FD
:100008007E1480318B1E09280A2812280B1D0D2802
:100018000E28122886310026803124280B1F152827
:10002800162824282100111C1A281B2824282000FF
:10003800111C1F28202824288631182680312428BE
:100048007E100900803128288731E7278031FB009E
:1000580037308400873085006030860000308700A4
:1000680009308731612780318030840086308500EF
:10007800D230860000308700113087316127803107
:10008800FA0120308400003085002B308731672743
:100098008031A030840000308500323087316727F6
:1000A800803120308400013085004C30873167274B
:1000B80080317E1020008231632A2000CA01CA0ADA
:1000C800FB01FB0A0130CB000030CC004C08F300E8
:1000D8004B08F2009C30F400FF30F50085315C25B8
:1000E80080317208643E2000CB000030733DCC00A4
:1000F8000A30F2000030F3004C08F5004B08F40019
:100108008231EE22803172082000C9000A30F200E4
:100118000030F3004C08F5004B08F40083319623B7
:10012800803172082000C800E801E80A0130CB00DD
:100138000030CC004C08F3004B08F2009C30F4006F
:10014800FF30F50085315C2580317208643E20005F
:10015800CB000030733DCC000A30F2000030F300D1
:100168004C08F5004B08F4008231EE228031720809
:100178002000C7000A30F2000030F3004C08F500F8
:100188004B08F40083319623803172082000C600A2
:10019800080003302000DB000830DA007730890BD4
:1001A800D328DA0BD328DB0BD3282000D401033063
:1001B80084315924803134302000DA00F130890B41
:1001C800E328DA0BE32800322000D401033084311D
:1001D8005924803134302000DA00F130890BF228BC
:1001E800DA0BF22800322000D4010330843159247C
:1001F800803134302000DA00F130890B0129DA0B24
:10020800012900322000D401023084315924803180
:100218000B302000DA006230890B1029DA0B102924
:100228000000283085317B2580310C3085317B25D5
:100238008031063085317B258031013085317B2541
:10024800803115302000DA00C630890B2929DA0BF5
:1002580029290000080087317F278131003A0319D6
:1002680036293729662944298731AD2781318229E2
:100278008731A8278131822987319E2781318229B8
:1002880021002F08F9000630A03E86008701413F73
:100298008A00403F0A0081312000CB00CC014C0885
:1002A800003A0319582940294B08013A03194029F3
:1002B800033A03193829013A03193C29073A031963
:1002C8004029402921003C101730A03E86008701B4
:1002D800403F84008501810A00088731B7278131B2
:1002E80001302100B8020030B93B38083904031D39
:1002F8007E297F2981290630822903300800740865
:100308000319872988298D297408031D8C298D29AB
:10031800922972088731E8278131D2297408093E69
:10032800860087011600010403199B299C29BA2914
:100338007408093E86008701403FF500413FF600FA
:100348007408023E86008701403FF700413FF800ED
:100358007808803AF9007608803A7902031DB629B0
:10036800750877020318B929BA29D22974088600B2
:1003780087017408023E8400850100080107F50022
:10038800750886008701720881007408023E86009D
:1003980087010130810741310318810A08002000D4
:1003A800D1004B0886008701403FCD00413FCE0079
:1003B8004D0884004E0885001200253A031DE529E2
:1003C800E629032A4B08860087010130810741315D
:1003D8000318810AA401A501031000300318013095
:1003E800BE00FF30A600FF30A70020004B088600A3
:1003F80087010130810741310318810A1B2A4B0804
:1004080086008701403FCD00413FCE004D08840063
:100418004E0885000008CF00D0014F08F2005008B0
:10042800F3005108F400813183218131F929080052
:10043800F7010B30F2007708863143268231403EBF
:1004480086000130870081010B30F2007708863181
:1004580043268231413E8600013087000030C03F8C
:10046800C13F0B30F2007708863143268231453E82
:100478008600013087000030C03FC13F0B30F200DA
:100488007708863143268231473E8600013087004F
:1004980081010B30F2007708863143268231493ECC
:1004A80086000130870081010130F6007608F707E1
:1004B80004307702031C612A622A1D2A080086314B
:1004C8006D2682315830F2000630F30087317327E9
:1004D80082316030F2000330F30087316D278231BA
:1004E8008031CD20823182311C22823180316120DD
:1004F80082318B170B172000DA01003086312E2647
:1005080082311C302000D9008430DA00C1308531B6
:100518003D258231C1308531D02582312000DA0174
:10052800DA0A003086312E268231C4302000D90004
:100538008630DA00C13085313D258231C1308531C0
:10054800D0258231A62A8031262821003708860046
:1005580087018731CB278231810001302000CB0011
:100568004B082100B7070130B8020030B93B380802
:1005780039040319C02AC12AC62A8731C027823103
:100588000530ED2ABC15D02A87318F278231ED2A14
:10059800873194278231ED2A2C08F90021088A0036
:1005A80020080A0082312000CB00CC014C08003A18
:1005B8000319DF2ACC2A4B08013A0319CC2A033A3B
:1005C8000319C82A013A0319C82A073A0319CC2A79
:1005D800CC2A0800F801F901720873040319F52AF6
:1005E800F62A252BF701F70A022B0130F235F30D15
:1005F800890BFA2A0130F6007608F707F31F052B56
:10060800062BF92A0130F835F90D890B072B7308E9
:100618007502031D112B72087402031C142B152B71
:100628001A2B7208F4027308F53B78140130F3367C
:10063800F20C890B1B2B0130F702031D242B252BF1
:10064800062B7908F3007808F2000800F200F3019D
:10065800F30A21003C19312B322B5E2B7208B600AD
:10066800BC103C153C100E30BA00F430B400013018
:10067800B500BC15E530A0000730A100AC01E5309D
:10068800A2000730A300AD01E530A4000730A500A3
:10069800AE01E530A6000730A700AF01E330A8009F
:1006A8000730A900B0018731E02783318631EE2673
:1006B8008331F3017308080001302000BA070030C5
:1006C800BB3D0130B8070030B93D0130B6070030F6
:1006D800B73D0130B4070030B53DC101C10A003053
:1006E80039020A3003193802031C7B2B7C2B842B1C
:1006F800B801B9010130B2070030B33DC001C00AEA
:1007080000303702643003193602031C8C2B8D2B02
:10071800952BB601B7010130B0070030B13DBF01DC
:10072800BF0A08007208730403199B2B9C2BC52B66
:10073800F701F70AA82B0130F235F30D890BA02B2E
:100748000130F6007608F707F31FAB2BAC2B9F2B75
:1007580073087502031DB22B72087402031CB52BB3
:10076800B62BBA2B7208F4027308F53B0130F33646
:10077800F20C890BBB2B0130F702031DC42BC52BD0
:10078800AC2B7508F3007408F20008002000D300B1
:100798002000530883312A238331003A0319D52BCB
:1007A800D62BCC2BA230F6000630F7005230F800DA
:1007B80087312C2783310130F2000030F3005130AB
:1007C8008631D32683310030F600F7000030F80078
:1007D800F900873121278331873185278331853196
:1007E800E8258331013A0319FA2BFB2BF32B080078
:1007F800B234073449340734523407342F340134BF
:10080800A93402345A3407342B340434AD34073451
:10081800A8340734A33407349E3407349934073492
:10082800943407348F3407348A340734AF340434AB
:10083800543431343A3431342E3430343034203472
:100848005334653463346F346E34643400342100B7
:10085800BC153B2C8731A3278431582C8731C827F6
:1008680084310330582C87319E278431582C2C082A
:10087800F90021088A0020080A0084312000CB00F2
:10088800CC014C08003A03194A2C372C4B08013A82
:100898000319372C033A03192E2C013A03192E2C6D
:1008A800073A0319322C372C08002000D6005608C6
:1008B800D5000330D535FF3E031D5E2C553508386D
:1008C800D70054080319692C6A2C6B2C5714D101D2
:1008D80057080438D20027308331CA2384310B30BB
:1008E8002000D5006230890B772CD50B772C0000BF
:1008F8002000D1015708FB39D20027308331CA23A1
:10090800843108008731E027843121003C1C8D2C7C
:100918008E2C992C87317F278431003A0319952C26
:10092800962C992C0F302100BA0021003A0820009B
:10093800CD00CE01CD35CE0DFC304D0784000330FF
:100948004E3D80388500013F8A00003F0A0084310F
:100958002100BA00080021003C100230BB00BC2C6A
:100968008731A3278431D72C87319E278431D72C10
:100978002E08F9000430A03E86008701413F8A0016
:10098800403F0A0084312000CB00CC014C08003ADB
:100998000319CF2CB82C4B08023A0319B42C013A8E
:1009A8000319B42CB82C0800F50072087304031955
:1009B800DE2CDF2CEE2C7535A03E860087017208F0
:1009C800C03F7308C13F7508AC3E860087017408B4
:1009D8008100FB2C7535A03E86008701E530C03FBD
:1009E8000730C13F7508AC3E8600870181010800C9
:1009F8002000CF00D001D00A2100BC18042D052DFD
:100A08001A2DBC142000D0014F0803190C2D0D2DF0
:100A1800112D2100BA01BA0A142D02302100BA00A2
:100A28008731D72784318631FB268431200050084E
:100A380008002000D900D401D40A5908D80004308D
:100A4800D836890B242D5808843159248531200043
:100A5800D401D40A59080F39843159248531153005
:100A68002000D800C630890B372DD80B372D000051
:100A780008002100E4005B30E3006408E500E701BA
:100A8800E801EE01EF0120005A08D3005908D2000E
:100A9800E330D400E5308531992585312100670898
:100AA80064072000DB005B088600870181010800DD
:100AB800F601F701721C612D622D662D7408F60788
:100AC8007508F73D0130F435F50D890B672D0130B8
:100AD800F336F20C890B6C2D72087304031D752D07
:100AE800762D5E2D7708F3007608F20008002000C6
:100AF800D900D4015908D8000430D836890B812D83
:100B080058088431592485312000D40159080F39F7
:100B180084315924853115302000D800C630890B1E
:100B2800932DD80B932D000008002000D600530801
:100B3800D8005208D700A82D5730CB005408CC0055
:100B480056088131D3218531200057088400580880
:100B580085001200031DB12DB22DA02DD201D301A5
:100B68000800220090018C018D018E0108302100BF
:100B78009000FF308C00FF308D00FC308E00230089
:100B88008D013F308C00240090013F308D00210002
:100B9800951322009D0108002000DB00DF2D5B0873
:100BA80086008701010885311D2585310130200027
:100BB800DA005A08DB075B08860087010108031D75
:100BC800E62DE72DD32D0800F201F20A2100BC180A
:100BD800EE2DEF2DFE2D3C11FF30B6008731E027BA
:100BE80085318731DA2785318731DD278531210045
:100BF8003B08F200720808000B117A0820009500E3
:100C08000130AC070030AD3D00302D020230031931
:100C18002C02031C102E112E172E8731082786311F
:100C28002000AC01AD010800200011102B08F100D4
:100C38002A08F0008631B3268631200028082904C6
:100C48000319272E282E2D2E29088A0028080A0085
:100C5800863108002000DF006308DE006208DD003E
:100C68006108DC006008DB005A085B3E86008701EB
:100C780001085F07803885317B2586310800F5003B
:100C8800F401751C482E492E4D2E7208F300730886
:100C9800F4070310F20D0310F50C7508031D552E0B
:100CA800562E452E740808000130F0007008200008
:100CB800C507C401C40A0130F0007008C2076430D7
:100CC8004202031C682E692E6C2EC201C301C30A9E
:100CD80008008731402786318531B525863187312F
:100CE800152786318731BC27863186319126863192
:100CF8008631E1268631080055346E3469347434FF
:100D08003A3431342E34303430342034533465346A
:100D180063346F346E3464340034200099016330D6
:100D28009700C030960011101708AB001608AA00EB
:100D38002100111411302000980008000130F20041
:100D48000030F30079088631D32686310030F6006A
:100D5800F700F80187312C2786310430080020007D
:100D6800181DB72EB82EBF2E1810710897007008DE
:100D780096001814C32E7108970070089600080092
:100D8800543432343A3431342E343034303420341C
:100D98005334653463346F346E3464340034F4008F
:100DA8002100BC1DD82ED92EE02E7408B700730878
:100DB800B9007208B800BC11080021001508C03934
:100DC800173895006430200095006430FA000B1144
:100DD8008B1608002400951AF22EF32EFA2E940191
:100DE8000830950096014F30920095160800022FA2
:100DF8008731792786318431862486312100BC18D1
:100E0800062F072FFC2E080020002E082F04031998
:100E18000E2F0F2F142F2F088A002E080A00873153
:100E280008007030210099009801220096012100E5
:100E38001A1F1F2F202F1B2F08007708F300760892
:100E4800F2007808F40002308431D8248731080091
:100E58007708F3007608F2007808F400003084314F
:100E6800D8248731080000344034143454346434AE
:100E780000346434003401342400940108309500AF
:100E880096014F3092009512080021003C1403147B
:100E9800360D8731B72787310530080021003C140B
:100EA80036358731B72787310330080021003C10D9
:100EB8008731CE27873104300800FE0012001E005B
:100EC800FE0B622F0034640080010131890B682F0A
:100ED800003473082000A9007208A80008007308ED
:100EE8002000AF007208AE0008002000911D7D2F81
:100EF8007E2F792F08002400160E890C890C0139E1
:100F0800080000308431FC24873108002100BC101F
:100F1800BB010E3008008731C4278731093008002B
:100F28008731C42787310A3008008731C0278731C5
:100F3800053008008731D127873100300800873114
:100F4800D4278731013008008731D4278731023010
:100F580008008731D4278731013008002100BC10F0
:100F6800BB010E300800F20072082400910008004E
:100F78001630210097000800240096121616080063
:100F88002400961616160800200091150800240063
:100F980011080800240096150800240016150800FA
:100FA800240096140800240016140800210091114A
:100FB800080024009512080020009111080005304F
:0A0FC80008000130080001340800A1
:020000040001F9
:08000000FF3FFF3FFF3FFF3F00
:04000E00E43FFF1FAD
:00000001FF
