:020000040000FA
:1000000080312628053008007E1480318B1E092897
:100010000A2812280B1D0D280E2812288731B52713
:10002000803124280B1F1528162824282100111C94
:100030001A281B2824282000111C1F2820282428C7
:100040008631F526803124287E1009008031282849
:100050008E3155268031E5008E3156268031E600FE
:100060008E3157268031E7008E3158268031E800E6
:10007000F501F601F701F8015630840000308500E3
:100080000B308E31AF268031A030840000308500E7
:100090004E308E31AF268031203084000130850013
:1000A00020308E31AF2680317E1020008231372AF9
:1000B0002000B2002B0886008701403FAD00413F81
:1000C000AE002D0884002E0885001200253A031D7D
:1000D0006A286B282F292B088600870101308107A9
:1000E00041310318810AD601D701031000300318EB
:1000F0000130E000FF30D800FF30D9002B08860027
:100100008701403FB300413FB40033088400340806
:1001100085001200643A03198E288F289928330825
:100120008400340885001200693A031D9828992834
:1001300025292C08860087010108840085010230EA
:100140008107003FB500013FB6003308013EAD0016
:100150000030343DAE002B08860087012D08C03FDB
:100160002E08C13F2030B900B61BB728B92801308E
:10017000BA280030B1000130B9023908203E8600AB
:10018000013087000A30A0000030A1003608A3002B
:100190003508A2008331C723803120002108A80040
:1001A0002008A7008F316627803120002708303EC5
:1001B00081000A30A0000030A1003608A3003508F5
:1001C000A2008231B922803120002108B600200827
:1001D000B500350836040319EE28EF28F42839084D
:1001E000031DF328F428BB2839080319F828F92837
:1001F0001E2931080319FD28FE281E290130B902E5
:100200003908203E8600013087002D3081001E29EC
:100210003908203E8600013087000108AD00AE019C
:100220002D08A0002E08A1003208A20084311B2452
:10023000803101302000AD002D08B907203039068B
:10024000031D232924290829472920002B0886007B
:1002500087010130810741310318810A47292B08A2
:1002600086008701403FAD00413FAE002D0884006D
:100270002E0885000008AF00B0012F08A00030084C
:10028000A1003208A20084311B24803125290800F6
:10029000F3017308F1000230F135FF3E031D4C29D4
:1002A0007135BD3EF400162A7308853195258131DC
:1002B000003A03195C295D292C2A740A86008701FB
:1002C0000030C03FC13F7408860087018101810A68
:1002D0007408073E8600870181012C2A7308853146
:1002E00095258131003A0319762977299C29740ACA
:1002F000860087010130810741310318810A740AA1
:1003000086008701403FF100413FF2000030720259
:10031000033003197102031C8E298F292C2A7408BB
:1003200086008701023081007408033E8600870141
:100330000030C03FC13F2C2A74088600870181012C
:10034000740A860087010030C03FC13F2C2A730821
:10035000853195258131003A0319AF29B029FF294C
:100360007408033E8600870101308107413103187C
:10037000810A7408033E860087011600643AF10082
:100380001600F104031DC529C629DC297408073E9F
:10039000860087010108031DCE29CF29DC297408B6
:1003A000063E860087018101810A7408073E8600A7
:1003B00087018101810A2C2A7408033E8600870187
:1003C00016000A3AF1001600F104031DE829E92994
:1003D0002C2A7408073E860087010108031DF129B5
:1003E000F2292C2A7408053E860087018101810AC2
:1003F0007408073E860087018101810A2C2A74084F
:10040000860087018101740A860087010030C03FA1
:10041000C13F7408033E860087010030C03FC13FE2
:100420007408073E8600870181012C2A7408860023
:1004300087010108F100F2017208003A0319212A2C
:100440002C2A7108003A03195429013A03196E291C
:10045000033A0319A7292C2A0130F1007108F30788
:1004600004307302031C352A362A492908008F31CB
:10047000C427823145302000A0000E30A1008E310B
:10048000A32682318B302000A0000E30A1008E31D7
:10049000A92682318431B42482312000B901003090
:1004A0008731E427823183311923823122000E14EF
:1004B0008E142000D401D5012000540886313F2637
:1004C0008231003A0319652A662A802A2000B90180
:1004D000B90A00308731E427823100302000C100A2
:1004E0009030C2005408013EC3000030553DC400A6
:1004F000DD30873113278231DD3087319D2782310E
:1005000020005408863167268231003A0319892A6F
:100510008A2AA42A2000B901B90A00308731E427C9
:1005200082310D302000C1009030C2005408013EDD
:10053000C3000030553DC400DD30873113278231C0
:10054000DD3087319D27823101302000D407003013
:10055000D53D5508803AD30080305302031DB22A9E
:1005600004305402031CB52AB62A5C2A592A803169
:1005700026282000A601A11FBE2ABF2AC62AA0093C
:10058000A109A00A0319A10AA601A60AA31FC92A44
:10059000CA2AD32AA209A309A20A0319A30A01306D
:1005A000A4002408A606A701A80120082104031915
:1005B000DA2ADB2A0A2BA501A50AE72A0130A03591
:1005C000A10D890BDF2A0130A4002408A507A11F73
:1005D000EA2AEB2ADE2A0130A735A80D890BEC2A7E
:1005E00021082302031DF62A20082202031CF92AEF
:1005F000FA2AFF2A2008A2022108A33B271401306F
:10060000A136A00C890B002B0130A502031D092B7C
:100610000A2BEB2A260803190E2B0F2B142BA709E4
:10062000A809A70A0319A80A2808A1002708A000FA
:1006300008002000A1012108A0000230A035FF3EE3
:10064000031D1E2B2035BD3E860087018101210838
:10065000A0000230A035FF3E031D2A2B2035BE3EF0
:10066000860087010030C03FC13F2108A000023052
:10067000A035FF3E031D382B2035C03E8600870184
:100680000030C03FC13F2108A0000230A035FF3E2E
:10069000031D462B2035C23E8600870181012108BB
:1006A000A0000230A035FF3E031D522B2035C33E73
:1006B0008600870181012108A0000230A035FF3E9D
:1006C000031D5E2B2035C43E860087018101013069
:1006D000A0002008A10704302102031C702B712BFD
:1006E0001B2B08008E3197268331003A0319792B92
:1006F0007A2BAA2B872B8E315E268331C62B8E3127
:1007000063268331C62B8E316D268331C62B2100A3
:100710002F082000A7000630A03E86008701413F39
:100720008A00403F0A0083312000A800A90129085F
:10073000003A03199C2B832B2808013A0319832BB9
:10074000033A03197B2B013A03197F2B073A03194C
:10075000832B832B21003C101730A03E860087019D
:10076000403F84008501810A00088E319126833143
:1007700001302100B8020030B93B38083904031DAC
:10078000C22BC32BC52B0630C62B0330080020001C
:10079000A601A31FCC2BCD2BD42BA209A309A20AFF
:1007A0000319A30AA601A60AA11FD72BD82BDD2B5C
:1007B000A009A109A00A0319A10A2008210403190C
:1007C000E22BE32B0C2CA501A50AEF2B0130A03561
:1007D000A10D890BE72B0130A4002408A507A11F58
:1007E000F22BF32BE62B21082302031DF92B200803
:1007F0002202031CFC2BFD2B012C2008A202210845
:10080000A33B0130A136A00C890B022C0130A502BC
:10081000031D0B2C0C2CF32B26080319102C112C68
:10082000162CA209A309A20A0319A30A2308A100EE
:100830002208A0000800200022080319202C212CE7
:10084000262C2208031D252C262C2B2C20088E312B
:10085000272684316C2C2208093E86008701160069
:1008600001040319342C352C532C2208093E860030
:100870008701403FA300413FA4002208023E8600BA
:100880008701403FA500413FA6002608803AA70007
:100890002408803A2702031D4F2C23082502031841
:1008A000522C532C6C2C2000220886008701220831
:1008B000023E8400850100080107A300230886008A
:1008C0008701200881002208023E8600870101304E
:1008D000810741310318810A08002100370886008A
:1008E00087018E313F268431810001302000A8002D
:1008F00028082100B7070130B8020030B93B38089A
:1009000039040319842C852C8A2C8E314D26843190
:100910000530B32CBC15942C8E317C268431B32C3D
:100920008E3177268431B32C2C082000A7002100BB
:1009300021088A0020080A0084312000A800A901AB
:100940002908003A0319A52C902C2808013A03190C
:10095000902C033A03198C2C013A03198C2C073A7A
:100960000319902C902C080021302000B90076301B
:10097000890BB82CB90BB82C00002000BA01B101CA
:10098000033086311726843104302000B9003D3011
:10099000890BC82CB90BC82C003201302000B900DB
:1009A0003908BA0703303A02031CD72CD82CBF2CC5
:1009B000B1010230863117268431A630890BDE2C36
:1009C00000328E31CD2684310C308E31F7268431C1
:1009D00006308E31F726843101308E31F72684318E
:1009E000C8300032890BF12C08002000A000A101C2
:1009F000A10A21003C19FD2CFE2C2D2D20002008E1
:100A00002100B600BC103C153C100E30BA00F4308A
:100A1000B4000130B500BC152830A0000E30A10094
:100A2000AC012830A2000E30A300AD012830A40094
:100A30000E30A500AE012830A6000E30A700AF0191
:100A40000230A8000030A900B0018E312A2684317E
:100A50008F312A2784312000A101200021080800BD
:100A60002000B000200030088431F5248531003AA0
:100A700003193B2D3C2D322DB1302000A4000F3046
:100A8000A5002F30A6008E31DF26853101302000F1
:100A9000A0000030A1002E308F31EB2785310030CF
:100AA0002000A400A5000030A600A7008E31EB2690
:100AB00085318E3186268531873168278531013A27
:100AC0000319632D642D5C2D08002100BC15752DC4
:100AD0008E3168268531942D8E3142268531033042
:100AE000942D8E316D268531942D2C082000A70081
:100AF000210021088A0020080A0085312000A80072
:100B0000A9012908003A0319862D712D2808013AF8
:100B10000319712D033A0319682D013A0319682D41
:100B2000073A03196C2D712D0800F000B52D031044
:100B300020008D1E03140030093DC32D031020003A
:100B40000D1E03140030093DC32D031020008D1D20
:100B500003140030093DC32D031020000D1D0314A4
:100B60000030093DC32D0030C32D7008003A031931
:100B7000972D013A03199E2D033A0319A52D013A29
:100B80000319AC2DB32D080021003C100230BB002E
:100B9000D12D8E3168268531ED2D8E316D26853132
:100BA000ED2D2E082000A7000430A03E860087010E
:100BB000413F8A00403F0A0085312000A800A9017A
:100BC0002908003A0319E52DCD2D2808023A03190A
:100BD000C92D013A0319C92DCD2D08008E312A26C1
:100BE000853121003C1CF52DF62D012E8E319726E6
:100BF0008531003A0319FD2DFE2D012E0F30210005
:100C0000BA0021003A082000AA00AB01AA35AB0DBA
:100C1000D5302A07840006302B3D80388500013FFF
:100C20008A00003F0A0086312100BA000800200037
:100C3000B3003308B2000330B235FF3E031D1C2E53
:100C400032350838B40031080319272E282E292EF2
:100C50003414AE0134080438AF0027308531302514
:100C60008631A630890B322E00322000AE013408C6
:100C7000FB39AF0027308531302586310800200050
:100C8000A100043021020318462E472E652E2108AC
:100C9000A0000230A035FF3E031D4A2E2035C23E83
:100CA0008600870101080319562E572E652E21084C
:100CB000A0000230A035FF3E031D5A2E2035C23E53
:100CC0008600870181010130662E00300800200077
:100CD000A1000430210203186E2E6F2E8D2E2108E4
:100CE000A0000230A035FF3E031D722E2035C33E0A
:100CF00086008701010803197E2E7F2E8D2E210884
:100D0000A0000230A035FF3E031D822E2035C33ED9
:100D100086008701810101308E2E003008002000FE
:100D2000A300200821040319962E972EA62E233502
:100D3000A03E860087012008C03F2108C13F23084C
:100D4000AC3E8600870122088100B32E2335A03EE9
:100D5000860087012830C03F0E30C13F2308AC3EDB
:100D600086008701810108002000AC00AD01AD0ABA
:100D70002100BC18BC2EBD2ED22EBC142000AD010B
:100D80002C080319C42EC52EC92E2100BA01BA0A97
:100D9000CC2E02302100BA008E31332686318F31BD
:100DA0001D27863120002D08080059340E34C43424
:100DB0000E34BC340E34723403346D340434B53420
:100DC0000E34653405345E340E3463340E346834C6
:100DD0000E346D340E3472340E3477340E347C3469
:100DE0000E3481340E34C4340534200011107608DA
:100DF000F1007508F0008F31442786310130200062
:100E0000DE070030DF3D03305F02E73003195E028A
:100E1000031C0B2F0C2F122F8F311027863120002F
:100E2000DE01DF0108002000C7004330C60047088C
:100E3000C800CA01CB01D101D2014208BB00410860
:100E4000BA004630BC004830873130278731200057
:100E50004A084707C5004508860087018101080048
:100E60002000BE003B08C0003A08BF003F2F3F30C3
:100E7000AB003C08AC003E08803158208731200090
:100E80003F088400400885001200031D482F492FA9
:100E9000372FBA01BB010800220090018C018D019F
:100EA0008E01083021009000FF308C00FF308D0053
:100EB000FC308E00033023008D003F308C00240076
:100EC00090013C308D002100951322009D01080007
:100ED0002000A001A00A2100BC186F2F702F802FC6
:100EE0003C11FF30B6008E312A2687318E313026F4
:100EF00087318E312D26873121003B082000A0004C
:100F00002000200808002000270886008701403FB5
:100F1000A000413FA1002708023E8600870101088A
:100F20008F31EB27873100302000A400A500A601F7
:100F30008E31DF268731023008002000BA00AC2F46
:100F40003A088600870101088F3137278731013041
:100F50002000B9003908BA073A088600870101085D
:100F6000031DB32FB42FA02F08000B117808200009
:100F700095000130DC070030DD3D00305D020A30B5
:100F800003195C02031CC52FC62FCC2F8F310327FA
:100F900087312000DC01DD0108002000B7003508A2
:100FA000B1003708B6000430B636890BD42F3608A6
:100FB00086311726873120003508B10037080F39F0
:100FC00086311726873108002000BE006808BD0062
:100FD0006708BC006608BB006508BA0039083A3EDD
:100FE0008600870101083E0780388E31F726873159
:100FF0000800603021009900980122009601080045
:101C4C000800080001300800200091110800240051
:101C5C0095120800210091110800240016140800A8
:101C6C00240096140800240016150800240096156C
:101C7C00080024001108080020009115080081318B
:101C8C0048218E31080024009616161608002400F0
:101C9C009612161608001630210097000800003422
:101CAC004034143454342100BC10BB010E300800F5
:101CBC008E3136268E31013008008E3136268E312B
:101CCC00023008008E3136268E31013008008E31FC
:101CDC0039268E31003008008E314D268E3105307C
:101CEC0008008E3149268E310A3008008E31492683
:101CFC008E31093008002100BC10BB010E300800E9
:101D0C0000308631B4268E31080001302000DA070D
:101D1C000030DB3D08002000A000200824009100CA
:101D2C0008002400160E890C890C013908002000CB
:101D3C00911DA12EA22E9D2E080020002108E2004C
:101D4C002008E100080020002108E4002008E3003E
:101D5C000800640080010131890BB02E0034210091
:101D6C003C108E313C268E310430080021003C148E
:101D7C0036358E3191268E310330080021003C140B
:101D8C000314360D8E3191268E3105300800283023
:101D9C008E31F7268E31C8300032890BD22E0800D6
:101DAC00240094010830950096010430920095129D
:101DBC00080020002508A1002408A0002608A20085
:101DCC00003086318F268E31080020002508A100B6
:101DDC002408A0002608A200023086318F268E31FE
:101DEC0008002000B800B50138088731CD278E31A6
:101DFC00C8300032890BFF2E0800200061086204F5
:101E0C000319092F0A2F0F2F62088A0061080A0094
:101E1C008F3108002000630864040319162F172F54
:101E2C001C2F64088A0063080A008F310800242FD5
:101E3C008E319D268F318531EE258F312100BC18D6
:101E4C00282F292F1E2F08002400951A2E2F2F2FF4
:101E5C00362F9401083095009601043092009516A7
:101E6C0008002000B800B501B50A38088731CD2725
:101E7C008F31C8300032890B402F08002000181D0C
:101E8C00482F492F502F1810710897007008960092
:101E9C001814542F71089700700896000800200041
:101EAC009901FD3097008F30960011101708F6003D
:101EBC001608F5002100111431302000980008009C
:101ECC002000A81B6A2F6B2F6C2F772F2709A900D6
:101EDC002809AA00A90A0319AA0A2908A7002A088E
:101EEC00A800080002302000A0000030A100270844
:101EFC008F31EB278F3100302000A400A500A60104
:101F0C008E31DF268F310430080001302000A00014
:101F1C000030A10027088F31EB278F3100302000D3
:101F2C00A400A500A6018E31DF268F3102300800F7
:101F3C0002302000A0000030A10027088F31EB27D1
:101F4C008F3100302000A400A500A6018E31DF26C1
:101F5C008F310230080001302000A0000030A100B9
:101F6C0027088F31EB278F3100302000A400A5000B
:101F7C00A6018E31DF268F31043008008E31D62633
:101F8C008F3187314C278F318731F9278F318E3143
:101F9C0051268F318F3155278F318F31D7278F3184
:101FAC00080021001508C0391038950006302000B3
:101FBC0095000630F8000B118B162630A0000E3061
:101FCC00A1008E31A3268F3108002000A200210031
:101FDC00BC1DF12FF22FFF2F200022082100B7008B
:101FEC00200021082100B900200020082100B800A1
:101FFC00BC110800423454344E342034253464343B
:10200C002034533468346F347234743400344234B2
:10201C0054344E3420342534643420344C346F34EE
:06202C006E34673400343D
:020000040001F9
:04000E00E43FFF1EAE
:00000001FF
