:020000040000FA
:1000000080312628053008007E1480318B1E092897
:100010000A2812280B1D0D280E28122888319A2034
:10002000803124280B1F1528162824282100111C94
:100030001A281B2824282000111C1F2820282428C7
:1000400088316B20803124287E10090080312828D7
:10005000E1308400963085006630860000308700ED
:1000600004308731FA278031DD30840096308500F6
:10007000EA3086000030870004308731FA2780316B
:10008000FA01FB01EA01A0308400003085004A300B
:1000900088310020803120308400013085004E30CE
:1000A000883100208031A0308400013085002C3060
:1000B0008831002080317E1020008331622B2000A7
:1000C000AE00240886008701403FA600413FA700FC
:1000D00026088400270885001200253A031D712890
:1000E0007228C82924088600870101308107413120
:1000F0000318810A2100B601B7010310003003186C
:100100000130D200FF30B800FF30B90020002408D1
:1001100086008701403FAC00413FAD002C088400C1
:100120002D0885001200643A031997289828A22800
:100130002C0884002D0885001200693A031DA128AF
:10014000A2282E2925088600870101088400850140
:1001500002308107003FB000013FB1002C08013E92
:10016000A60000302D3DA700240886008701260840
:10017000C03F2708C13F2030B400B11BC028C228AF
:100180000130C3280030AF000130B4023408203EF3
:100190008600013087000A30F2000030F300310899
:1001A000F5003008F4008D310425803173082000FB
:1001B000A1007208A0009731DB27803120002008C1
:1001C000303E81000A30F2000030F3003108F500C3
:1001D0003008F4008E310A26803173082000B10007
:1001E0007208B000300831040319F728F828FD28F8
:1001F0003408031DFC28FD28C428340803190129EC
:10020000022927292F080319062907292729013040
:10021000B4023408203E8600013087002D30810072
:1002200027293408203E8600013087000108A600F7
:10023000A7012608F2002708F3002E08F4008C31ED
:10024000B324803101302000A6002608B4072030F6
:100250003406031D2C292D291129E029AF0124087A
:1002600086008701403FA600413FA7002608840082
:10027000270885001200733A031D3F2940294B29A6
:100280002408860087010130810741310318810A63
:10029000AF01AF0A8D29240886008701403FA600E0
:1002A000413FA700260884002708850012006C3A09
:1002B000031D5B295C298D29240886008701403FA6
:1002C000A600413FA7000130260784002708031835
:1002D000270A850012006C3A031D6F2970298D29A9
:1002E000240886008701403FA600413FA700023056
:1002F0002607840027080318270A85001200733A8E
:10030000031D832984298D29240886008701033051
:10031000810741310318810A48292F0803199129BF
:100320009229BE29250886008701010884008501DD
:1003300002308107003FAA00013FAB00B4292A0820
:1003400086002B0887000108A600A7012608F200F6
:100350002708F3002E08F4008C31B32480310130DB
:100360002000AA070030AB3D2A0886002B08870032
:100370000108031DBC29BD299F29E029200024086C
:10038000860087010130810741310318810AE02985
:10039000240886008701403FA600413FA7002608A9
:1003A0008400270885000008A800A9012808F20099
:1003B0002908F3002E08F4008C31B3248031BE29C3
:1003C0000800F8010B30F2007808883141208131B3
:1003D000A03EF900372B7908053E860001308700E2
:1003E0000030C03FC13F7908033E860001308700DE
:1003F0000030C03FC13F790A8600013087000030DD
:10040000C03FC13F79080A3E8600013087000103E2
:10041000031D0B2A0C2A572B790886000130870010
:100420008101810A572B79080A3E86000130870036
:100430000103031D1C2A1D2A3E2A790A8600013069
:1004400087000A30810741310318810A790A860042
:1004500001308700403FF600413FF700003077024F
:100460000A3003197602031C362A372A572B7908DB
:1004700086000130870002308100572B7908860002
:10048000013087008101572B79080A3E8600013030
:1004900087000103031D4D2A4E2A7E2A790A860011
:1004A000013087000A30810741310318810A790A37
:1004B000860001308700403FF600413FF7000130E1
:1004C0007702903003197602031C672A682A572B9B
:1004D0007908073E8600013087008101810A79088A
:1004E000033E8600013087000030C03FC13F7908DD
:1004F00086000130870004308100572B7908053EC3
:100500008600013087000030C03FC13F7908860077
:100510000130870005308100572B79080A3E86009C
:10052000013087000103031D962A972AC32A790800
:10053000033E8600013087000A30810741310318ED
:10054000810A7908033E860001308700403FF600AB
:10055000413FF70000307702283003197602031C70
:10056000B22AB32A572B7908033E86000130870050
:100570000030C03FC13F7908083E86000130870047
:100580008101810A572B790A8600013087000030EB
:10059000C03FC13F7908053E86000130870000302A
:1005A000C03FC13F790886000130870005308100D7
:1005B000572B7908053E8600013087000A308107F5
:1005C00041310318810A7908053E86000130870011
:1005D000403FF600413FF700003077020A30031930
:1005E0007602031CF42AF52A572B790A860001307B
:1005F0008700403FF600413FF700003077020A30A5
:1006000003197602031C052B062B252B790A86007D
:1006100001308700403FF600413FF700013077028C
:100620009030031976020318162B172B252B790807
:10063000093E8600013087008101810A7908860021
:100640000130870003308100572B79088600013084
:10065000870081017908073E86000130870081010B
:10066000572B79088600013087008101572B7908C4
:100670008600013087000108F600F7017708003A8C
:100680000319432B572B7608003A0319EB29013A3B
:100690000319132A033A0319442A013A0319312B87
:1006A000073A03198D2A013A0319D92A572B013029
:1006B000F6007608F80704307802031C602B612BE3
:1006C000E22908008831192083312C30F2000830EB
:1006D000F3009731282783312E30F2000F30F300DA
:1006E00097312E2783318B170B178831CD2083311B
:1006F0009731ED2783318D31AD2583318E316A26D7
:10070000833121005E080319862B872BAF2BDE0176
:10071000031020000D1C03140030031801302300C7
:10072000AA00031020008D1C0314003003180130B0
:100730002300B500031020000D1D03140030031822
:1007400001302300C000031020008D1D0314003071
:10075000031801302300CB008131E12183312100D6
:100760005D080319B42BB52B662CDD014E2C20003F
:10077000AF01003089311F2183312000D801D80A10
:100780006908DA006808D9005D30DB006A08843146
:10079000742483315D308831B32083312000AF0170
:1007A000AF0A003089311F21833102302000D80088
:1007B0006708DA006608D9005D30DB006A0884311A
:1007C000742483315D308831B3208331662C20005E
:1007D000AF01003089311F21833100302000BC007F
:1007E0009830BD005D3089313C2183315D308831E6
:1007F000B32083312000AF01AF0A003089311F21BF
:10080000833102302000D8006708DA006608D9007A
:100810005D30DB006A088A31272283315D30883100
:10082000B3208331662C2000AF01003089311F21B5
:1008300083312000D801D80A6908DA006808D90095
:100840005D30DB006A088631DE2683315D30883119
:10085000B32083312000AF01AF0A003089311F215E
:10086000833102302000D8006708DA006608D9001A
:100870005D30DB006A088631DE2683315D308831E9
:10088000B32083312000AF0121005C0889311F2192
:1008900083310E3089315A218331662C5B08003A4E
:1008A0000319B72B013A0319E72B033A0319132C49
:1008B000592C662C8E31CC268331812B8F31922797
:1008C0008331812B85316E258331812B21005B089B
:1008D000003A03195A2C013A03195E2C033A031902
:1008E000622C812B803126282300CC000030D300DD
:1008F0000030D2000030D1000030D0000030CD00F8
:100900000030CE000030CF0020005A08A100590866
:10091000A000D030A2000130A300863150268431DF
:1009200020005803031D952C962CA62CCD30F200E8
:100930000130F300E730F4000030F5000330F6003A
:100940000030F7008B31E1238431612DCD30F2008E
:100950000130F3003230F4009830F5000330F60037
:100960000030F7008B31E1238431612D20302000ED
:10097000BC009030BD005808DC00DD015C08BE0002
:100980005D08BF00230050082000DE00DF015E0884
:10099000C0005F08C100230051082000E000E10111
:1009A0006008C2006108C300230052082000E20072
:1009B000E3016208C4006308C50023005308200057
:1009C000E400E5016408C6006508C700CD30C80032
:1009D0000130C9005B0889313C2184316D2D3530EF
:1009E0002000BC009030BD005808DC00DD015C0830
:1009F000BE005D08BF00230050082000DE00DF01BC
:100A00005E08C0005F08C100230051082000E0001C
:100A1000E1016008C2006108C30023005208200001
:100A2000E200E3016208C4006308C5002300530824
:100A30002000E400E5016408C6006508C700CD3069
:100A4000C8000130C9005B0889313C2184316D2D1B
:100A50004A302000BC009030BD005808DC00DD01A9
:100A60005C08BE005D08BF00230050082000DE00C7
:100A7000DF015E08C0005F08C100230051082000AC
:100A8000E000E1016008C2006108C30023005208D1
:100A90002000E200E3016208C4006308C5002300EF
:100AA00053082000E400E5016408C6006508C7009B
:100AB000CD30C8000130C9005B0889313C21843148
:100AC0006D2D23004C08013A0319B62C033A031983
:100AD000EF2C013A0319282D6D2D0800E33020007A
:100AE000B100AA2DE3302000B10003302100DC006A
:100AF000C52DE4302000B10004302100DC00C52DFC
:100B0000E5302000B10005302100DC00C52DE630C5
:100B10002000B10006302100DC00C52DDF302000B0
:100B2000B10043302100DC00C52DE0302000B100D1
:100B300044302100DC00C52DE1302000B1004530FB
:100B40002100DC00C52DE2302000B100463021003C
:100B5000DC00C52D21005408013A0319722D033A17
:100B60000319792D013A0319802D073A0319872DAE
:100B7000013A03198E2D033A0319952D013A0319F1
:100B80009C2D0F3A0319A32DC52D23002908031905
:100B9000CA2DCB2DEA2DA9010130F9002000310822
:100BA00086008701790881070A306A02031CD92D63
:100BB000DA2DDE2D31088600870181010310220025
:100BC0000E1C03140318E52DE82D22000E14EA2D47
:100BD00022000E10230034080319EF2DF02D0A2EE9
:100BE000B4010130F90079082100D407093054021A
:100BF000031CFB2DFC2DFE2DD401D40A0310220072
:100C00000E1C03140318052E082E22000E140A2EA3
:100C100022000E1023003F0803190F2E102E2E2E37
:100C2000BF0120006A08031D162E172E1D2E310845
:100C30008600870109308100222E31088600870155
:100C400001308102031022000E1C03140318292E08
:100C50002C2E22000E142E2E22000E1023003208FD
:100C60000319332E342E4F2EB201031022000E1C16
:100C7000031403183C2E3F2E22000E14412E220096
:100C80000E102100DB01E330F800683087316B275C
:100C90008531DF30F800663087316B2785310800F9
:100CA000E830F2000330F30020002108F5002008AE
:100CB000F4008B31A523863173082000A800720848
:100CC000A70022088600230887002708810028083B
:100CD000F3002708F2001830F400FC30F5008931E9
:100CE00078218631200020087207A0002108733D7A
:100CF000A1006430F2000030F3002108F500200864
:100D0000F4008B31A523863173082000A8007208F7
:100D1000A7002208013EA4000030233DA5002408BE
:100D2000860025088700270881002808F300270887
:100D3000F2009C30F400FF30F500893178218631D3
:100D4000200020087207A0002108733DA1000A308E
:100D5000F2000030F3002108F5002008F4008B3188
:100D6000A523863173082000A8007208A700220876
:100D7000023EA4000030233DA5002408860025087B
:100D80008700270881000A30F2000030F3002108B4
:100D9000F5002008F4008B313B23863172082000D7
:100DA000A4002208033EA5000030233DA60025082C
:100DB00086002608870024088100080000302300F0
:100DC000D2000030D1000030D0000030CF00003021
:100DD000CC000030CD000030CE0020005803031DB1
:100DE000F22EF32E132FCC30F2000130F300E73057
:100DF000F4000030F5000330F6000030F7008B31CE
:100E0000E1238631210063082300CF00210064081C
:100E10002300D000210065082300D10021006608CE
:100E20002300D200322FCC30F2000130F3003230F8
:100E3000F4009830F5000330F6000030F7008B31F5
:100E4000E123863121005F082300CF0021006008E4
:100E50002300D000210061082300D1002100620896
:100E60002300D20020302000BC009030BD00580884
:100E7000DC00DD015C08BE005D08BF0023004F08F8
:100E80002000DE00DF015E08C0005F08C100230013
:100E900050082000E000E1016008C2006108C300C2
:100EA000230051082000E200E3016208C400630847
:100EB000C500230052082000E400E5016408C600D4
:100EC0006508C700CC30C8000130C9005B08893113
:100ED0003C21863108002000B00078088600870198
:100EE0000108A000A1012008A8002108A900780A93
:100EF000860087010108A000A1012008AA0021089E
:100F0000AB007808023E860087010108A000A1011D
:100F10002008AC002108AD007808033E8600870158
:100F20000108A000A1012008AE002108AF00290897
:100F3000F3002808F200E830F4000330F5008931AE
:100F40007821873172082000A0007308A1002B08C7
:100F5000F3002A08F2006430F4000030F500893113
:100F600078218731720820002007A2007308213DF4
:100F7000A3002D08F3002C08F2000A30F400003022
:100F8000F500893178218731720820002207A400FA
:100F90007308233DA5002E082407A6002F08253D31
:100FA000A7003008860087012608C03F2708C13FF8
:100FB00008002000A400A501A50A2200DC18E12FEA
:100FC000E22FF72FDC142000A50124080319E92FD4
:100FD000EA2FEE2F2200DA01DA0AF12F0230220086
:100FE000DA009631BF268731973184278731200078
:100FF00025080800FE0012001E00FE0BFB2F003427
:10100000640080010131890B01280034200099011E
:1010100063309700C0309600111017082100D100EE
:10102000200016082100D000111411302000980073
:10103000080097314C2788318831E8208831973172
:101040006B2788319631D92688318831062088313E
:1010500097319E27883108000130F0007008210088
:10106000DA07DE01DE0A0130F0007008D9076430CB
:101070005902031C3C283D284028D901DD01DD0A26
:101080000800F500F401751C462847284B28720813
:10109000F3007308F4070310F20D0310F50C750844
:1010A000031D53285428432874080800F5006400E1
:1010B000230095185C285D2857287508F200F30175
:1010C00072089100730892003F30F400740895058F
:1010D0001514130808002000111021005108F10018
:1010E0005008F0009731B927883121004E084F048D
:1010F00003197B287C2881284F088A004E080A00A3
:1011000088310800F201F20A2200DC1888288928B8
:1011100098285C11FF30D6009631B626883196317A
:10112000BC2688319631B926883122005B08F2004E
:10113000720808000B117B08200095000130210087
:10114000CA070030CB3D00304B02023003194A027F
:10115000031CAB28AC28B2289731772788312100AF
:10116000CA01CB0108002000B000C3283008860067
:101170000130870001088931B62188310130200013
:10118000AF002F08B0073008860001308700010843
:10119000031DCB28CC28B628080022000E11210000
:1011A000D301E730F2000030F3003630F40098301D
:1011B000F5000330F6000030F7008B31E123883171
:1011C00003302000EA002100DB01D401D40A08002A
:1011D000220090018C018D018E01083021009000C9
:1011E000FF308C00FF308D00F8308E0023008D0121
:1011F0003F308C00240090013F308D00210095137A
:1012000022009D0108002000B9003608BB00350807
:10121000BA0012293A30A4003708A50039088031F5
:101220005F20893120003A0884003B0885001200C5
:10123000031D1B291C290A29B501B601080020003D
:10124000B40021006D082000B30021006C082000CC
:10125000B20021006B082000B10021006A082000C4
:10126000B0002F08303E860087010108340780381F
:1012700089315A21893108002000D7003E30CB0047
:101280005708CC00CE01CF01D501D6013D08B600EC
:101290003C08B5004B30B7004C308931032189310F
:1012A00020004E085707CA004A0886000130870010
:1012B000810108002000AE00A9012E08AD00043015
:1012C000AD36890B60292D088A317B2289312000B7
:1012D000A9012E080F398A317B228931153020006F
:1012E000AD00C630890B7229AD0B722900000800D1
:1012F000F601F701721C7D297E2982297408F60700
:101300007508F73D0130F435F50D890B832901305F
:10131000F336F20C890B882972087304031D912996
:1013200092297A297708F3007608F2000800200055
:10133000A70027088831562089312000A5002708FA
:10134000013E8831562089312000A6002508A000E2
:10135000A1012608A200A3012208A300A2012008DF
:101360002204F60021082304F70008002000AE0044
:10137000A901A90A2E08AD000430AD36890BBD299C
:101380002D088A317B2289312000A901A90A2E0863
:101390000F398A317B22893115302000AD00C630EB
:1013A000890BD029AD0BD02900000800F500720888
:1013B00073040319DC29DD29EE297535403E8600CA
:1013C000013087007208C03F7308C13F75084C3E6A
:1013D00086000130870074088100FD297535403E84
:1013E000860001308700B430C03F1630C13F750819
:1013F0004C3E860001308700810108009631B626F8
:10140000893122005C1C052A062A112A97311C27E3
:101410008931003A03190D2A0E2A112A0F302200B1
:10142000DA0022005A082000A200A301A235A30D71
:101430000030220784001030233D80388500013FB2
:101440008A00003F0A008A312200DA0008002000EA
:10145000DC00452A1130BC009830BD005B088931A2
:101460003C218A31502A1C30BC009830BD005B08FA
:1014700089313C218A31502A2730BC009830BD0088
:101480005B0889313C218A31502A5C08013A0319F2
:101490002A2A033A0319332A013A03193C2A502A0B
:1014A000080022005C100230DB005E2A9631F9262B
:1014B0008A317A2A9631FE268A317A2A4E08F90034
:1014C0000430403E860001308700413F8A00403FA3
:1014D0000A008A312000A000A1012108003A031966
:1014E000722A5A2A2008023A0319562A013A031985
:1014F000562A5A2A08002000AB002B08AA00033005
:10150000AA35FF3E031D802A2A350838AC00290879
:1015100003198B2A8C2A8D2A2C14A6012C08043836
:10152000A70027308A31D6228A310B302000AA004A
:101530006230890B992AAA0B992A00002000A60183
:101540002C08FB39A70027308A31D6228A310800BF
:101550002200DC15B82A9631F9268A31D52A96312F
:10156000CE268A310330D52A9631FE268A31D52AF5
:101570004C08F90041088A0040080A008A3120001E
:10158000A000A1012108003A0319C72AB42A2008A3
:10159000013A0319B42A033A0319AB2A013A031991
:1015A000AB2A073A0319AF2AB42A08002000A80082
:1015B000200028088B316F238A31003A0319E12A71
:1015C000E22AD82ACA30F6001730F7002730F80090
:1015D000973155278A310130F2000030F300263070
:1015E0009731AB278A310030F600F7000030F80061
:1015F000F900973160278A31973117278A3188316E
:1016000082208A31013A0319062B072BFF2A080092
:101610002B2B2100C401C501BE01BF01D601372B10
:101620002100C601C701C001C101D701372B21002C
:10163000C201C301D801372B2100C401C501BE017D
:10164000BF01D601C601C701C001C101D701C20156
:10165000C301D801372B20006A08013A0319092B6E
:10166000033A0319102B013A0319172B1C2BBC0149
:10167000BD01D5010800720873040319402B412BEA
:101680006A2BF701F70A4D2B0130F235F30D890B68
:10169000452B0130F6007608F707F31F502B512B2E
:1016A000442B73087502031D572B72087402031C28
:1016B0005A2B5B2B5F2B7208F4027308F53B013049
:1016C000F336F20C890B602B0130F702031D692BF6
:1016D0006A2B512B7508F3007408F2000800F20021
:1016E000F301F30A22005C19762B772BA32B7208E7
:1016F000D600DC105C155C100E30DA00F430D4003B
:101700000130D500DC15B430C0001630C100CC016A
:10171000B430C2001630C300CD01B430C40016305E
:10172000C500CE01B430C6001630C700CF0102306C
:10173000C8000030C900D0019631B6268B319731F0
:1017400091278B31F30173080800F801F901720841
:1017500073040319AC2BAD2BDC2BF701F70AB92B63
:101760000130F235F30D890BB12B0130F60076080C
:10177000F707F31FBC2BBD2BB02B0130F835F90D4B
:10178000890BBE2B73087502031DC82B72087402E7
:10179000031CCB2BCC2BD12B7208F4027308F53B26
:1017A00078140130F336F20C890BD22B0130F7029A
:1017B000031DDB2BDC2BBD2B7908F3007808F2002E
:1017C00008007308F9007208F800092C0130F602CD
:1017D0000030F73B79082000A1007808A000F80A43
:1017E0000319F90A20088600210887007508A3005C
:1017F0007408A200F40A0319F50A220884002308D9
:1018000085000008C03F8908031D072C082C092CFF
:10181000192C76087704031D0E2C0F2CE62B192C9F
:10182000780886007908870081010130F8070030C8
:10183000F93D0130F6020030F73B760A031D242CF7
:10184000770A031D242C252C102C08002200570891
:10185000860087019631CB268C3181000130200033
:10186000A00020082200D7070130D8020030D93B61
:101870005808590403193D2C3E2C432C9631D5268B
:101880008C3105306A2CDC154D2C97310D278C31AD
:101890006A2C973108278C316A2C4C08F9004108D2
:1018A0008A0040080A008C312000A000A101210814
:1018B000003A03195C2C492C2008013A0319492CE1
:1018C000033A0319452C013A0319452C073A031929
:1018D000492C492C08007A08031D6F2C702C732C9E
:1018E00022000E11B22C210055080319782C792CF6
:1018F000B22CD5015308031D7E2C7F2C992C20007F
:10190000690821003D02031D892C20006808210080
:101910003C02031C8C2C8D2CB22CC201C301C001D3
:10192000C101BE01BF0122000E112100D301D30A63
:10193000B22C2000670821003D02031DA32C2000CB
:10194000660821003C02031CA62CA72CB22CC20165
:10195000C301C001C101BE01BF0122000E1521005B
:10196000D301B22C080074080319B72CB82CBD2C75
:101970007408031DBC2CBD2CC22C72089631B326F2
:101980008C31032D7408093E86008701160001047E
:101990000319CB2CCC2CEA2C7408093E8600870155
:1019A000403FF500413FF6007408023E8600870183
:1019B000403FF700413FF8007808803AF900760888
:1019C000803A7902031DE62C750877020318E92C8A
:1019D000EA2C032D7408860087017408023E8400F7
:1019E000850100080107F5007508860001308700B1
:1019F000720881007408023E860087010130810769
:101A000041310318810A0800F801F51F082D092D3E
:101A1000102DF409F509F40A0319F50AF801F80A7A
:101A2000F31F132D142D192DF209F309F20A0319CE
:101A3000F30A7208730403191E2D1F2D482DF70198
:101A4000F70A2B2D0130F235F30D890B232D0130D0
:101A5000F6007608F707F31F2E2D2F2D222D730881
:101A60007502031D352D72087402031C382D392DA3
:101A70003D2D7208F4027308F53B0130F336F20C89
:101A8000890B3E2D0130F702031D472D482D2F2DC8
:101A9000780803194C2D4D2D522DF409F509F40A3F
:101AA0000319F50A7508F3007408F200080097316D
:101AB0001C278D31003A03195E2D5F2D8F2D6C2D63
:101AC0009631EF268D31AC2D9631F4268D31AC2D2B
:101AD0009631FE268D31AC2D22004F08F9000630DC
:101AE000403E860001308700413F8A00403F0A00A7
:101AF0008D312000A000A1012108003A0319812D99
:101B0000682D2008013A0319682D033A0319602D46
:101B1000013A0319642D073A0319682D682D220034
:101B20005C101730403E860001308700403F840043
:101B30008501810A00089631E5268D3101302200A9
:101B4000D8020030D93B58085904031DA82DA92DEF
:101B5000AB2D0630AC2D03300800F7010B30F2003E
:101B60007708883141208D31A03E86000130870002
:101B700081010B30F2007708883141208D31A13E80
:101B80008600013087000030C03FC13F0B30F200BB
:101B90007708883141208D31A53E860001308700CD
:101BA0000030C03FC13F0B30F20077088831412040
:101BB0008D31A73E86000130870081010B30F20095
:101BC0007708883141208D31A83E8600013087009A
:101BD00081010B30F2007708883141208D31A93E18
:101BE00086000130870081010B30F20077088831D0
:101BF00041208D31AA3E86000130870081010130ED
:101C0000F6007608F70704307702031C082E092E29
:101C1000AE2D08002000A101F31F0F2E102E172E4D
:101C2000F209F309F20A0319F30AA101A10AF51F47
:101C30001A2E1B2E242EF409F509F40A0319F50AAD
:101C40000130F6007608A106A201A3017208730410
:101C500003192B2E2C2E5B2EA001A00A382E01304A
:101C6000F235F30D890B302E0130F6007608A0070F
:101C7000F31F3B2E3C2E2F2E0130A235A30D890BD6
:101C80003D2E73087502031D472E72087402031C53
:101C90004A2E4B2E502E7208F4027308F53B221484
:101CA0000130F336F20C890B512E0130A002031DD6
:101CB0005A2E5B2E3C2E210803195F2E602E652EB6
:101CC000A209A309A20A0319A30A2308F300220800
:101CD000F200080003302000B0000830AF00773079
:101CE000890B702EAF0B702EB00B702E2000A90147
:101CF00003308A317B228E3134302000AF00F13046
:101D0000890B802EAF0B802E00322000A9010330FA
:101D10008A317B228E3134302000AF00F130890BC4
:101D20008F2EAF0B8F2E00322000A90103308A3195
:101D30007B228E3134302000AF00F130890B9E2E93
:101D4000AF0B9E2E00322000A90102308A317B2287
:101D50008E310B302000AF006230890BAD2EAF0BFF
:101D6000AD2E0000283089315A218E310E30893154
:101D70005A218E31063089315A218E310130893114
:101D80005A218E3115302000AF00C630890BC62E87
:101D9000AF0BC62E00000800230032080319D12E15
:101DA000D22EF32EB2012100DB01DB0AFA01E7306B
:101DB000F2000030F3003630F4009830F5000330C4
:101DC000F6000030F7008B31E1238E3122000E1136
:101DD00003100E1C03140318EE2EF12E22000E1415
:101DE000F32E22000E1023004A080319F82EF92EB4
:101DF0002D2FCA017A080319FE2E002F0130012F62
:101E00000030FA007A080319062F072F1C2F8B3198
:101E100008238E31E730F2000030F3003A30F4004E
:101E20009830F5000330F6000030F7008B31E123E5
:101E30008E3122000E152D2F22000E11E730F200F8
:101E40000030F3003630F4009830F5000330F6002F
:101E50000030F7008B31E1238E3108000130210082
:101E6000C8070030C93D0130C6070030C73D01300A
:101E7000C4070030C53D0130C2070030C33DD80162
:101E8000D80A033020006A06031D472F482F4F2F22
:101E90002100D501D50A4308BD004208BC0000302E
:101EA000210047020A3003194602031C582F592FFC
:101EB0006F2FC601C7010130C0070030C13DD701F7
:101EC000D70A023020006A06031D672F682F6F2F84
:101ED0002100D501D50A4108BD004008BC000030F2
:101EE00021004502643003194402031C782F792F26
:101EF0008E2FC401C5010130BE070030BF3DD601A1
:101F0000D60A20006A03031D862F872F8E2F2100FB
:101F1000D501D50A3F08BD003E08BC008C316B24BA
:101F20008F310800230029080319972F982FB22F0B
:101F3000A90101302000A9002908EA0704306A023B
:101F4000031CA32FA42FA62FEA01EA0A03102200E4
:101F50000E1C03140318AD2FB02F22000E14B22F45
:101F600022000E10230032080319B72FB82FE22FDA
:101F7000B20102302100DB00D401D40A200069083C
:101F8000A1006808A000E330A2000030A300863161
:101F900050268F3120006908A1006808A000DF30BA
:101FA000A2000030A300863150268F31031022009A
:101FB0000E1C03140318DD2FE02F22000E14E22F55
:101FC00022000E1023003F080319E72FE82FFF2FF0
:101FD000BF0101302000EA026A08031DF02FF12F33
:101FE000F32F0330EA00031022000E1C0314031821
:101FF000FA2FFD2F22000E14FF2F22000E100800D2
:10200000EA341634433417343B34173457340D3420
:1020100026340C3434341734A8340A34EF341634EC
:10202000F4341634F9341634FE34163403341734C9
:10203000083417340D3417341234173451340A3439
:102040005434253464343A342534643425346434C7
:1020500025346434253464342E345334203420340D
:10206000203420342534733400345434253464341B
:102070003A342534643425346434253464342E34BD
:10208000253464345334203420342034203425342F
:10209000733400345434253464343A34253464348D
:1020A000253464342E342534643425346434533474
:0E20B00020342034203420342534733400349E
:102D66000800013008002000911108002400951287
:102D76000800210091110800240016140800240000
:102D8600961408002400161508002400961508005D
:102D9600240011080800200091150800240096164A
:102DA6001616080024009612161608001630210082
:102DB600970008000034403414345434013400348D
:102DC60001340034F2007208240091000800220049
:102DD600DC10DB010E3008009631C2269631013038
:102DE60008009631C2269631023008009631C22676
:102DF6009631013008009631C5269631003008001C
:102E06009631D5269731053008009631D12697316F
:102E16000A3008009631D126973109300800220081
:102E2600DC10DB010E30080000308731D9279731DE
:102E360008002400160E890C890C013908002000B0
:102E4600911D262F272F222F080073082100CD0061
:102E56007208CC00080073082100CF007208CE006B
:102E6600080022005C109631C8269731043008000D
:102E760022005C1456359631E5269731033008005A
:102E860022005C140314560D9631E5269731053061
:102E96000800240094010830950096014F309200F6
:102EA600951208007708F3007608F2007808F40017
:102EB60000308931D621973108007708F30076086B
:102EC600F2007808F40002308931D62197310800E3
:102ED60070302100990098012200960121001A1FE6
:102EE600752F762F712F080021004C084D04031909
:102EF6007D2F7E2F832F4D088A004C080A009731BC
:102F060008008B2F9731222797318931FE2197317F
:102F16002200DC188F2F902F852F08002400951A89
:102F2600952F962F9D2F94010830950096014F30CE
:102F360092009516080021001508C039173895002B
:102F46006430200095006430FB000B118B160800DE
:102F5600F4002200DC1DB02FB12FB82F7408D70063
:102F66007308D9007208D800DC1108002000181D6B
:102F7600BD2FBE2FC52F1810710897007008960038
:102F86001814C92F710897007008960008000130C0
:102F9600F2000030F30079089731AB279731003003
:102FA600F600F700F80197315527973104300800ED
:102FB6002000A11BDF2FE02FE12FEC2F2009A2001C
:102FC6002109A300A20A0319A30A2208A0002308C4
:102FD600A100080000308931972197317708200039
:102FE600E9007608E800083089319721973177089B
:102FF6002000E7007608E6000800463475346E3493
:103006006334743469346F346E34533465347434D1
:1030160020344D346F3464346534003455346E34A2
:10302600693474343A3431342E34303430345334D1
:10303600003455346E34693474343A3430342E34B2
:10304600313430345334003455346E346934743486
:103056003A3430342E34303431345334003420345E
:103066002034203400344F3446344634003420347F
:063076004F344E3400341B
:020000040001F9
:04000E00E43FFF1FAD
:10E0000023000000FF00FF00FF00FF00FF00FF00F3
:10E0100023000000FF00FF00FF00FF00FF00FF00E3
:00000001FF
