:020000040000FA
:1000000080312628053008007E1480318B1E092897
:100010000A2812280B1D0D280E28122889315A2172
:10002000803124280B1F1528162824282100111C94
:100030001A281B2824282000111C1F2820282428C7
:1000400089311421803124287E100900803128282C
:100050002100973195278031EA009731962780312A
:10006000EB00973197278031EC009731982780314A
:10007000ED00FA01FB01A0308400003085004A3019
:100080009731E327803120308400013085004930EA
:100090009731E3278031A030840001308500203083
:1000A0009731E32780317E1020008D31482DF801F3
:1000B0000B30F20078088831D42080312C3EF900D2
:1000C00074297908033E8600013087000030C03F64
:1000D000C13F790A8600013087000030C03FC13F30
:1000E00079080A3E8600013087000103031D792844
:1000F0007A28912979088600013087000230810032
:10010000912979080A3E8600013087000103031D0A
:100110008A288B28BB28790A8600013087000A309C
:10012000810741310318810A790A8600013087006E
:10013000403FF600413FF700013077022C300319B1
:100140007602031CA428A52891297908073E860079
:10015000013087008101810A7908033E8600013061
:1001600087000030C03FC13F79088600013087001A
:100170000430810091297908053E8600013087000E
:100180000030C03FC13F790886000130870005304C
:100190008100912979080A3E860001308700010319
:1001A000031DD328D42800297908033E8600013096
:1001B00087000A30810741310318810A7908033E1C
:1001C000860001308700403FF600413FF7000030D5
:1001D0007702283003197602031CEF28F0289129B2
:1001E0007908033E8600013087000030C03FC13FE0
:1001F0007908083E8600013087008101810A912933
:10020000790A8600013087000030C03FC13F79087D
:10021000053E8600013087000030C03FC13F7908AD
:100220008600013087000530810091297908053E5C
:100230008600013087000A30810741310318810AA6
:100240007908053E860001308700403FF600413FB7
:10025000F700003077020A3003197602031C3129B7
:1002600032299129790A860001308700403FF60043
:10027000413FF70000307702143003197602031C67
:10028000422943296229790A860001308700403FCC
:10029000F600413FF700013077022C300319760257
:1002A00003185329542962297908093E8600013030
:1002B00087008101810A79088600013087000330B8
:1002C0008100912979088600013087008101790831
:1002D000073E860001308700810191297908860058
:1002E000013087008101912979088600013087005B
:1002F0000108F600F7017708003A031980299129CF
:100300007608003A03196128023A03198128013A54
:1003100003196E29073A0319CA28013A0319162945
:1003200091290130F6007608F80704307802031CA2
:100330009A299B29582808002000C6003A08860000
:100340008701403FBC00413FBD003C0884003D08A0
:1003500085001200253A031DAE29AF29BC2A3A08B0
:10036000860087010130810741310318810A21008D
:10037000C301C4010310003003180130DD00FF3059
:10038000C500FF30C6002000C701E5292100DD14AB
:1003900020003A08860087010130810741310318A7
:1003A000810AE529C701C70AE5293A0886008701BD
:1003B000403FBC00413FBD003C0884003D08850033
:1003C0000008303A0319C629D22947080319E92938
:1003D000EA29D5293B08F8003A088731722781318C
:1003E00079082100C4007808C300C41FF829F9293E
:1003F000FF295D14C309C409C30A0319C40A2000F4
:100400003A0886008701403FC400413FC5004408C8
:100410008400450885001200643A0319102A112A45
:100420001B2A44088400450885001200693A031D10
:100430001A2A1B2A3D2A3B088600870101088400EE
:10044000850102308107003FC000013FC100440820
:10045000013EBC000030453DBD003A0886008701E2
:100460003C08C03F3D08C13F4108AF004008AE0016
:1004700046088331A9238131D42AC7013A0886006E
:100480008701403FBC00413FBD003C0884003D085F
:1004900085001200733A031D4E2A4F2A5A2A3A0841
:1004A000860087010130810741310318810AC701A5
:1004B000C70A9C2A3A0886008701403FBC00413F9A
:1004C000BD003C0884003D08850012006C3A031D05
:1004D0006A2A6B2A9C2A3A0886008701403FBC00A2
:1004E000413FBD0001303C0784003D0803183D0A30
:1004F000850012006C3A031D7E2A7F2A9C2A3A0846
:1005000086008701403FBC00413FBD0002303C07F0
:1005100084003D0803183D0A85001200733A031D4C
:10052000922A932A9C2A3A08860087010330810781
:1005300041310318810A572A47080319A02AA12A22
:10054000B22A3B0886008701010884008501023039
:100550008107003FA000013FA10046088531A82582
:100560008131D42A20003A088600870101308107B2
:1005700041310318810AD42A3A0886008701403F96
:10058000BC00413FBD003C0884003D0885000008D8
:10059000BE00BF013E08F2003F08F3004608F40029
:1005A0008D3192258131B22A080021006708031994
:1005B000DA2ADB2AA82BE7019A2B01308A311C2288
:1005C00082312000AF0100308931C4218231210005
:1005D0004C082000E80021004B082000E700210023
:1005E00054082000EA00210053082000E900583098
:1005F000EB00013087311227823158308931742164
:1006000082312000AF01AF0A00308931C42182312C
:1006100021004A082000E800210049082000E700E6
:10062000210052082000EA00210051082000E900C2
:100630005830EB000230873112278231583089312F
:10064000742182312000AF01AF0A0B308931C421FF
:100650008231A82B7A082000AF0003308931C421F1
:10066000823107302000CF009830D00021004808A8
:100670002000D200210047082000D10058308931E5
:10068000FE21823158308931742182317A0820006C
:10069000AF007B088931C4218231A82B2000AF0133
:1006A00007308931C421823107302000CF009830D3
:1006B000D000210054082000D2002100530820005F
:1006C000D10058308931FE2182315830893174216E
:1006D00082312000AF01AF0A07308931C421823155
:1006E00007302000CF009830D000210052082000B1
:1006F000D200210051082000D10058308931FE215C
:100700008231583089317421823121006108031D02
:100710008A2B8B2B8F2BFA010930FB00922BFA01CD
:10072000FA0A8C2B7A082000AF007B088931C4219B
:100730008231A82B6808003A0319DD2A013A03190F
:100740002A2B033A03192A2B013A03194E2BA82B03
:1007500008002000B100B401B40AAF1BB02BB22BCB
:100760000130B32B0030B700210044082000B60050
:10077000210043082000B50037080319C02BC12B06
:10078000D52BFF30B507FF30B63D3708031DC92B09
:10079000CA2BCF2B2B30B2000030B300D32B2D301F
:1007A000B2000030B3003208B7001F30B80000308C
:1007B000B9002300BF01122CFF302000B807FF3022
:1007C000B93D3808A03E8600013087000A30F200AB
:1007D0000030F3002F08F5002E08F4008D31E325DA
:1007E000833173082000A1007208A000883189209D
:1007F000833120002008303E8100B401FF30B5076E
:10080000FF30B63D0A30F2000030F3002F08F5004B
:100810002E08F4008F31A027833173082000AF0029
:100820007208AE0020003908803AB00080303002F3
:10083000031D1C2C01303802031C1F2C202C3E2CC5
:1008400020002E082F04031D262C272CDC2B340817
:10085000031D2B2C2C2CDC2B3608803AB00080306A
:100860003002031D352C01303502031C382C392C85
:100870003E2C2100DD183D2C3E2CDC2B20003708BF
:100880000319432C442C4F2CFF30B807FF30B93DDF
:100890003808A03E860001308700370881003808FC
:1008A000A03EA7003608A9003508A80031088C3101
:1008B000C1248331080022003E080319602C612CFA
:1008C000862CBE01C001B501B301B401CB01C90141
:1008D000CA01D6012100E701E70A031022000E1C1D
:1008E00003140318742C772C22000E14792C220088
:1008F0000E102100E8010B30FB00FA01FA0A7A0819
:100900002000AF007B088931C421843122004008D7
:1009100003198B2C8C2CC92CC0012100E701E70A9C
:10092000031022000E1C03140318972C9A2C22008B
:100930000E149C2C22000E1002302100E8006208E8
:1009400089312B2184312100E201E20A62088931D8
:10095000E121843173082100C8007208C7004C08E7
:10096000F7004B08F60000308831FE20843121006A
:100970004A08F7004908F60002308831FE20843129
:10098000FA01FA0A7A082000AF007B088931C421F5
:10099000843122003508031DCE2CCF2CD42C3408F2
:1009A0000319D32CD42CE92CB501B4012100E701A3
:1009B000E70A03304802E730031947020318E12C25
:1009C000E22CE72C0130C7070030C83DE92CC701F5
:1009D000C80122004B08031DEE2CEF2CF42C4A0812
:1009E0000319F32CF42C082DCB01CA012100E701D7
:1009F000E70A470848040319FE2CFF2C042D013098
:100A0000C7020030C83B082DE730C7000330C800DC
:100A1000080022003E0803190E2D0F2D342DBE01B3
:100A2000C001B501B301B401CB01C901CA01D601AE
:100A30002100E701E70A031022000E1C031403182B
:100A4000222D252D22000E14272D22000E1021000C
:100A5000E8010B30FB00FA01FA0A7A082000AF0027
:100A60007B088931C4218531220040080319392DC2
:100A70003A2D682DC0012100E701E70AE801E80AE4
:100A8000620889312B2185312100E2016208893118
:100A9000E121853173082100C8007208C7004C08A5
:100AA000F7004B08F60000308831FE208531210028
:100AB0004A08F7004908F60002308831FE208531E7
:100AC000FA017A082000AF007B088931C421853102
:100AD00022003508031D6D2D6E2D732D340803196A
:100AE000722D732D882DB501B4012100E701E70AAD
:100AF00003304802E730031947020318802D812D87
:100B0000862D0130C7070030C83D882DC701C801B8
:100B100022004B08031D8D2D8E2D932D4A0803199D
:100B2000922D932DA72DCB01CA012100E701E70AE1
:100B30004708480403199D2D9E2DA32D0130C7029F
:100B40000030C83BA72DE730C7000330C8000800BD
:100B50002000A8002108AA002008A90029082A04CA
:100B6000031DB32DB42DB82D0030A9009830AA0074
:100B7000AB01AC01BF2D0130AB070030AC3D290803
:100B80002B0784002A082C3D85001200031DC92D67
:100B9000CA2DBB2D2C08A5002B08A4002100440859
:100BA0002000A700210043082000A60021005D18B6
:100BB000DA2DDB2D102EEB2D2030F2000030F3006B
:100BC00020002808F4008D31922585310130200065
:100BD000AB070030AC3D20002C08803AA20027086B
:100BE000803A2202031DF62D26082B02031CF92D44
:100BF000FA2DDC2D102E290884002A088500000813
:100C0000A200A3012208F2002308F3002808F40040
:100C10008D319225853101302000A9070030AA3D91
:100C2000FF302000A407FF30A53D240A031D1C2E21
:100C3000250A031D1C2E1D2EFB2D21005D1C212EBF
:100C4000222E412E322E2030F2000030F300200000
:100C50002808F4008D319225853101302000AB0742
:100C60000030AC3D20002C08803AA2002708803AD2
:100C70002202031D3D2E26082B02031C402E412E6E
:100C8000232E08002000AF0100308931C4218631B5
:100C900042302000CF009030D00058308931FE2102
:100CA000863158308931742186312000AF01AF0A76
:100CB00000308931C421863153302000CF0090307C
:100CC000D00058308931FE21863158308931742165
:100CD000863129302000E8009630E7007F30890B0C
:100CE0006F2EE70B6F2EE80B6F2E2000AF01003048
:100CF0008931C421863131302000CF009030D000BE
:100D000058308931FE21863158308931742186313D
:100D10002000AF01AF0A00308931C4218631203074
:100D20002000CF009030D00058308931FE2186312C
:100D300058308931742186312000AF01AF0A0B3061
:100D40008931C421863129302000E8009630E7003F
:100D50007F30890BA92EE70BA92EE80BA92E0800DE
:100D600003302000B0000830AF007730890BB62E7A
:100D7000AF0BB62EB00BB62E2000A90103308B317D
:100D8000EA23863134302000AF00F130890BC62EC3
:100D9000AF0BC62E00322000A90103308B31EA23AD
:100DA000863134302000AF00F130890BD52EAF0BE7
:100DB000D52E00322000A90103308B31EA23863181
:100DC00034302000AF00F130890BE42EAF0BE42E5D
:100DD00000322000A90102308B31EA2386310B302A
:100DE0002000AF006230890BF32EAF0BF32E000012
:100DF00028308A311C2286310F308A311C228631FC
:100E000006308A311C22863101308A311C2286311B
:100E100015302000AF00C630890B0C2FAF0B0C2F04
:100E2000000008002300C4000030C3000030C200EE
:100E30000030C1000030C0000030C5000030C600E6
:100E40000030C7004403031D262F272F402F0F30EB
:100E5000F2009830F3000230F4000030F500C530A5
:100E60008C31462487312D30F2009030F30003306E
:100E7000F4000030F500C0308C3146248731582F03
:100E80000C30F2009830F3000230F4000030F5002E
:100E9000C5308C31462487312D30F2009030F3007C
:100EA0000330F4000030F500C0308C314624873127
:100EB00064302000CF009030D000C530D100013028
:100EC000D2006808D4006708D3006A08D600690811
:100ED000D500C030D7000130D8006B088931FE2121
:100EE000873108002000A600A401A501260886007D
:100EF0008701403FA000413FA10020088400210855
:100F0000850012002A3A031D862F872FB92F260845
:100F1000860087010130810741310318810A780872
:100F20008600870101088400850102308107003FA7
:100F3000A400013FA500CD2F2308A000A101250892
:100F4000F3002408F2000A30F4000030F5008A3182
:100F50003A228731200020087207A4002108733D3F
:100F6000A50026088600870101308107413103185A
:100F7000810A260886008701403FA000413FA1006A
:100F800020088400210885000008D03EA3000A3014
:100F90002302031CCC2FCD2F9C2F2508F9002408F9
:100FA000F80008002100BC15E22F9731AD278731EA
:100FB000FF2F9731822787310330FF2F9731B227D8
:100FC0008731FF2F2C08F90021088A0020080A0029
:100FD00087312000A000A1012108003A0319F12F58
:100FE000DE2F2008013A0319DE2F033A0319D52F0B
:100FF000013A0319D52F073A0319D92FDE2F08001C
:1010000022000E112100E001E801E701E70A0800D3
:1010100021003C140314360D97319927883105308F
:101020000800240094010830950096014F3092008A
:10103000951208007708F3007608F2007808F400AB
:1010400000308A31FB22883108007030210099007D
:1010500098012200960121001A1F2F2830282B28E2
:1010600008002100570858040319372838283D285C
:1010700058088A0057080A00883108004528973127
:10108000D12788318B316D2388312100BC18492844
:101090004A283F280800F4002100BC1D5028512890
:1010A00058287408B7007308B9007208B800BC115A
:1010B000080021001508C039173895006430200059
:1010C000950064302100E9000B118B160800200008
:1010D000181D6B286C287328181071089700700869
:1010E0009600181477287108970070089600080079
:1010F0000130F2000030F300790888314B2088314C
:101100000030F600F700F80188311A2088310430E9
:1011100008002000A11B8D288E288F289A282009DE
:10112000A2002109A300A20A0319A30A2208A00011
:101130002308A100080000308A315922883177083D
:101140002100CC007608CB0002308A315922883148
:1011500077082100CA007608C9000800200099011C
:1011600063309700C0309600111017082100DC0092
:10117000200016082100DB00111411302000980017
:10118000080088311120883189318E2188318831D9
:10119000252088319731912788318831AE208831D8
:1011A0008831592088310800F500F401751CD928D0
:1011B000DA28DE287208F3007308F4070310F20D32
:1011C0000310F50C7508031DE628E728D6287408D7
:1011D0000800F500640023009518EF28F028EA289D
:1011E0007508F200F30172089100730892003F3015
:1011F000F40074089505151413080800F900760822
:10120000F20079088B31C02388317708F200790821
:10121000013E8B31C02388313430F800F230890B25
:101220000F29F80B0F2908002000111021005C087D
:10123000F1005B08F00088316720893121005908EE
:101240005A040319242925292A295A088A005908E9
:101250000A0089310800F2007208031D3029312983
:10126000372921004808CC004708CB0041297203E8
:10127000031D3B293C29412921004808CA00470891
:10128000C9000800F201F20A2100BC1848294929C6
:1012900058293C11FF30B60097316A2789319731C0
:1012A0007027893197316D27893121003B08F20081
:1012B000720808000B112100690820009500013018
:1012C0002100D5070030D63D003056020230031908
:1012D0005502031C6C296D2973298831312089310D
:1012E0002100D501D60108002000B0008429300873
:1012F00086000130870001088A3198228931013047
:101300002000AF002F08B0073008860001308700AA
:101310000108031D8C298D297729080022009001DE
:101320008C018D018E01083021009000FF308C006F
:10133000FF308D00F8308E0023008D013F308C008F
:10134000240090018D012100951722009D010800C5
:101350002000CC004908CE004808CD00B7294D3008
:10136000BA004A08BB004C0881319C218931200019
:101370004D0884004E0885001200031DC029C129B4
:10138000AF29C801C90108002000B40021006D0880
:101390002000B30021006C082000B20021006B087F
:1013A0002000B10021006A082000B0002F08303E64
:1013B000860087010108340780388A311C22893170
:1013C0000800F600F401F5017608031DE829E92973
:1013D000EF2921004C08F5004B08F400F9297603A9
:1013E000031DF329F429F92921004A08F5004908C9
:1013F000F4007508F3007408F20008002000DB0018
:101400005130DA005B08DC00DE01DF01E501E601B6
:101410005008C9004F08C8005A30CA005C308931F2
:10142000A821893120005E085B07D9005908860091
:1014300001308700810108002000AE00A9012E08BC
:10144000AD000430AD36890B222A2D088B31EA23FA
:101450008A312000A9012E080F398B31EA238A3105
:1014600015302000AD00C630890B342AAD0B342A6C
:1014700000000800F601F701721C3F2A402A442AA6
:101480007408F6077508F73D0130F435F50D890B42
:10149000452A0130F336F20C890B4A2A720873048C
:1014A000031D532A542A3C2A7708F3007608F200D9
:1014B00008002000A70027088831E9208A31200091
:1014C000A5002708013E8831E9208A312000A600C6
:1014D0002508A000A1012608A200A3012208A3005C
:1014E000A20120082204F60021082304F7000800C6
:1014F00021006608031D7D2A7E2A812AE301E4017A
:10150000972A0130F0007008E30764306302031C7F
:101510008A2A8B2A972AE3010130CF070030D03D79
:10152000E401E40AE701E70A8E318A268A310800DD
:101530002000AE00A901A90A2E08AD000430AD3686
:10154000890B9F2A2D088B31EA238A312000A901BB
:10155000A90A2E080F398B31EA238A311530200071
:10156000AD00C630890BB22AAD0BB22A00000800CC
:101570002000A400A501A50A2100BC18C02AC12A88
:10158000D62ABC142000A50124080319C82AC92A98
:10159000CD2A2100BA01BA0AD02A02302100BA00AD
:1015A000973173278A3188313E208A3120002508FF
:1015B0000800220056080319DE2ADF2AFA2ABE0193
:1015C000C001B501B301B401CB01C901CA01D60103
:1015D0002100E601E701E70AE80122000E110B30C5
:1015E000FB00FA01FA0A7A082000AF007B08893173
:1015F000C4218A310800F500720873040319012B15
:10160000022B112B7535A03E860087017208C03F62
:101610007308C13F7508AC3E8600870174088100DD
:101620001E2B7535A03E860087016830C03F1730FD
:10163000C13F7508AC3E860087018101080020008B
:10164000A600A401A501352B2308A100A2012108B1
:10165000F2002208F3002008F4008D3192258B312E
:1016600001302000A4070030A53D24082607A10072
:1016700021088600013087000108A3002308031D0C
:10168000422B432B242B080021003C100230BB00CE
:10169000512B9731AD278B316C2B9731B2278B3182
:1016A0006C2B2E08F9000430A03E86008701413FD4
:1016B0008A00403F0A008B312000A000A1012108D0
:1016C000003A0319642B4D2B2008023A0319492BC9
:1016D000013A0319492B4D2B080097316A278B31AA
:1016E00021003C1C742B752B802B9731CB278B3121
:1016F000003A03197C2B7D2B802B0F302100BA0080
:1017000021003A082000A200A301A235A30D003059
:10171000220784001030233D80388500013F8A0075
:10172000003F0A008B312100BA0008002000A80009
:10173000200028088C3183248B31003A0319A12B17
:10174000A22B982B7830F6000830F7002730F800ED
:1017500088311A208B310130F2000030F30026303E
:1017600088314B208B3100308A31B8228B3189315E
:1017700042218B31013A0319BE2BBF2BB72B080036
:10178000F50023009518C52BC62BC12B7508F30057
:10179000F4017308910074089200720893003F30BE
:1017A000F30073089505200003108B1FD82BD92B4D
:1017B000DA2B03148B132300151555309600AA302D
:1017C0009600951415112000031CE72BE82BE92B3C
:1017D0008B1708002000AB002B08AA000330AA35A5
:1017E000FF3E031DEF2B2A350838AC0029080319EA
:1017F000FA2BFB2BFC2B2C14A6012C080438A70079
:1018000027308B3196238B310B302000AA006230B9
:10181000890B082CAA0B082C00002000A6012C081C
:10182000FB39A70027308B3196238B31080021002C
:10183000650803191C2C1D2C452CE5010310200004
:101840000D1C03140030031801302200B6000310F1
:1018500020008D1C03140030031801302200C10049
:10186000031020000D1D0314003003180130220066
:10187000CC00031020008D1D03140030031801302C
:101880002200D700803157208C310800F8007808FA
:10189000F900662C0130F4020030F53B790886002F
:1018A00001308700F90A7308F7007208F600F20A9F
:1018B0000319F30A76088400770885000008C03F02
:1018C0008908031D642C652C662C762C740875041D
:1018D000031D6B2C6C2C4A2C762C79088600013069
:1018E000870081010130F6007608F9070130F40223
:1018F0000030F53B740A031D812C750A031D812CF1
:10190000822C6D2C0800F200F301F30A21003C192F
:101910008A2C8B2CBF2C7208B600BC103C153C10D6
:101920000E30BA00F430B4000130B500BC15683098
:10193000A0001730A100AC016830A2001730A3004E
:10194000AD016830A4001730A500AE016830A600D4
:101950001730A700AF010230A8000030A900B00185
:10196000200091112400951AB62CB72CBE2C94019E
:101970000830950096014F3092009516F3017308D8
:1019800008002000AD0021005D1CC72CC82CCF2C06
:1019900020002D08A00027088B311F238C31200048
:1019A000A91FD32CD42CD62CA801A901AB01AC01C2
:1019B000E82C2030F2000030F30020002D08F40065
:1019C0008D3192258C3101302000AB070030AC3DC9
:1019D0002C08803AAA002908803A2A02031DF22C1A
:1019E00028082B02031CF52CF62CD92C21005D189D
:1019F000FA2CFB2C022D20002D08A00027088B318B
:101A00001F238C3108002100370886008701973199
:101A10007F278D31810001302000A00020082100A7
:101A2000B7070130B8020030B93B38083904031950
:101A30001A2D1B2D202D97318D278D310530472DE7
:101A4000BC152A2D9731C1278D31472D9731BC27E1
:101A50008D31472D2C08F90021088A0020080A0042
:101A60008D312000A000A1012108003A0319392D71
:101A7000262D2008013A0319262D033A0319222D99
:101A8000013A0319222D073A0319262D262D0800A5
:101A90008831C1208D318530F2001730F300973145
:101AA000D7278D317830F2000A30F3009731DD27E7
:101AB0008D318B170B17883100208D3188319B2099
:101AC0008D318E31E6268D318631B0268D318631CD
:101AD00042268D318C3117248D318231D5228D31C2
:101AE000812D8F3143278D316A2D84315B248D31D7
:101AF0006A2D853109258D316A2D8A31D9228D31A2
:101B00006A2D21006808003A0319712D013A031962
:101B1000752D033A0319792D013A03197D2D6A2D8C
:101B20008031262874080319962D972D9C2D740852
:101B3000031D9B2D9C2DA12D7208973167278D3198
:101B4000E22D7408093E860087011600010403197E
:101B5000AA2DAB2DC92D7408093E86008701403F90
:101B6000F500413FF6007408023E86008701403FC1
:101B7000F700413FF8007808803AF9007608803A8B
:101B80007902031DC52D750877020318C82DC92DCC
:101B9000E22D7408860087017408023E84008501E6
:101BA00000080107F50075088600013087007208FB
:101BB00081007408023E86008701013081074131AF
:101BC0000318810A0800F801F51FE72DE82DEF2D15
:101BD000F409F509F40A0319F50AF801F80AF31FE4
:101BE000F22DF32DF82DF209F309F20A0319F30A85
:101BF000720873040319FD2DFE2D272EF701F70A35
:101C00000A2E0130F235F30D890B022E0130F60059
:101C10007608F707F31F0D2E0E2E012E730875029E
:101C2000031D142E72087402031C172E182E1C2E6E
:101C30007208F4027308F53B0130F336F20C890B9D
:101C40001D2E0130F702031D262E272E0E2E78089A
:101C500003192B2E2C2E312EF409F509F40A031941
:101C6000F50A7508F3007408F20008009731CB27D5
:101C70008E31003A03193D2E3E2E6D2E4B2E97319C
:101C8000A3278E31892E9731A8278E31892E97313F
:101C9000B2278E31892E21002F08F9000630A03E90
:101CA00086008701413F8A00403F0A008E312000B4
:101CB000A000A1012108003A03195F2E472E200839
:101CC000013A0319472E033A03193F2E013A03192B
:101CD000432E073A0319472E472E21003C10173098
:101CE000A03E86008701403F84008501810A0008EC
:101CF000973199278E3101302100B8020030B93B6D
:101D000038083904031D852E862E882E0630892E2C
:101D1000033008002100660803198F2E902E962E9E
:101D20004B084C04031D952E962E992E22000E1161
:101D3000E52E640803199D2E9E2EE52EE4014B0826
:101D40004C040319A42EA52EE22E6108031DA92E12
:101D5000AA2EC92E5008D4004F08D3004C085002B8
:101D6000031DB42E4B084F02031CB72EB82EE52ED0
:101D7000CF01D001D101D20149084A040319C12E73
:101D8000C22EE52E22000E112100E001E101E10A40
:101D9000E52E5008D2004F08D1004A085002031D1A
:101DA000D32E49084F02031CD62ED72EE52ECF0185
:101DB000D001D301D40122000E152100E001E00A78
:101DC000E101E52E22000E11E52E0800F7010B308F
:101DD000F20077088831D4208E312C3E8600013005
:101DE000870081010B30F20077088831D4208E31D2
:101DF0002D3E8600013087000030C03FC13F0B30D0
:101E0000F20077088831D4208E31313E86000130CF
:101E100087000030C03FC13F0B30F20077088831A7
:101E2000D4208E31333E86000130870081010B3093
:101E3000F20077088831D4208E31343E860001309C
:101E4000870081010B30F20077088831D4208E3171
:101E5000353E86000130870081010B30F2007708A3
:101E60008831D4208E31363E8600013087008101D2
:101E70000130F6007608F70704307702031C412F83
:101E8000422FE72E080022003E080319482F492F51
:101E90007A2FBE01C001B501B301B401CB01C90164
:101EA000CA01D6012100E701E70AE801E80AE601D4
:101EB00022000E1103100E1C03140318602F632F51
:101EC00022000E14652F22000E102100E20162088C
:101ED0008931E1218F3173082100C8007208C700E1
:101EE0000530FB00FA017A082000AF007B08893139
:101EF000C4218F312200560803197F2F802F9F2F76
:101F0000D6012100E601E60AE701E70A0330E8000E
:101F1000E1019731F8278F3121004B084C04031958
:101F2000922F932F952F22000E150B30FB00FA01F4
:101F30007A082000AF007B088931C4218F31080066
:101F40002000A101F31FA52FA62FAD2FF209F30941
:101F5000F20A0319F30AA101A10AF51FB02FB12F4C
:101F6000BA2FF409F509F40A0319F50A0130F6004D
:101F70007608A106A201A301720873040319C12FF8
:101F8000C22FF12FA001A00ACE2F0130F235F30DA0
:101F9000890BC62F0130F6007608A007F31FD12F5A
:101FA000D22FC52F0130A235A30D890BD32F730873
:101FB0007502031DDD2F72087402031CE02FE12F50
:101FC000E62F7208F4027308F53B22140130F33651
:101FD000F20C890BE72F0130A002031DF02FF12F27
:101FE000D22F21080319F52FF62FFB2FA209A309E1
:101FF000A20A0319A30A2308F3002208F20008002A
:102000009E34173408340834F034173436340E3420
:1020100003340D34E9341734D2340734A33417347D
:10202000A8341734AD341734B2341734B7341734F6
:10203000BC341734C1341734C634173444340B3429
:10204000563465347234733469346F346E343A34D0
:10205000203430342E34373430342034203420349B
:10206000003445346434693474343A344534453486
:102070002034593469346D3469346E346734203413
:1020800020340034573465346C3463346F346D3429
:102090006534203474346F3420344C344634413445
:1020A0002E34203400344C3461346D347034203498
:1020B0007434653473347434203474346F346F344E
:1020C0006C342E3420340034253473343A342534BF
:1020D000303433346434203425343034333464348D
:0820E000203425347334003470
:102ECE00080001300800200091110800240095121E
:102EDE000800210091110800240016140800240097
:102EEE0096140800240016150800240096150800F4
:102EFE002400110808002000911508002100E501AA
:102F0E00E50A0800240096161616080024009612EC
:102F1E0016160800163021009700080000344034C1
:102F2E0010345034F2007208240091000800210081
:102F3E00BC10BB010E300800973176279731013057
:102F4E00080097317627973102300800973176279F
:102F5E0097310130080097317927973100300800FA
:102F6E0097318D2797310530080097318927973192
:102F7E000A3008009731892797310930080021005F
:102F8E00BC10BB010E3008002400160E890C890CF3
:102F9E00013908002000911DD52FD62FD12F080002
:102FAE0073082100D8007208D700080073082100AA
:102FBE00DA007208D9000800640080010131890B23
:102FCE00E42F003421003C1097317C2797310430D8
:102FDE00080021003C14363597319927973103307C
:102FEE0008002100E301D301D401D101D201E40193
:102FFE00080028346E3475346C346C342934003443
:10300E00253430343334643400344F344634003491
:06301E004F344E34003473
:020000040001F9
:04000E00E43FDF1FCD
:10E00000050000000300000000000000FF00FF000A
:10E01000FF00FF00FF00FF00FF00FF00FF00FF0008
:00000001FF
